:020000040800F2
:10000000503D00207502000877410008C137000804
:1000100075410008E11100080944000800000000D3
:100020000000000000000000000000007B4100080C
:100030002D12000800000000794100087D410008F1
:100040008F0200088F0200088F0200088F0200084C
:100050008F0200088F0200082F1200088F0200088C
:100060008F020008351200088F0200088F02000876
:100070008F0200088F0200088F020008E5110008B7
:10008000F11100088F0200088F0200088F0200089B
:100090008F0200088F0200088F0200083B12000840
:1000A0008F0200088F0200088F0200088F020008EC
:1000B0008F0200088F0200088F0200088F020008DC
:1000C0008F0200088F0200088F0200088F020008CC
:1000D0008F020008F1430008FD4300088F0200086A
:1000E0008F0200088F0200088F0200088F020008AC
:1000F0008F0200088F0200088F020008FD1100081F
:100100008F0200088F0200088F0200088F0200088B
:100110008F02000819430008914100089D41000822
:100120008F02000809120008151200088F0200084B
:100130008F0200088F0200088F0200088F0200085B
:100140008F0200088F0200088F0200088F0200084B
:100150008F020008211200088F0200088F02000899
:100160008F0200088F0200088F0200088F0200082B
:100170008F0200088F0200088F02000800000000B4
:100180008F0200088F02000800F002F800F062F809
:100190000AA090E8000C82448344AAF10107DA45E2
:1001A00001D100F057F8AFF2090EBAE80F0013F0D2
:1001B000010F18BFFB1A43F00103184774760000C3
:1001C000947600000A444FF0000C10F8013B13F045
:1001D000070408BF10F8014B1D1108BF10F8015BA0
:1001E000641E05D010F8016B641E01F8016BF9D193
:1001F00013F0080F1EBF10F8014BAD1C0C1B09D1EA
:100200006D1E58BF01F801CBFAD505E014F8016B5B
:1002100001F8016B6D1EF9D59142D6D370470000ED
:100220000023002400250026103A28BF78C1FBD8FF
:10023000520728BF30C148BF0B6070471FB507F099
:1002400065FA9DE8030000F0B7FE00F087FE1FBDD1
:1002500010B510BD00F042FF1146FFF7EFFF07F0A9
:1002600007FA00F060FF03B4FFF7F2FF03BC00F0F1
:1002700091FF00000948804709480047FEE7FEE774
:10028000FEE7FEE7FEE7FEE7FEE7FEE7FEE7FEE746
:1002900004480549054A064B7047000081410008A3
:1002A00089010008501F0020503D0020502E0020E2
:1002B000502E002070B405880E884468D1F804C020
:1002C0005368B54208D140884988884201BF1188E7
:1002D0008D425188884203D070BC6FF00200704795
:1002E00005FB00F1880827D094ED001ADCED000A28
:1002F00094ED010ADCED011A31EE201AD4ED020A68
:1003000070EE211A9CED020A83ED001AC3ED011A6A
:1003100094ED031ADCED031A30EE800A401E71EEF4
:10032000210A83ED020A04F11004C3ED030A03F16C
:1003300010030CF1100CD7D111F0030030D0B0F144
:10034000004F30D200282BDD211F1B1FACF104020F
:1003500010F0010F0AD091ED010AD2ED010A091D3A
:10036000121D30EE200A83ED010A1B1D400817D034
:1003700091ED010AD2ED010A401E30EE200A83ED14
:10038000010A91ED020AD2ED020A01F1080102F11F
:10039000080230EE200A83ED020A03F10803E7D1D8
:1003A00070BC00207047B4EC010A401EFCEC010A4E
:1003B00030EE200AA3EC010AF5D1F1E7018042807A
:1003C000436070472DE9F34F84B004984068009073
:1003D000486801900498B0F800E04588DFEDFE0A17
:1003E00000200290B0EE600AAE4506D10888498828
:1003F000884204BF7146864504D06FF0020006B003
:10040000BDE8F08F01985FEA010C18BFB7EE001A43
:100410003DD000BFBEEB0C0117D0B1F1004F80F012
:100420001F82002911DD021F11F0010F1CBFC2ED58
:10043000010A121D4B1006D0C2ED010AC2ED020ADC
:1004400008325B1EF8D100EB8100BCF10102A0EC88
:10045000011A19D0B2F1004F80F00882002A13DD92
:10046000031F12F0010F1CBFC3ED010A1B1D511029
:1004700008D000BFC3ED010AC3ED020A491E03F113
:100480000803F7D100EB8200BCF1010CC2D14FF0A0
:1004900000080395002D14BFB0EE602A002000F084
:1004A000BF8100BF009908FB05F001EB800B0199AB
:1004B000DBED002A01EB80000346F0EE421AC64550
:1004C00052D9AEEB0802ABEB850112F0010F17D049
:1004D00001EB850191ED000AB5EEC00AF1EE10FACC
:1004E00007DDB4EEE10AF1EE10FA09DDF0EE401A94
:1004F00006E0B1EE400AF4EEC01AF1EE10FAF5D3C0
:10050000521031D001EB850C9CED000AB5EEC00A0B
:10051000F1EE10FA05DDB4EEE10AF1EE10FA09DDB4
:1005200006E0B1EE400AF4EEC01AF1EE10FA01D284
:10053000F0EE401A01EBC50191ED000AB5EEC00ADC
:10054000F1EE10FA05DDB4EEE10AF1EE10FA09DD84
:1005500006E0B1EE400AF4EEC01AF1EE10FA01D254
:10056000F0EE401A521ECDD1F5EEC01AF1EE10FA9F
:1005700000F07381F5EEC02A0126F1EE10FA009921
:10058000D4BFB1EE620AB0EE620AB4EE610AF1EED7
:1005900010FA1CBFAEEB0802B2F1010C47D005FB0C
:1005A00008F201EB820292ED001A00BFB0EE410AA0
:1005B00005FB06F4B5EEC00A00EB8404F1EE10FA78
:1005C000CCBFF0EE400AF1EE400AF4EE610AF1EE23
:1005D00010FA28D1B5EB080C11D0BCF1004F7DD238
:1005E000BCF1000F0BDD00BF92ED000AD1ED000A57
:1005F000BCF1010CE2EC010AA1EC010AF4D12900E2
:100600000ED0B1F1004F6AD2002909DD94ED000A45
:10061000D0ED000A491EE4EC010AA0EC010AF5D174
:10062000012002900BE0761CBCF1010CBED10298B7
:10063000012804D0F5EEC02AF1EE10FA7ED09BED31
:10064000000AB5EB08009A465946064622D0B0F19A
:10065000004F74D200281DDD091F10F0010F06D0D5
:10066000F0EE400A80EEA01A81ED011A091D40103B
:1006700010D000BFD1ED010A401E80EE801A81ED3E
:10068000011A91ED021AC1EE000AC1ED020A01F150
:100690000801EFD1280026D0B0F1004F7ED200280B
:1006A00021DDAAF1040110F0010F06D0D1ED010AFD
:1006B00080EE801A81ED011A091D401013D000BF91
:1006C000D1ED010A401E80EE801A81ED011AD1EDB4
:1006D000020A80EE801A81ED021A01E0CBE0D6E03A
:1006E00001F10801ECD1DDE900124FF000095FEAE9
:1006F0000E0773D0C14504BF01EB860102EB8502F2
:1007000074D091ED000ADC465046331E35D01C46AD
:10071000B6F1004F7ED2002C2FDD0B1FABF1040C85
:1007200016F0010F0FD0F0EE400ADCED011AB0EE2A
:10073000601A00EEE11A83ED011A01E08DE0B1E0EC
:100740001B1D0CF1040C741015D000BFD3ED010A71
:100750009CED011A40EE410AC3ED010AD3ED020AF5
:100760009CED021A0CF1080C40EE410AC3ED020A9E
:100770000833641EEAD101EB86012B0036D0B3F1B9
:10078000004F72D2002B31DDA2F1040CAAF104005B
:1007900013F0010F0CD0DCED010A00E08BE090EDCE
:1007A000011A001D40EE410ACCED010A0CF1040CC7
:1007B0005C1019D0DCED010A90ED011A40EE410AFF
:1007C000CCED010ADCED020A90ED021A083040EE91
:1007D000410ACCED020A03E0000000000DE005E054
:1007E000641E0CF1080CE5D102EB830201EB8801D9
:1007F0007F1E09F101097FF47DAF009808F101081F
:10080000001D00900398401E03907FF44BAE0299A8
:10081000012900E058E004BF06B0BDE8F08F00BF3A
:10082000B5EEC00AF1EE10FA7FF4E9AD04990EFBC3
:1008300005F3002B4A684FF000010BD902EB810C45
:100840009CED000AB5EEC00AF1EE10FA02D1491C87
:100850008B42F3D88B427FF4D2AD6FF00400CEE52B
:10086000E0EC010A491EFBD1EFE538E0E0EC010ABB
:10087000521EFBD108E692ED000AD1ED000ABCF150
:10088000010CE2EC010AA1EC010AF4D1B7E694ED07
:10089000000AD0ED000A491EE4EC010AA0EC010AAE
:1008A000F5D1BDE6D1ED000A401E80EE801AA1EC24
:1008B000011AF7D1EEE6D3ED000A401E80EE801A51
:1008C000A3EC011AF7D10EE7BCEC011AD1ED000A36
:1008D0005B1E40EE410AE1EC010AF5D14DE7B0ECB8
:1008E000011AD2ED000A5B1E40EE410AE2EC010A59
:1008F000F5D17BE72DE9F04F82B04668536801934C
:10090000058847884B88002000900888874201BFEF
:10091000B2F800C06545528893421EBF6FF00200D6
:1009200002B0BDE8F08F9FED412A4FEA970EC7F362
:10093000400B00BFDDE9000202EB800A4A689846DE
:100940004FF00009B0EE420AB4465FEA0E0025D02F
:1009500092ED001ADCED001A02EB8302DCED010AD5
:1009600001EE810A92ED001A02EB8302401ED2EDE5
:10097000001A02EB830200EE810A9CED021ADCED04
:10098000030A00040CF1100C000C01EE210A92ED98
:10099000001A02EB830200EE810AD9D117F003009E
:1009A00026D0ACF10404A2EB830210F0010F08D0B2
:1009B00002EB8302D4ED010A92ED001A241D00EE31
:1009C000810A5FEA0B0013D002EB830CD4ED010A1D
:1009D0009CED001A02EBC302401E00EE810AD4ED2A
:1009E000020A92ED001A04F1080400EE810AEBD12C
:1009F00009F10100AAEC010A1FFA80F9486800EB2E
:100A00008902A8F101001FFA80F8B8F1000F99D10E
:100A1000009806EB8706184480B20090681E050413
:100A20002D0C87D102B00020BDE8F08F000000003F
:100A300070B405880E884468D1F804C05368B54284
:100A400008D140884988884201BF11888D42518869
:100A5000884203D070BC6FF00200704705FB00F1C4
:100A6000880827D094ED001ADCED000A94ED010A05
:100A7000DCED011A31EE601AD4ED020A70EE611A53
:100A80009CED020A83ED001AC3ED011A94ED031ADE
:100A9000DCED031A30EEC00A401E71EE610A83EDF0
:100AA000020A04F11004C3ED030A03F110030CF170
:100AB000100CD7D111F0030030D0B0F1004F30D27C
:100AC00000282BDD211F1B1FACF1040210F0010FC9
:100AD0000AD091ED010AD2ED010A091D121D30EE76
:100AE000600A83ED010A1B1D400817D091ED010A31
:100AF000D2ED010A401E30EE600A83ED010A91ED4D
:100B0000020AD2ED020A01F1080102F1080230EEF8
:100B1000600A83ED020A03F10803E7D170BC0020EC
:100B20007047B4EC010A401EFCEC010A30EE600A8A
:100B3000A3EC010AF5D1F1E72DE9F04F02884768EF
:100B4000B0F802804888D1F8049082B04FF0000AD3
:100B50001646824207BF098888456FF0020002B03E
:100B600018BFBDE8F08F4FEA980B02EB42000190EE
:100B7000C8F34000CDF8000009EB8A01BBF1000F7B
:100B800033D0019801EB820C01EB80043B46E64632
:100B900001EBC2054FEA0B0093ED000A401E81ED08
:100BA000000A93ED010A01EB02118CED000A93EDAE
:100BB000020A0CEB021C85ED000A93ED030A05EB1B
:100BC000021584ED000A04EB021403F11003E3D1D3
:100BD0000EEB820000EB820000EB8201ABF1010022
:100BE000504307EB0B1701EB001118F0030C21D059
:100BF0003B1FA1EB82011CF0010F06D093ED010A0F
:100C000001EB82011B1D81ED000A009880B100BF3D
:100C100093ED010A01EB820401EBC20184ED000AAD
:100C200093ED020A401E81ED000A03F10803EFD1A3
:100C300007EB8C070AF101001FFA80FA701E060408
:100C4000360C99D102B00020BDE8F08F70B5064691
:100C500000F096F9056806F10B0020F00704B44295
:100C60009CBF002070BD2B466A68BAB11068A042D4
:100C700010D304F1080188423CBF5068586007D384
:100C80005168101941601168091B016058601460B7
:100C9000101D70BD13465268002AE7D12146284630
:100CA00000F076F90028DED170BD53EA020C00F0A6
:100CB00069802DE9F04B4FF00006002B1FBFB3FAFF
:100CC00083F503FA05F424FA05F65E4012BF1643D5
:100CD000B2FA82F502FA05F4C5F120051EBF22FA28
:100CE00005FC44EA0C04203556EA044C4FEA14444F
:100CF00018BF641C4FF000084FF00009904271EBE0
:100D0000030C39D3002919BFB1FA81F701FA07F6AC
:100D1000B0FA80F700FA07F6C7F120071EBF20FAE5
:100D200007FC46EA0C062037B6FBF4FCA7EB0507E8
:100D3000103F07F01F0BCBF120060CFA0BFB2CFA2F
:100D400006F644BFB3460026202FA4BF5E464FF0F0
:100D5000000B5BEA060C08BF4FF0010B19EB0B0907
:100D6000ABFB027C48EB0608C01B06FB02CC0BFB6E
:100D700003CC71EB0C01C1E70B46024641464846E5
:100D8000BDE8F08B13B54FF000004FF00001AFF35A
:100D90000080BDE81C40704710B5431C02E010F80D
:100DA000011B71B18107FAD14FF0013202C88C1AD0
:100DB0008C4314EAC211F9D0C01A0A0603D0C01E2F
:100DC00010BDC01A10BD0A0401D0801E10BD09025A
:100DD000FCD0401E10BD032A40F2308010F0030CFE
:100DE00000F0158011F8013BBCF1020F624498BF7E
:100DF00011F801CB00F8013B38BF11F8013BA2F11B
:100E0000040298BF00F801CB38BF00F8013B11F095
:100E1000030300F02580083AC0F0088051F8043B35
:100E2000083A51F804CBA0E80810F5E7121D5CBFA2
:100E300051F8043B40F8043BAFF30080D20724BFD5
:100E400011F8013B11F801CB48BF11F8012B24BF69
:100E500000F8013B00F801CB48BF00F8012B7047B8
:100E600010B5203AC0F00B80B1E81850203AA0E845
:100E70001850B1E81850A0E81850BFF4F5AF5FEA79
:100E8000027C24BFB1E81850A0E8185044BF18C92C
:100E900018C0BDE810405FEA827C24BF51F8043BD3
:100EA00040F8043B08BF7047D20728BF31F8023B27
:100EB00048BF11F8012B28BF20F8023B48BF00F8BB
:100EC000012B70474FF000020429C0F0128010F08F
:100ED000030C00F01B80CCF1040CBCF1020F18BF16
:100EE00000F8012BA8BF20F8022BA1EB0C0100F0A9
:100EF0000DB85FEAC17C24BF00F8012B00F8012B7C
:100F000048BF00F8012B70474FF0000200B51346B0
:100F100094469646203922BFA0E80C50A0E80C5019
:100F2000B1F12001BFF4F7AF090728BFA0E80C50CA
:100F300048BF0CC05DF804EB890028BF40F8042BC3
:100F400008BF704748BF20F8022B11F0804F18BF30
:100F500000F8012B704770477047704770B5064C1A
:100F60007C44064D7D4403E0206820448047241DD6
:100F7000AC42F9D170BD0000EC680000FC680000D4
:100F800000487047F81E0020704770477047704750
:100F900038B504460A4600206946AFF300800028B1
:100FA00008BF38BD02460099204600F075F80120C0
:100FB00038BD012000F08AB8F8B5AFF300800546CF
:100FC00000200C46102000BF0646A819A0420DD9EB
:100FD000324669460020AFF30080070008BF00F0EA
:100FE00075F80098A04218BF0546C419FFF7C8FF5E
:100FF00005600746F01D20F007004619284600F05E
:101000000AF8B44208BFF8BDA21B31463868BDE8F3
:10101000F84000F041B800210160C0E901107047BC
:101020001020704770B50446051FFFF7A9FF006840
:10103000002C14BF446870BD002C18BFAC423CBFEC
:1010400020466468F8D301680A18AA4218BF4560B0
:1010500003D12A6805461144016028684119A1425C
:101060001CBF6C6070BD61686960216808442860BD
:1010700070BD10B500F00CF8006810BD10B5044646
:1010800000F006F8046010BD00487047F01E002014
:1010900000487047F01E0020034640688C46002838
:1010A00018BF88423CBF03464068F8D3186818440C
:1010B000884207D00CF1030020F00700001D411A00
:1010C000521A0146081D0A60FFF7ACBF10B500F0C8
:1010D00039F8BDE8104000F02FB870477546FFF7AB
:1010E000D3FFAE4605006946534620F0070085460B
:1010F00018B020B5FFF7CCF8BDE820404FF000064F
:101100004FF000074FF000084FF0000B21F00701EF
:10111000AC46ACE8C009ACE8C009ACE8C009ACE832
:10112000C0098D46704710B50446AFF300802046D5
:10113000BDE81040FFF797B8002801D000F02AB8AA
:101140007047000010B5012805D0002103A000F071
:1011500027F8012010BD09A1F8E7000053494752C4
:10116000544D454D3A204F7574206F662068656177
:1011700070206D656D6F7279000000003A2048653F
:101180006170206D656D6F727920636F727275701A
:101190007465640001491820ABBEFEE7260002001A
:1011A00070B505460C460A2000E06D1C00F011F8F1
:1011B00035B128780028F8D102E0641C00F009F865
:1011C00014B120780028F8D1BDE870400A20AFF3B0
:1011D000008008B569468DF800000320ABBE08BD4D
:1011E000FEE70000014800F087B80000D0020020B0
:1011F000014800F081B8000060080020014800F0BC
:101200007BB80000A0070020014800F075B800007E
:10121000C0080020014800F06FB80000000800205E
:10122000014800F069B80000200900207047012043
:1012300000F000BA082000F0FDB94FF4007000F093
:10124000F9B972B6FEE72DE9F0410446A76D00F04A
:10125000F5FA054694F835000026022806D08020CD
:10126000606584F834600120BDE8F0812068016881
:1012700021F0160101602068416921F0800141617F
:10128000206C08B9A06C20B12068016821F0080129
:1012900001602068016821F0010101600BE000F0AD
:1012A000CDFA401B052806D92020343420620320C3
:1012B00060702670D8E720680068C007EFD134342A
:1012C0003F2094F828108840B86001206070267094
:1012D0000020C9E790F83510022903D0802141652C
:1012E00001207047052180F835100068016821F061
:1012F00001010160002070472DE9F84304464FF0DA
:101300000009CDF800906F484FF416510068B0FB0B
:10131000F1F7A56D2E6894F85C00082202FA00F13E
:10132000314210D02068016849070CD5016821F0CE
:101330000401016094F85C0002FA00F1A960606D9C
:1013400040F00100606594F85C104FF0010808FA65
:1013500001F0304208D021684969090604D5A86027
:10136000606D40F00200606594F85C1004208840D5
:10137000304208D021680968890704D5A860606DEB
:1013800040F00400606594F85C1010208840304202
:1013900020D02168096809071CD5A8602068016869
:1013A00049030CD50068000304D4216C91B1204698
:1013B00088470FE0A16C69B1204688470AE00168C0
:1013C000C90503D4016821F008010160216C09B14D
:1013D0002046884794F85C102020884030424CD04A
:1013E00021680968C90648D5A86094F83500052821
:1013F0000BD020680168490330D50068000328D469
:10140000616C51B32046884737E02068016821F0BD
:10141000160101602068416921F080014161206C62
:1014200008B9A06C20B12068016821F008010160B2
:1014300094F85C103F208840A86084F8358084F8D8
:101440003490216D00293BD001B02046BDE8F04327
:101450000847E16B09B1204688470EE00168C905DD
:1014600007D4016821F01001016084F8358084F808
:101470003490E16B09B120468847606D00281FD089
:10148000606DC00714D0052084F83500206801681D
:1014900021F0010101600098401C0090B84203D87F
:1014A00020680068C007F6D184F8358084F834904D
:1014B000E16C002904D001B02046BDE8F0430847A4
:1014C000BDE8F883100000202DE9F041044600F04B
:1014D000B5F905465CB1022084F83500002684F891
:1014E00034602068016821F0010101600DE00120F5
:1014F000BDE8F08100F0A2F9401B052805D92020A5
:101500006065032084F83500F2E720680068C007B2
:10151000F0D121680A6820480240D4E90103184349
:10152000D4E903352B43184363691843A36918436F
:10153000E3691843236A18431043626A042A03D1FB
:10154000D4E90B231A43104308602068406920F057
:101550000700656A29460543012704290DD1A06AC1
:101560000543E06A48B1204605F06FF828B14020F5
:10157000606584F835700120BAE72068456120462F
:1015800005F0A0F894F85C203F21914081606665E9
:1015900084F835700020ABE73F8010F02DE9F04172
:1015A00004460025A66D94F8340001280DD00120D2
:1015B00084F8340094F835700020012F07D084F8A7
:1015C000340002252846BDE8F0810220FBE702270F
:1015D00084F835706065204605F022F894F85C10B8
:1015E0003F208840B0602068016841F0160101602A
:1015F000206C20B12068016841F00801016020687A
:10160000016841F001010160DCE7000070B50446AB
:1016100000F014F90546601C02D004480078044428
:1016200000F00CF9401BA042FAD370BD040000206A
:101630007047000010B504490A68024202D00860F1
:10164000FFF7F6FF10BD0000143C01402DE9F84FF4
:101650000022DFF89C914FF0010809F1040A0327EA
:101660004FF00F0C0AF1040B08FA02F50B682B403F
:10167000AB426ED10C7904F00304012C01D0022C92
:1016800015D18668540007FA04FE26EA0E06D1F842
:101690000CE00EFA04FE4EEA060EC0F808E04468BC
:1016A000AC430D79C5F300159540254345600C7991
:1016B000E443A40708D0C568540007FA04F6B5430C
:1016C0008E68A6402E43C6600C7904F00304022CF9
:1016D00011D1D40800EB8406356A5407E40E0CFAE5
:1016E00004FE25EA0E05D1F810E00EFA04FE4EEADB
:1016F000050EC6F820E00568540007FA04F6B54365
:101700000E7906F00306A6402E4306604C6814F4DA
:10171000403F67D0374C256845F4804525602468F4
:1017200004F480440094344C22F003052E19D6F8BA
:10173000085894074FEA147E0CFA0EF4A5432F4C78
:10174000A04201D1002424E02D4CA04202D101246A
:101750001FE047E02B4CA04201D1022419E02A4CA3
:10176000A04201D1032414E0284CA04201D104245A
:101770000FE0274CA04201D105240AE0254CA042ED
:1017800001D1062405E0244CA04201D1072400E049
:10179000082404FA0EF42C43C6F80848D9F800408F
:1017A0009C434D68ED0300D51C43C9F80040DAF8AE
:1017B00000409C434D68AD0300D51C43CAF800406F
:1017C000DBF800409C434D68ED0200D51C43CBF88C
:1017D0000040074D0C352C689C434E68B60200D57E
:1017E0001C432C60521C102AFFF43EAFBDE8F88F5A
:1017F000003C0140443802400030014000000240FB
:101800000004024000080240000C024000100240A8
:101810000014024000180240001C0240426921EA04
:1018200002030A4043EA024181617047002A01D065
:101830008161704709048161704700000148806838
:1018400070470000040000200248816802781144BB
:10185000816070470400002010B50B48016841F416
:1018600000710160016841F480610160016841F428
:1018700080710160032000F073F8032000F006F887
:1018800000F026F8002010BD003C024070B5044670
:101890000D4D4FF47A712878B1FBF0F00B490968CF
:1018A000B1FBF0F000F011FE08B1012070BD102C6A
:1018B00007D200222146501E00F032F86C60002052
:1018C00070BD012070BD0000040000201000002049
:1018D00082B00B48016841F480410160006800F467
:1018E000804001900648001F016841F0805101606E
:1018F000006800F080500190052002B000F030B880
:1019000044380240002809DB00F01F020121914009
:101910004009800000F1E020C0F80011704700008D
:10192000F0B40D460D4B1B68C3F30223C3F107044B
:10193000042C00D90424191D072901D2002300E03A
:10194000DB1E012606FA04F1491E294099409E40FB
:10195000761E16403143F0BC05F0B6BA0CED00E03F
:1019600000F00701054A10684FF6FF03184040EAEF
:101970000120034908431060704700000CED00E0AF
:101980000000FA052DE9F04704460D46002C13D05F
:10199000DFF82891D9F80000EFB200F00700A84264
:1019A0000CD289F80070D9F8000000F00700A842B6
:1019B00004D00120BDE8F0870120FBE72068404EFD
:1019C000810712D5400703D5306840F4E0503060FD
:1019D0002078000703D5306840F4604030603068FC
:1019E000A16820F0F000084330602078C00731D0B3
:1019F000334960680839012808D002280BD0032831
:101A000009D0096889070BD40120D3E70968890345
:101A100006D40120CEE70968890101D40120C9E775
:101A2000316821F0030101433160FFF707FF804671
:101A300041F2883A07E0FFF701FFA0EB08005045AC
:101A400001D90320B6E73068616800F00C00B0EB04
:101A5000810FF0D1D9F8000000F00700A84209D9A1
:101A600089F80070D9F8000000F00700A84201D002
:101A700001209FE72078400705D53068E16820F411
:101A8000E050084330602078000706D530682169AF
:101A900020F4604040EAC100306000F03FF8316857
:101AA000084AC1F30311515CC84007490860074860
:101AB0000068FFF7EBFE00207CE70000003C0240DE
:101AC000083802401E77000810000020080000209F
:101AD00001480068704700001000002000B5FFF7C3
:101AE000F7FF04490968044AC1F38221515CC840E8
:101AF00000BD0000083802402E77000800B5FFF74F
:101B0000E7FF04490968044AC1F34231515CC84007
:101B100000BD0000083802402E77000810B51548B7
:101B2000006810F00C01144823D0042921D00829A2
:101B30001FD1104C241F216801F03F022168490287
:101B400008D521680023C1F38811A1FB0001FFF72C
:101B5000ACF807E021680023C1F38811A1FB000164
:101B6000FFF7A3F82168C1F30141491C4900B0FB0C
:101B7000F1F010BD083802400024F4002DE9F84FC0
:101B80000446002C13D02078DFF8A083C007A8F10A
:101B9000040556D008F104000168C1F38101012950
:101BA0000CD00068C0F38100022803D00DE00120B2
:101BB000BDE8F88FD8F80000400206D528688003F9
:101BC0003FD5606870BB0120F2E76068B0F5803FE8
:101BD00010D0B0F5A02F12D0286820F480302860F3
:101BE000286820F4802028606068E0B1FFF726FEB6
:101BF000064614E0286840F480302860F4E728683E
:101C000040F480202860286840F480302860EBE7AA
:101C1000FFF714FE801B642801D90320C8E7286859
:101C20008003F5D50DE0FFF709FE064606E0FFF755
:101C300005FE801B642801D90320B9E728688003CA
:101C4000F5D42078BA4F80074FF0000948D5B7483F
:101C5000001D016811F00C0F08D00068C0F381006E
:101C6000022813D1D8F8000040020FD4286880075A
:101C700004D5E068012801D0012099E7286821698E
:101C800020F0F80040EAC100286029E0E068B8B11F
:101C900001203860FFF7D2FD064606E0FFF7CEFDD3
:101CA000801B022801D9032082E728688007F5D528
:101CB0002868216920F0F80040EAC10028600FE0A0
:101CC000C7F80090FFF7BAFD064606E0FFF7B6FD3D
:101CD000801B022801D903206AE728688007F5D411
:101CE0002078000729D5DFF844A2924861690AF1FB
:101CF000700A89B101210160FFF7A0FD064606E0E8
:101D0000FFF79CFD801B022801D9032050E7DAF879
:101D100000008007F4D510E0C0F80090FFF78EFDBA
:101D2000064606E0FFF78AFD801B022801D9032042
:101D30003EE7DAF800008007F4D42078400778D531
:101D40004FF0000A79483C300068C0000BD4774857
:101D50003C30016841F080510160006800F0805023
:101D600000904FF0010ADFF8D0B1DBF80000C005A9
:101D700014D4DBF8000040F48070CBF80000FFF7CB
:101D80005DFD064606E0FFF759FD801B022801D9DC
:101D900003200DE7DBF80000C005F4D5634EA06812
:101DA0006C3601280FD0052812D0306820F00100D1
:101DB0003060306820F004003060A068F8B1FFF7B0
:101DC0003DFD834617E0306840F001003060F4E7E5
:101DD000306840F004003060306840F0010030604E
:101DE000EBE7FFF72BFDA0EB0B0141F288308142BE
:101DF00001D90320DCE630688007F2D510E0FFF758
:101E00001DFD834609E0FFF719FDA0EB0B0141F230
:101E10008830814201D90320CAE630688007F2D4B5
:101E2000BAF1010F05D141483C30016821F08051E1
:101E30000160A069C0B33D49091D09684FF0FF3634
:101E4000C1F38101022946D0022805D0C7F860906D
:101E5000FFF7F4FC04463AE0C7F86090FFF7EEFCA9
:101E6000814607E0FFF7EAFCA0EB0900022801D950
:101E700003209DE628688001F4D4D4E907010843D3
:101E8000616AA26A890106EB520241EA02410843F3
:101E900094F82C1040EA0160C8F800000120386670
:101EA000FFF7CCFC044607E03DE0FFF7C7FC001B52
:101EB000022801D903207BE628688001F5D532E0AD
:101EC000FFF7BCFC001B022801D9032070E628683C
:101ED0008001F5D427E0012823D0D8F80000E2697A
:101EE00000F4800191421AD1226A00F03F01914230
:101EF00015D147F6C071626A0140B1EB821F0ED165
:101F0000A26A00F4403106EB5202B1EB024F06D157
:101F100094F82C1000F07060B0EB016F03D001203A
:101F200046E6012044E6002042E600000438024074
:101F300000004742800E474200700040704770B575
:101F40000446002C09D0606A002540B12561656116
:101F5000A56294F8510040B10CE0012070BD6068AA
:101F6000B0F5827FF4D0E561F2E784F85050204666
:101F700000F044F8022084F851002068016821F044
:101F800040010160A088218900F4827001F40441BD
:101F90000843A18901F400610843217C01F002019A
:101FA0000843217D01F001010843218B01F40071F8
:101FB0000843217F01F03801084394F8201001F014
:101FC00080010843218D01F4005108432168086015
:101FD000A069042101EA104094F8241001F01001D6
:101FE0000843216848602068C16921F40061C1612B
:101FF0006565012084F85100002070BD2DE9F04195
:1020000086B00646142101A8FEF77EFF3A4A3068E2
:1020100000253A49022403274FF00508904220D1B9
:1020200036481430026842F480520260006800F4BE
:1020300080500090086840F002000860086800F0D6
:102040000200009038200190029401200390049730
:10205000CDF8148001A92A48FFF7F8FA06B0BDE8C8
:10206000F081284A9042F9D124481030026842F4A5
:1020700080420260006800F480400090086840F4EC
:1020800080700860086800F480700090086840F074
:1020900004000860086800F00400009001940294B5
:1020A00003950497CDF8148001A91748FFF7CEFADD
:1020B00008200190029403950497CDF8148001A99B
:1020C0001248FFF7C3FA134C1148206065604020A6
:1020D000A060E560000120616561A561E5618001A6
:1020E000206265622046FFF7EFF908B1FFF7A9F813
:1020F000B464A663B2E7000000300140303802400B
:102100000004024000380040002002400008024065
:1021100070600240D0020020704770472DE9F84FF0
:1021200004460A9E8A4693461F4601254FF0000842
:1021300094F8500001280ED0012084F85000FFF7D9
:102140007DFB814694F85100616801280DD0B1F5FE
:10215000827F07D102E00220BDE8F88FA16809B9AB
:10216000042802D04FF00208C3E0BAF1000F28D0D3
:10217000BBF1000F25D0380023D094F8510004287B
:1021800002D0052084F8510000206065C4F838B002
:10219000E787A787C4F830A0E786A7862064606435
:1021A00020680168490603D4016841F040010160DC
:1021B000E068B0F5006F07D06068E8B3012F48D041
:1021C0007DE04FF0010894E0606808B1012F39D13B
:1021D000206B21680088C860206B801C2063E08E23
:1021E000401EE0862EE02068816889070DD5E18ECB
:1021F00059B1012D09D1216B0988C160206B801C68
:102200002063E08E401EE086002520688168C907B3
:102210000BD0E18F49B1C068A16B0880A06B801C16
:10222000A063E08F401EE0870125FFF707FBA0EBCE
:102230000900B04206D300E00BE0701C02D04FF062
:10224000030856E0E08E0028CDD1E08F0028CAD1E7
:102250003BE0206B216800780873206B401C2063F2
:10226000E08E401EE0862AE02068816889070DD54F
:10227000E18E59B1012D09D1216B09780173206BD1
:10228000401C2063E08E401EE086002520688168A7
:10229000C9070BD0E18F49B1C068A16B0870A06B72
:1022A000401CA063E08F401EE0870125FFF7C6FABF
:1022B000A0EB0900B04201D3701C11D186B1E08EB1
:1022C0000028D1D1E08F0028CED14A4631462046A1
:1022D00004F0A0FA38B14FF001082020606508E052
:1022E0004FF0030805E0A06818B92068C16880684D
:1022F00000900120503460700020207040462BE791
:102300002DE9F0410446002594F8500001280DD035
:10231000012784F8507094F85100D4F804C00026C6
:1023200001280FD0BCF5827F0AD102E00220BDE86F
:10233000F081D4F808C0BCF1000F01D1042801D00D
:1023400002256AE081B37AB373B394F8510004288C
:1023500002D0052084F8510066652163A386E386D8
:10236000A263A387E3872664666494F85100042877
:102370001DD0E16C2B480864E16C2B48C863E16C0C
:102380002A48C864E06C0665E38F2168A26B0C31B3
:10239000E06CFFF703F988B1606D40F010006065F4
:1023A000012584F8517038E0FFE7012535E0E16C44
:1023B0001F480864E16C1F48C863E0E72068416873
:1023C00041F001014160A06C0664A06CC663A06C82
:1023D000C664A06C0665E38E2268216B0C32A06C8B
:1023E000FFF7DCF838B1606D40F010006065012542
:1023F00084F8517011E020680168490603D401682F
:1024000041F0400101602068416841F020014160D5
:102410002068416841F00201416084F8506028461C
:1024200085E700008969000871680008F166000806
:102430000B6800081367000810B500681C49884243
:102440000FD11C4C21896068FFF7E8F904F18A017B
:10245000B4F80A21D4F81031BDE81040A1F1800091
:102460001847154988420FD1144C21896068FFF73D
:10247000D5F904F18A01B4F80A21D4F81031BDE885
:102480001040A1F1800018470D4988420FD10D4C32
:1024900021896068FFF7C2F904F18A01B4F80A21C2
:1024A000D4F81031BDE81040A1F18000184710BDEC
:1024B00000300140180C0020003800402C0D002096
:1024C000003C0040400E0020704710B5401EB0F1A7
:1024D000807F01D3012010BD4FF0E02460610F2107
:1024E000601704F0F1FC0020A061072020610020AB
:1024F00010BD7047704710B590F83C20012A22D0DB
:10250000012280F83C20CA6800238C6822F44072C3
:1025100022434C6822F4806222430C6822F4006259
:1025200022430C6922F4805222434C6922F4005267
:102530002243C96922F480420A4301684A6480F850
:102540003C30002010BD022010BD000070B590F896
:102550003C20012A31D0012680F83C60022280F81C
:102560003D2002685468936824F070050C682C4381
:102570005460134C0268A24214D0B2F1804F11D0C3
:10258000104CA2420ED0104CA2420BD00F4CA242D3
:1025900008D00F4CA24205D00E4CA24202D00E4CE5
:1025A000A24204D123F080034968194391603C3072
:1025B000467000210170002070BD022070BD000037
:1025C000000001400004004000080040000C0040F2
:1025D00000040140004001400018004010B50446CE
:1025E000002C03D094F83D0010B107E0012010BD8D
:1025F000002084F83C00204600F016F8022084F801
:102600003D00211D206801F0CFFD01203D346072A6
:102610006070A070E07020716071A071E071207234
:102620002070002010BD000008B500683A4A3B4900
:10263000904208D1086840F008000860086800F07F
:102640000800009008BD364A904211D1086840F059
:1026500010000860086800F0100000900022114689
:102660003620FFF75DF9BDE808403620FFF74AB98C
:102670002C4A904211D1086840F020000860086898
:1026800000F020000090002211463720FFF748F9A3
:10269000BDE808403720FFF735B9204A224B121D0C
:1026A000984208D1106840F002001060106800F0F5
:1026B0000200009008BD1D4B984208D1106840F4FC
:1026C00080301060106800F48030009008BD184A17
:1026D000904208D1086840F040000860086800F0A7
:1026E0004000009008BD134A904208D1086840F0AD
:1026F00080000860086800F08000009008BD0E4A65
:102700009042FBD1086840F480700860086800F4CB
:102710008070009008BD0000000C0040403802406E
:10272000001000400014004000040140004001403F
:1027300000180040001C00400020004090F83D10B0
:10274000012901D001207047022180F83D10016865
:10275000CA6842F00102CA6000681449884214D075
:10276000B0F1804F11D0124988420ED011498842F1
:102770000BD01149884208D01049884205D0104931
:10278000884202D00F49884209D1816801F00701CF
:10279000062908D0016841F00101016003E00168E9
:1027A00041F001010160002070470000000001407D
:1027B0000004004000080040000C004000040140FC
:1027C000004001400018004070B50446002594F810
:1027D0003C00012817D0012684F83C60022084F8D0
:1027E0003D002068826822F0770222F47F428260F6
:1027F0000868502838D00DDC202853D005DC90B371
:10280000102811D14EE0022070BD30284AD0402857
:102810000AD13DE0602831D070280CD0B0F5805F3F
:1028200003D0B0F5005F12D001253C346670002063
:102830002070284670BDCB68D1E90121206801F0E5
:1028400026FD2068816841F077018160EDE7CB6863
:10285000D1E90121206801F01AFD2068816841F466
:1028600080418160E1E71DE0CA684968206804F0A2
:102870002FF95021206804F023F9D6E7CA68496887
:10288000206804F036F96021206804F019F9CCE7DB
:10289000CA684968206804F01BF94021206804F0E8
:1028A0000FF9C2E722680146104604F009F9BCE7B7
:1028B0002DE9F04104460D46002C03D094F83D006C
:1028C00018B108E00120BDE8F081002084F83C0048
:1028D000204600F047F8022084F83D002068816817
:1028E00044F2070291438160211D206801F05CFCE5
:1028F000273454F8270C81688269066A2B680B43D9
:1029000040F203318A43AF69A96842EA07221143C2
:1029100040F60C4291434FF2F0029143EF69EA68AE
:1029200041EA07210A4329692F6A090141EA07316F
:10293000114326F0220222F088066A686D6946EA91
:1029400005152A43836054F8270C816154F8270C3D
:1029500002620120E077E0752076E0762077A075AE
:102960000020B0E770B586B00446142101A8FEF738
:10297000CBFA414821680023404A022401268142C3
:102980001ED13E481430016841F001010160006829
:1029900000F001000090106840F010001060106816
:1029A00000F0100000904FF428500190029403931F
:1029B0000493059601A93248FEF748FE06B070BDA3
:1029C0002E4D30481035B1F1804F1CD02E4EB14203
:1029D00033D1296841F002012960296801F0020120
:1029E0000091116841F001011160116801F00101CD
:1029F0000091C0210191029403930493059401A9CD
:102A0000FEF724FEDAE7296841F001012960296810
:102A100001F001010091116841F00101116011689C
:102A200001F00101009103210191029403930493A9
:102A3000059601A9FEF70AFEC0E714488142BDD100
:102A4000286840F004002860286800F00400009026
:102A5000106840F008001060106800F00800009056
:102A60004FF440500190029403930493059401A9FC
:102A70000748FEF7EBFDA1E70000014030380240B7
:102A80000010024000000240000400400008004026
:102A9000000C0240704770B50446206801694FF091
:102AA0000005C943890716D4C168C943890712D4F0
:102AB000E91E01610120207720688069800703D02A
:102AC0002046FFF7E7FF05E0204600F057F92046D3
:102AD00000F0E7F9257720680169C943490718D450
:102AE000C168C943490714D46FF004010161022091
:102AF00020772068806910F4407F03D02046FFF7DC
:102B0000C9FF05E0204600F039F9204600F0C9F978
:102B1000257720680169C943090717D4C168C943EB
:102B2000090713D46FF008010161042020772068A1
:102B3000C069800703D02046FFF7ACFF05E02046C0
:102B400000F01CF9204600F0ACF9257720680169F7
:102B5000C943C90618D4C168C943C90614D46FF063
:102B600010010161082020772068C06910F4407FBF
:102B700003D02046FFF78EFF05E0204600F0FEF868
:102B8000204600F08EF9257720680169C943C907FE
:102B900008D1C168C943C90704D1891E0161204613
:102BA00000F0EEF920680169C943090609D4C1683B
:102BB000C943090605D46FF0800101612046FFF783
:102BC00098FC20680169C943490609D4C168C94312
:102BD000490605D46FF040010161204600F050FA2B
:102BE00020680169C94389060BD4C168C9438906B5
:102BF00007D46FF0200101612046BDE87040FFF767
:102C000079BC70BD70B586B00446142101A8FEF7EA
:102C10007BF94E4B216800244D4A02254D489942CC
:102C200025D1116841F080011160116801F0800127
:102C30000091116841F001011160116801F001017A
:102C400000914FF44061019102950394049405951D
:102C500001A9FEF7FBFC0C2001900295039404945B
:102C6000059501A93C48FEF7F1FC06B070BD3B4E4E
:102C70000323B14213D1106840F0040010601068C3
:102C800000F0040000904FF47070019002950394DE
:102C90000494059301A93248FEF7D8FCE5E7314ECC
:102CA000B14212D1106840F010001060106800F0BE
:102CB0001000009020200190029503940494059345
:102CC00001A92948FEF7C2FCCFE7284E0923B142EB
:102CD00011D1116841F080011160116801F080018B
:102CE000009199010191029503940494059301A91F
:102CF000FEF7ACFCB9E71E4E1E48B14211D1116877
:102D000041F020011160116801F02001009181154E
:102D10000191029503940494059301A9FEF796FC92
:102D2000A3E7154EB142A0D1116841F02001116016
:102D3000116801F020010091711501910295039431
:102D40000494059301A9FEF781FC8EE7000C004076
:102D500030380240001C02400000024000040140E4
:102D600000080240004001400010024000180040EE
:102D7000001C00400014024000200040704770B565
:102D800004460D46002694F83C0001280FD001208F
:102D900084F83C006AB1042A1FD0082A32D00C2AD9
:102DA00044D00126002084F83C00304670BD02204B
:102DB00070BD2946206803F0EDFD2068816941F06F
:102DC000080181612068816921F004018161206826
:102DD00081692A6911438161E4E72946206801F08D
:102DE00061FA2068816941F400618161206881692C
:102DF00021F480618161206881692A6941EA0221A8
:102E00008161CFE72946206803F0F8FD2068C16999
:102E100041F00801C1612068C16921F00401C1616C
:102E20002068C1692A691143C161BBE7294620684E
:102E300003F01CFE2068C16941F40061C161206893
:102E4000C16921F48061C1612068C1692A6941EAD0
:102E50000221C161A6E710B50446002C03D094F806
:102E60003D0010B107E0012010BD002084F83C00B7
:102E7000204600F015F8022084F83D00211D20684E
:102E800001F092F901203D3460726070A070E07032
:102E900020716071A071E07120722070002010BD5F
:102EA0007047704710B50446002909D004290AD09C
:102EB00008290BD094F8410001280AD0012010BD48
:102EC00094F83E00F8E794F83F00F5E794F84000E6
:102ED000F2E70220A9B3042937D0082938D084F8B2
:102EE00041000122206801F0C5F91E4920681E4AF0
:102EF000884201D0904203D1436C43F400434364C1
:102F00002068884213D0B0F1804F10D01749884212
:102F10000DD0174988420AD01649884207D09042FE
:102F200005D01549884202D01449884213D18168DE
:102F300001F00701062912D0016841F0010101608A
:102F40000DE0FFE784F83E00CBE784F83F00C8E7D8
:102F500084F84000C5E7016841F0010101600020EC
:102F600010BD0000000001400004014000040040CA
:102F700000080040000C00400040014000180040E4
:102F800000683149884202D1304840680047B0F1BA
:102F9000804F06D02E49884207D12C481030406817
:102FA00000472A480830406800472A49884203D130
:102FB00026481830406800472749884203D12348F3
:102FC0002030406800472549884203D11F482830F7
:102FD000406800472249884203D11C48303040688D
:102FE00000472049884203D11848383040680047DC
:102FF0001D49884203D115484030406800471B49AD
:10300000884203D111484830406800471849884237
:1030100003D10E485030406800471649884203D11A
:103020000A485830406800471349884203D107488E
:103030006030406800471149884203D10348683036
:103040004068004770470000000001407401002004
:103050000004004000080040000C00400010004048
:1030600000140040000401400040014000440140C1
:103070000048014000180040001C004000200040B3
:10308000704738B5044694F83E00202801D002204D
:1030900038BD71B16AB194F83C0001280BD0012011
:1030A00084F83C002063204601F03CF9014621B140
:1030B00007E0012038BD022038BD206B012802D076
:1030C0000121084638BD20680268406800902068E9
:1030D0000C3050E8002F42F0100240E80023002B93
:1030E000F5D1EEE770B50546334A286890420DD118
:1030F000324CA180A4F18000A26806469047228845
:1031000031462846BDE87040FFF7BBBF2C4A9042CD
:103110000DD12C4CA180A4F18000A26806469047F6
:10312000228831462846BDE87040FFF7AABF264AEC
:1031300090420DD1254CA180A4F18000A2680646E2
:103140009047228831462846BDE87040FFF799BF76
:103150001F4A90420DD11F4CA180A4F18000A268AB
:1031600006469047228831462846BDE87040FFF762
:1031700088BF194A90420DD1184CA180A4F180005B
:10318000A26806469047228831462846BDE870402E
:10319000FFF777BF124A90420DD1124CA180A4F1E3
:1031A0008000A26806469047228831462846BDE83E
:1031B0007040FFF766BF70BD00100140581000203E
:1031C00000440040681100200048004078120020B0
:1031D000004C00408813002000500040981400204C
:1031E00000140140A815002070470000F8B50446FF
:1031F00022681068D168536900F00F06002E08D1CC
:10320000850606D58D0604D52046BDE8F84003F0B6
:1032100031BD0025002E66D003F0010601F4907741
:10322000374360D0C20705D0CA0503D5226C42F0EF
:1032300001022264420705D5DA0703D0226C42F06E
:1032400002022264820705D5DA0703D0226C42F01D
:1032500004022264020707D501F02002324303D0A2
:10326000226C42F008022264226C002A31D08006CF
:1032700004D5880602D5204603F0FCFC206840698E
:10328000C0F38010216C090700D438B3204603F046
:1032900090FD2068406940061CD52068143050E835
:1032A000001F21F0400140E80012002AF5D1A06B78
:1032B00060B157490165A06BFEF70CF8002808D0F3
:1032C000A06B016D01B0BDE8F04008472046FFF754
:1032D0008BFFF8BD2046FFF787FFF8BD2046FFF7BC
:1032E00083FF2564F8BD236B012B7ED1C3067CD5FB
:1032F000CB067AD510685068009050694FF02003D3
:10330000400643D5A16B0868406880B20028E9D028
:10331000A28D8242E6D9E085C869B0F5807F2DD0C4
:1033200020680C3050E8001F21F4807140E8001242
:10333000002AF5D12068143050E8001F21F0010167
:1033400040E80012002AF5D12068143050E8001F30
:1033500021F0400140E80012002AF5D184F83E3007
:10336000256320680C3050E8001F21F0100140E870
:103370000012002AF5D1A06BFDF765FFA08DE18D4D
:10338000401A81B22046FFF7ADFEF8BDA08DE18D59
:10339000401A81B2E08D0028F7D00029F5D02068CE
:1033A0000C3050E8002F22F4907240E80026002EE6
:1033B000F5D12068143050E8002F22F0010240E8D7
:1033C0000026002EF5D184F83E30256320680C30AD
:1033D00050E8002F22F0100240E80023002BF5D126
:1033E0002046FFF77FFEF8BDFFE7020606D50A0676
:1033F00004D52046BDE8F84003F09FBC4006F2D556
:103400004806F0D52046BDE8F84003F048BD00006E
:10341000B96E000870B50446002C04D094F83D0045
:10342000002510B106E0012070BD84F83C50204614
:1034300000F022F8242084F83D002068C16821F4BF
:103440000051C160204603F08BFB2068016921F424
:10345000904101612068416921F02A0141612068A1
:10346000C16841F40051C1602564202084F83D000A
:1034700084F83E00002070BD2DE9F04F87B004466F
:10348000142102A8FDF740FDA0499F4A1039206889
:103490009E4B022700250E154FF003084FF0080B36
:1034A0004FF00069904252D1186840F480101860C3
:1034B000186800F480100190086840F0040008606B
:1034C000086800F004000190086840F008000860F7
:1034D000086800F008000190881402900397049592
:1034E000CDF81480CDF818B002A98948FEF7AEF8DF
:1034F0000420029003970495CDF81480CDF818B0FD
:1035000002A98448FEF7A2F8844F83483860C7F8C0
:1035100004904020B860FD603E617D61BD61FD6149
:103520004FF4403038627D623846FDF7CDFF08B178
:10353000FDF787FE6763BC63002211463520FEF766
:10354000EFF93520FEF7DEF907B0BDE8F08F6F4ADE
:10355000DFF8CCE1121D4FF0070C4FF4003A704534
:103560003CD1106840F010001060106800F01000AE
:103570000190086840F001000860086800F0010050
:1035800001904FF4C060029003970495CDF8148029
:10359000CDF818C002A96348FEF758F85F4F62489B
:1035A00060373860C7F80490BD60FD603E617D61A2
:1035B000BD61FD61C7F820A07D623846FDF784FF3C
:1035C00008B1FDF73EFEA763BC630022114625202B
:1035D000FEF7A6F92520FEF795F9B5E7DFF84CE1EF
:1035E00070453DD1186840F400301860186800F448
:1035F00000300190086840F008000860086800F09A
:10360000080001906020029003970495CDF8148083
:10361000CDF818C002A93F48FEF718F83E483F4FC2
:103620003038C0373860C7F80490BD60FD603E6137
:103630007D61BD61FD614FF4403038627D62384686
:10364000FDF742FF08B1FDF7FCFDA763BC63002254
:1036500011462620FEF764F92620FEF753F973E79A
:10366000334B9842B9D1106840F0200010601068C8
:1036700000F020000190086840F0400008600868F1
:1036800000F0400001904FF48440029003970495AD
:10369000CDF81480CDF818B002A92648FDF7D6FF62
:1036A0002148254F183838604FF02068C7F804804B
:1036B000BD60FD603E617D61BD61FD61C7F820A018
:1036C0007D623846FDF700FF08B1FDF7BAFDA7633C
:1036D000BC631548184F603060373860C7F8048005
:1036E0004020B860FD603E617D61BD61FD6180028A
:1036F00038627D623846FDF7E7FE08B1FDF7A1FDAF
:103700006763BC6320E7000000500040403802407F
:1037100000080240000C0240B8600240A0070020F0
:10372000001001400000024040640240004400409C
:103730000014014000180240C008002090F83E30FC
:10374000202B01D00220704759B152B190F83C3083
:10375000012B08D0012380F83C300023036300F0E4
:103760002BBE0120704702207047000010B5006892
:103770000C4988420AD111210B4801F003F9BDE838
:103780001040112208490948FFF7D8BF084988426C
:1037900006D1BDE81040042206490748FFF7CEBF16
:1037A00010BD000000100140C4150020D406002008
:1037B00000440040100200201807002070477047A6
:1037C000FEE7000008B52148016841F4800101606E
:1037D000016801F480010091016841F40011016069
:1037E000006800F400100090002201210F20FEF775
:1037F00097F80F20FEF786F8002211461020FEF7FA
:103800008FF81020FEF77EF8002201212F20FEF70E
:1038100087F82F20FEF776F8002211463920FEF7B0
:103820007FF83920FEF76EF8002211463A20FEF7A5
:1038300077F83A20FEF766F8002201214520FEF7CE
:103840006FF8BDE808404520FEF75CB8303802400C
:103850002DE9F04F87B0142102A8FDF755FB002693
:103860006B48016841F010010160016801F010012E
:103870000191016841F002010160016801F002015B
:103880000191016841F040010160016801F04001CF
:103890000191016841F004010160016801F0040137
:1038A0000191016841F001010160016801F001012D
:1038B0000191016841F008010160016801F008010F
:1038C0000191016841F480710160016801F4807127
:1038D0000191016841F080010160016801F08001FF
:1038E0000191016841F020010160006800F02000B2
:1038F0000190DFF820A1012211465046FDF796FF06
:10390000DFF814B14FF48078012241465846FDF7A4
:103910008DFF4FF4C059002249464048FDF786FF0D
:10392000012240213E48FDF781FF022502954FF418
:10393000041703970124049402A95046FDF786FE5C
:10394000029403940494059502A95046FDF77EFE67
:10395000CDF8088003940494059502A95846FDF714
:1039600075FE600202900397049402A95846FDF781
:103970006DFE4FF00308CDF8088003950496CDF84E
:1039800014804FF0090ACDF818A002A92548FDF7C8
:103990005DFECDF8089003940496059602A91F4891
:1039A000FDF754FE4026029603940494059402A960
:1039B0001B48FDF74BFE0296039504940595CDF840
:1039C000188002A91848FDF741FECDF808A003971A
:1039D000049402A91248FDF739FE002202210620B4
:1039E000FDF79EFF0620FDF78DFF00220121092033
:1039F000FDF796FF0920FDF785FF00220121172022
:103A0000FDF78EFF1720FDF77DFF07B0BDE8F08FB3
:103A10003038024000100240000402400000024022
:103A200000180240000C02400014024010B510487B
:103A30000E4901604FF48271416000218160C160D4
:103A40000222026101224261520282613822C26175
:103A50000162416281620A21C162FEF770FA0028A8
:103A600003D0BDE81040FDF7ECBB10BD00300140B5
:103A70002002002010B510480E4901604FF48271F9
:103A800041604FF4004181600021C16001614161EA
:103A90004FF400728261C1610162416281620A2158
:103AA000C162FEF74CFA002803D0BDE81040FDF7D4
:103AB000C8BB10BD003800407802002010B58CB0A3
:103AC0000024089409940A940B941C2101A8FDF782
:103AD0001BFA1E481C49016053214160846041F279
:103AE0008731C16004618461FEF778FD08B1FDF79C
:103AF000A8FB4FF48050089008A91448FEF764FE14
:103B000008B1FDF79EFB1148FFF7A5F908B1FDF7D5
:103B100098FB60200190029403940594002201A96F
:103B20000A48FFF72CF908B1FDF78BFB042201A925
:103B30000648FFF724F908B1FDF783FB0348FFF7B8
:103B400061F80CB010BD000000180040B80500205E
:103B500010B588B01C2101A8FDF7D6F91548144905
:103B60000160532141600024846041F28731C160CB
:103B700004618461FEF732FD08B1FDF762FB0D4878
:103B8000FFF769F908B1FDF75CFB60200190029432
:103B900003940594002201A90648FFF7F0F808B144
:103BA000FDF74FFB0348FFF72DF808B010BD0000EC
:103BB000001C00400006002010B588B01C2101A8A0
:103BC000FDF7A2F915481449016053214160002412
:103BD000846041F28731C16004618461FEF7FEFCBC
:103BE00008B1FDF72EFB0D48FFF735F908B1FDF7D9
:103BF00028FB60200190029403940594002201A9FF
:103C00000648FFF7BCF808B1FDF71BFB0348FEF7B9
:103C1000F9FF08B010BD0000002000404806002059
:103C200010B58CB0242103A8FDF76EF9002401948F
:103C30000294154813490160446084604FF6FF7197
:103C4000C1600461446184610320039004940120F5
:103C5000059006940794089409900A940B9403A97C
:103C60000948FEF725FE08B1FDF7EBFA019402942E
:103C700001A90548FEF76AFC002801D0FDF7E1FA2A
:103C80000CB010BD000001403003002010B58CB016
:103C9000242103A8FDF738F9002401940294144864
:103CA0004FF080410160446084604FF6FF71C16055
:103CB000046184610320039004940120059006941C
:103CC0000794089409900A940B9403A90848FEF7F6
:103CD000EFFD08B1FDF7B5FA0194029401A904487B
:103CE000FEF734FC002801D0FDF7ABFA0CB010BD94
:103CF0007803002010B58CB0242103A8FDF704F947
:103D000000240194029415481349016044608460C2
:103D10004FF6FF71C1600461846103200390049435
:103D20000120059006940794089409900A940B9436
:103D300003A90A48FEF7BCFD08B1FDF782FA019419
:103D4000029401A90548FEF701FC002801D0FDF707
:103D500078FA0CB010BD000000040040C003002041
:103D600010B58CB0242103A8FDF7CEF800240194EF
:103D70000294154813490160446084604FF6FF7156
:103D8000C1600461846103200390049401200590C4
:103D900006940794089409900A940B9403A90A487E
:103DA000FEF786FD08B1FDF74CFA0194029401A9D3
:103DB0000548FEF7CBFB002801D0FDF742FA0CB016
:103DC00010BD0000000800400804002010B58EB0AF
:103DD00000240A940B940C940D94089409941C21CB
:103DE00001A8FDF791F82A48284901605321416054
:103DF000846041F28731C16004618461FEF7EEFBAB
:103E000008B1FDF71EFA4FF480500A900AA9204825
:103E1000FEF7DAFC08B1FDF714FA1D48FFF71BF8AE
:103E200008B1FDF70EFA0894099408A91848FEF79E
:103E30008DFB08B1FDF705FA602001900294039410
:103E40000594002201A91248FEF799FF08B1FDF779
:103E5000F8F9042201A90E48FEF791FF08B1FDF719
:103E6000F0F9082201A90A48FEF789FF08B1FDF719
:103E7000E8F90C2201A90648FEF781FF08B1FDF719
:103E8000E0F90348FEF7BEFE0EB010BD000C004086
:103E9000500400201CB50024009401940D480C49E6
:103EA000016053214160846040F2E731C160846168
:103EB000FEF794FB08B1FDF7C4F90094019469463C
:103EC0000448FEF743FB002801D0FDF7BAF91CBDFA
:103ED00000100040980400201CB5002400940194B8
:103EE0000D480C49016053214160846041F28731E3
:103EF000C1608461FEF772FB08B1FDF7A2F900947E
:103F0000019469460448FEF721FB002801D0FDF723
:103F100098F91CBD00140040E004002010B596B0D4
:103F200000241294139414941594109411941C2149
:103F300009A8FCF7E9FF202101A8FCF7E5FF3448B8
:103F400032490160A7214160846041F28731C1603C
:103F5000046144618461FEF741FB08B1FDF771F92A
:103F60004FF48050129012A92948FEF72DFC08B199
:103F7000FDF767F92648FEF76EFF08B1FDF761F916
:103F80001094119410A92248FEF7E0FA08B1FDF749
:103F900058F9602009900A940B940C940D940E9497
:103FA0000F94002209A91A48FEF7E9FE08B1FDF7AF
:103FB00048F9042209A91648FEF7E1FE08B1FDF709
:103FC00040F9082209A91248FEF7D9FE08B1FDF709
:103FD00038F90C2209A90E48FEF7D1FE08B1FDF709
:103FE00030F9019402940394049405944FF4005022
:103FF0000690089401A90648FEF77DFA08B1FDF77E
:1040000020F90348FEF7FEFD16B010BD0004014084
:104010002805002010B58CB00024089409940A9457
:104020000B941C2101A8FCF76FFF19481749016088
:104030004460846041F28731C16004618461FEF7AD
:10404000CDFA08B1FDF7FDF84FF48050089008A9AB
:104050000F48FEF7B9FB08B1FDF7F3F80C48FEF77F
:10406000FAFE08B1FDF7EDF8602001900294039488
:104070000594002201A90648FEF781FE08B1FDF76C
:10408000E0F80348FEF7BEFD0CB010BD0040014053
:104090007005002010B50C480A4901604FF4165114
:1040A000416000218160C16001610C224261816137
:1040B000C161FFF7AFF9002803D0BDE81040FDF75C
:1040C000C0B810BD005000409006002010B50C484C
:1040D0000A4901604FF41651416000218160C160BE
:1040E00001610C2242618161C161FFF793F90028EF
:1040F00003D0BDE81040FDF7A4B810BD001001408A
:10410000D406002010B50C480A4901604FF416513E
:10411000416000218160C16001610C2242618161C6
:10412000C161FFF777F9002803D0BDE81040FDF723
:1041300088B810BD004400401807002010B50C4896
:104140000A4901604FF4E131416000218160C160A2
:1041500001610C2242618161C161FFF75BF90028B6
:1041600003D0BDE81040FDF76CB810BD001401404D
:104170005C070020FEE7FEE770477047FDF764BB71
:104180000248016841F470010160704788ED00E069
:104190000148FEF780BC0000980400200148FEF7AB
:1041A0007ABC0000E00400202DE9F0410268264DB1
:1041B000264E274FDFF89CC0274B4FF08048A8427F
:1041C00009D0404507D0B04205D0B84203D0604581
:1041D00001D0984203D122F070044A682243A842D9
:1041E0001BD0404519D0B04217D0B84215D0604519
:1041F00013D0984211D0194CA0420ED0184CA042B6
:104200000BD0184CA04208D0174CA04205D0174C38
:10421000A04202D0164CA04203D122F44074CA68D6
:1042200022434C6922F08002224302608A68C26203
:104230000A688262A84201D0984201D109690163EB
:1042400001214161BDE8F08100000140000400400F
:1042500000080040000C0040000401400040014004
:10426000004401400048014000180040001C00408C
:104270000020004010B501F01F0101238B40046AAB
:104280009C430462036A8A401343036210BD10B565
:10429000846824F47F4442EA03220A432243826072
:1042A00010BD0000F0B5026A22F010020262036A3B
:1042B0004268846924F4E04424F440740D6844EABC
:1042C000052423F020038D6843EA0513104D114E99
:1042D000A84201D0B04206D123F08003CF6843EA60
:1042E000071323F04003A84201D0B04209D122F4C1
:1042F000806222F400624D6942EA85028D6942EAD9
:10430000850242608461496881630362F0BD0000F8
:1043100000000140000401400148FEF767BF0000B3
:104320009006002037B582B004461346039AA26275
:10433000A38500252564222084F83E00A16B1B483C
:10434000C863A16B1A480864A16B1A48C864A06BC3
:1043500005652168A06B091DFDF720F9206801683B
:104360004068019084F83C5020680C3050E8001FF1
:1043700041F4807140E80012002AF5D12068143021
:1043800050E8001F41F0010140E80012002AF5D179
:104390002068143050E8001F41F0400140E800124E
:1043A000002AF5D105B0002030BD00001D6E0008C8
:1043B000996D0008176B000881628285C285002113
:1043C0000164222280F83E2080F83C100168CA680F
:1043D00042F48072CA6001684A6942F001024A618F
:1043E0000068C16841F02001C160002070470000F2
:1043F0000148FEF7FBBE0000D40600200148FEF78E
:10440000F5BE000018070020FEE7000010B500F020
:104410001FF80C489FED0C1A818890ED000A00EE01
:10442000901AC088B8EE400AF8EE600A00EE810AE1
:1044300000EE900A9FED051AF8EE600A00EE810A80
:1044400010BD0000E40100206F12833ABD378635AD
:104450002DE9F04701F0AEFD1F48204F4FF0FF332C
:104460000268386800263146E2FB03011C490860F7
:104470001C4934460968B0FBF1F3C7E90236A3FBD7
:10448000012504FB015103FB0614801A66EB0401AD
:1044900004460D46C7E90401DFF84C80C8F8003037
:1044A000124800232946D0F8009020464A46FCF7DF
:1044B000FCFB82B2A8F8042002FB09F2A01A65EB0B
:1044C0000601C7E906010A4A00231268FCF7EDFB62
:1044D000A8F80600BDE8F087F80100207000002071
:1044E00000020020EC010020E4010020F001002087
:1044F000F40100202DE9F04704460D4617461E46FC
:10450000DFF8E4830420A8F800000820A8F80200DF
:1045100025736773A6734FF0000984F81090304636
:10452000FCF794FB60613146FCF7CCFCB8F8000066
:104530007043FCF78BFBA061B8F800107143FCF7E7
:10454000E3FCB8F800007043FCF780FBE061B8F8CA
:1045500000107143FCF7D8FCB8F800006843FCF782
:1045600075FB2062B8F800106943FCF7CDFC3046BB
:10457000FCF76CFB60623146FCF7A4FCB8F8000065
:104580006843FCF763FB2060B8F800106943FCF750
:10459000BBFCB8F800007043FCF758FB6060B8F84B
:1045A00000107143FCF7B0FCB8F800007843FCF74A
:1045B0004DFBA060B8F800107943FCF7A5FCB8F8F3
:1045C00000006843FCF742FBC4F8E800B8F80010AC
:1045D0006943FCF799FC217B012204F13000D4F8F7
:1045E000E830FBF7EBFEB8F800006843FCF72EFB61
:1045F000C4F8EC00B8F800106943FCF785FC217B97
:10460000012204F13800D4F8EC30FBF7D7FE9FB15B
:10461000B8F800007843FCF719FBC4F8F000B8F8CC
:1046200000107943FCF770FC617B012204F140002B
:10463000D4F8F030FBF7C2FEB8F800007043FCF786
:1046400005FBC4F8F400B8F800107143FCF75CFCFB
:10465000A17B012204F14800D4F8F430FBF7AEFE50
:10466000B8F8000068436843FCF7F0FAC4F8F800B3
:10467000B8F8001069436943FCF746FC217B04F15C
:1046800050000A46D4F8F830FBF798FEB8F800005E
:1046900068436843FCF7DAFAC4F8FC00B8F8001085
:1046A00069436943FCF730FC217B04F158000A465A
:1046B000D4F8FC30FBF782FEB8F80000684368438A
:1046C000FCF7C4FA8834A067B8F800006843684370
:1046D000FCF7BCFAE067B8F80010A06F69436943C3
:1046E000FCF712FCB8F80010E06F69436943FCF76F
:1046F0000BFC14F87C1CA36F883C0A4604F1600094
:10470000FBF75CFE217B04F168000A46D4F8043113
:10471000FBF754FEAFB1B8F8000068437843FCF7EC
:1047200095FAC4F80801B8F8001069437943FCF71A
:10473000EBFB627B217B04F17000D4F80831FBF7BE
:104740003DFEB8F8000070436843FCF77FFA9434EC
:10475000A067B8F8000068437043FCF777FAE06799
:10476000B8F80010A06F71436943FCF7CDFBB8F8AF
:104770000010E06F69437143FCF7C6FB14F8882C06
:1047800014F8861CA36F943C04F17800FBF716FE26
:10479000A27B217B04F18000D4F81031FBF70EFEE0
:1047A000B8F8000068436843FCF750FAC4F81401F5
:1047B000B8F8001069436943FCF7A6FB217B04F1BC
:1047C00088000A46D4F81431FBF7F8FDB8F8000069
:1047D00070437043FCF73AFAC4F81801B8F80010B7
:1047E00071437143FCF790FBA17B04F190000A46F2
:1047F000D4F81831FBF7E2FDB8F8000068437043C5
:10480000FCF724FAC4F81C01B8F80010694371439E
:10481000FCF77AFBA27B217B04F19800D4F81C31D1
:10482000FBF7CCFD207B10FB00F0B8F800104843EC
:10483000FCF70CFAC4F82001207B10FB00F0B8F85C
:1048400000104843FCF702FAC4F82401207B10FB57
:1048500000F0B8F800104843FCF7F8F9C4F8280154
:10486000207BB8F800104843FCF7F0F9C4F82C019D
:10487000207BB8F800104843FCF7E8F9C4F8300191
:10488000217B04F1A0000A46D4F82031FBF796FD05
:10489000217B04F1A8000A46D4F82431FBF78EFDF1
:1048A000217B04F1B0000A46D4F82831FBF786FDDD
:1048B000217B012204F1B800D4F82C31FBF77EFDF6
:1048C000217B012204F1C000D4F83031FBF776FDE2
:1048D00084F8289084F8299084F82A9084F82B9002
:1048E00084F82C90BDE8F08770010020704700002C
:1048F00030B593B0302107A8FCF706FB142102A8BD
:10490000FCF702FB00251D48016841F08051016061
:10491000006800F0805001901948016841F480411E
:104920000160006800F48040019002240794012097
:104930000A9010200B900D940E9508200F90A8203F
:10494000109011940720129007A8FDF717F908B1ED
:10495000FCF777FC0F200290039404954FF4A050CD
:1049600005904FF480500690052102A8FDF70AF843
:10497000002801D0FCF765FC13B030BD4038024080
:104980000070004001460348406D00F5F46000F0FF
:10499000A6BA0000981E0020F8B5069C1F4E0568B8
:1049A000B54211D11E4D69602A81A5F80A31A5F8DA
:1049B0000C414FF47A7105F18A0200910123A2F1B2
:1049C0008001FDF7ABFBF8BD164F1E19BD4210D19B
:1049D000154D69602A81A5F80A31A5F80C4105F149
:1049E0008A0201B0B3B2BDE8F040A2F18001FDF748
:1049F00087BC0E4FBD42E6D10D4D69602A81A5F8F6
:104A00000A31A5F80C4105F18A0201B0B3B2BDE844
:104A1000F040A2F18001FDF773BC000000300140BE
:104A2000180C0020003800402C0D0020003C0040F5
:104A3000400E002001460348406D00F2DC7000F09B
:104A4000EDBA0000981E002070B504462DED028BD3
:104A50000125257084ED6C0AC4ED6D0A84ED6E1A93
:104A60009FED280A84ED730A002084F83801D034C1
:104A7000002121676167A167E167D03C11EE900AD0
:104A8000B7EE008AB0F17E5F01DDF0EE481AC4EDAA
:104A9000741A84ED642A032300220621201DFFF7E7
:104AA00029FD012204F5E473114604F5E070FBF7DB
:104AB00085FC8834606E80ED008A606E9FED120A7E
:104AC00080ED010A606E80ED020A606E80ED030ADF
:104AD0000E48A0640E48E0640E4820650E486065EC
:104AE00004F85A5C04F8595C90220C49E06FFCF71A
:104AF000B7F9606F9022BDEC028B0949BDE87040A8
:104B0000FCF7AEB977CC2B3200000000A56000089E
:104B10008D640008E15F0008D9600008487700084C
:104B2000E00000207047704770470000024801888D
:104B3000491C0180FFF7F7BF080200200D490A68F1
:104B400042F080720A600C4900224A600B6843F010
:104B500001030B6009494843094908604FF47A731F
:104B6000B0FBF3F34B60054BB0FBF3F08860CA6019
:104B700070470000FCED00E0001000E040420F0034
:104B8000EC0100200C4B02689A4204D10B4A1060E1
:104B9000C2F8101170470A4B9A4204D1094A1060BA
:104BA000C2F810117047084B9A42FBD1074A1060B7
:104BB000C2F810117047000000300140180C0020AE
:104BC000003800402C0D0020003C0040400E00202A
:104BD000374B02689A4203D1364A106051607047E1
:104BE000B2F1804F07D0344B9A4209D1314A10328A
:104BF0001060516070472F4A083210605160704752
:104C00002E4B9A4204D12B4A1832106051607047E3
:104C10002B4B9A4204D1274A2032106051607047D2
:104C2000284B9A4204D1234A2832106051607047C1
:104C3000254B9A4204D11F4A3032106051607047B0
:104C4000224B9A4204D11B4A38321060516070479F
:104C50001F4B9A4204D1174A40321060516070478E
:104C60001C4B9A4204D1134A48321060516070477D
:104C7000194B9A4204D10F4A50321060516070476C
:104C8000164B9A4204D10B4A58321060516070475B
:104C9000134B9A4204D1074A60321060516070474A
:104CA000104B9A42FBD1034A683210605160704742
:104CB0000000014074010020000400400008004092
:104CC000000C0040001000400014004000040140AF
:104CD00000400140004401400048014000180040ED
:104CE000001C0040002000400A4841680A4AD2EDFA
:104CF000000A4268521AF8EE601A01EE102AB8EE65
:104D0000411A60EE211AB4EEE11AF1EE10FAF0D376
:104D100070470000001000E0EC01002010B5A82052
:104D2000FFF70CFF17491848FFF752FF17491848BB
:104D3000FFF74EFF17491848FFF724FF13221749C2
:104D4000174800F039F814221649174800F034F8D3
:104D500014221649164800F02FF8164800F50C6486
:104D6000606500220821204602F0BEF8606D00F068
:104D700095F90548FDF7E2FCBDE810400448FDF751
:104D8000DDBC0000294B0008980400202D4B0008D2
:104D9000E0040020254B000820020020854900087F
:104DA000D4060020354A000818070020ED48000806
:104DB00090060020D815002030B42B4C0368A34285
:104DC0000AD12A4B1860C3F80C11A3F8042130BC97
:104DD00003F18401FEF755B9254CA3420AD1254BB6
:104DE0001860C3F80C11A3F8042130BC03F184014E
:104DF000FEF747B9204CA3420AD1204B1860C3F8F4
:104E00000C11A3F8042130BC03F18401FEF739B979
:104E10001B4CA3420AD11B4B1860C3F80C11A3F81A
:104E2000042130BC03F18401FEF72BB9164CA342D8
:104E30000AD1164B1860C3F80C11A3F8042130BC3A
:104E400003F18401FEF71DB9114CA3420AD1114BA5
:104E50001860C3F80C11A3F8042130BC03F18401DD
:104E6000FEF70FB930BC704700100140540F00200E
:104E700000440040641000200048004074110020ED
:104E8000004C004084120020005000409413002089
:104E900000140140A414002010B5044613226168D8
:104EA00004F108008431FBF7DBFF60688430C01C2C
:104EB00010F8031CE17610F8021C21770168C4F891
:104EC0001D104168C4F821100189A4F82510817AC9
:104ED00084F82710C068A0620120207010BDFFF781
:104EE000DBBF00000968124A914202D111494160BA
:104EF0007047114A914202D1104941607047104AEF
:104F0000914202D10F49416070470F4A914202D14C
:104F10000E49416070470E4A914202D10D494160ED
:104F200070470D4A9142FBD10C4941607047000027
:104F300000100140540F0020004400406410002085
:104F40000048004074110020004C004084120020F2
:104F5000005000409413002000140140A4140020CD
:104F6000F0B506AC059DD0CC4830C16082600374BA
:104F70004574C4868763868700EE104AB8EE400AFF
:104F800000ED050A002141619FED050A80ED070A49
:104F900080ED080A41628162C1628186F0BD000035
:104FA0000000000002F06AB880ED020AC0ED030ABA
:104FB00080ED000AC0ED010A704700009FED040A71
:104FC00080ED040A80ED050A80ED060A70470000B6
:104FD0000000000010B504461422A16804F10C0082
:104FE0008431FBF73DFFA16884310878FF2809D19F
:104FF0004A78891C601CFBF7EEFE601CFBF7CCFEB8
:1050000005490880A068142284300021FBF728FF9E
:105010000120207010BD000090000020FFF7DABFD3
:105020000968124A914202D1114981607047114AC0
:10503000914202D1104981607047104A914202D1D9
:105040000F49816070470F4A914202D10E49816039
:1050500070470E4A914202D10D49816070470D4A56
:105060009142FBD10C498160704700000010014063
:10507000540F00200044004064100020004800400D
:1050800074110020004C00408412002000500040A9
:105090009413002000140140A414002010B504460D
:1050A0000D4904F5F460FFF71DFF0C4904F2DC70B4
:1050B000FFF7B6FF04F51E7001F02CFF204600F04C
:1050C0000FF8002084F8B70804F2FC70AA22BDE8AB
:1050D00010400021FBF7C4BED406002018070020B2
:1050E0002DE9F04F04462DED068B85B09FED8F8A9C
:1050F000F0EE480ADFED8E8A2046B0EE680AFFF730
:1051000053FFF0EE480AB0EE680A04F11C00FFF706
:105110004BFF9FED880A04F13800F0EE400AFFF7DC
:1051200043FF00219FED848AB0EE485ADFED838A69
:10513000B0EE484AF0EE483AF0EE684AB0EE483A2F
:10514000F0EE482AB0EE482AF0EE481AB0EE481ABF
:10515000F0EE480AB2EE040A04F5C26001F076FFF0
:105160000021B0EE485AF0EE684AB0EE484AF0EE40
:10517000483AB0EE483AF0EE482AB0EE482AF0EE4F
:10518000481AB0EE481AF0EE480AB2EE040A04F5E6
:10519000CC6001F05BFF0021B0EE485AF0EE684AA7
:1051A000B0EE484AF0EE483AB0EE483AF0EE482AFF
:1051B000B0EE482AF0EE481AB0EE481AF0EE480A6F
:1051C0009FED5F0A04F5D66001F040FF4FF6FF75D2
:1051D00040F6A11741F288364FF00408CDE9008669
:1051E000CDE9027504F154000023564A5649814620
:1051F000FFF7B6FECDE90086CDE9027504F1DC00CB
:105200000023524A52498246FFF7AAFE40F23C5020
:105210000C21CDE90205CDE9001604F5B270082392
:105220004C4A4B498346FFF79BFECDE90086CDE90A
:10523000027504F5F6700023474A48490446FFF713
:105240008FFE0021B0EE485AF0EE684AB0EE484AB0
:10525000F0EE483AB0EE483A9FED419AF0EE492A16
:10526000DFED409AF0EE481AB0EE481AB0EE692A27
:10527000F2EE040A9FED3CAA4846B0EE4A0A01F05D
:10528000E5FE0021B0EE485AF0EE684AB0EE484A1A
:10529000F0EE483AB0EE483AF0EE492AB0EE692A0C
:1052A000F0EE481AB0EE481AF2EE040AB0EE4A0ADE
:1052B000504601F0CBFE9FED2DAA0021B0EE485ADA
:1052C000F0EE684AB0EE484AF0EE483AB0EE483A9E
:1052D000F0EE492AB0EE692AF0EE481AB0EE481A0C
:1052E000F2EE040AB0EE4A0A584601F0AFFE05B0ED
:1052F000B0EE485AF0EE684AB0EE484AF0EE483A4E
:10530000B0EE483AF0EE492AB0EE692AF0EE481ABB
:10531000B0EE481AB0EE4A0ABDEC068B20460021DA
:10532000F2EE040ABDE8F04F01F090BE6F12033CAC
:105330006F12833BCDCC4C3D000000000AD7A33B4D
:10534000CDCCCC3D78030020B805002030030020F0
:105350002805002008040020C0030020500400207D
:1053600000389C450080BB4400007A44000096440D
:1053700010B5FFF723FE1C30FFF720FE1C30FFF7AF
:105380001DFE0423882236491C3001F0B2FE00F5D0
:10539000097001F017FE00F5667001F06FFE5030E5
:1053A00001F06CFE503001F069FEA0F5D66000F50A
:1053B0008061B2EE040A81EDC00A81EDC10AB1EE4E
:1053C000000A81EDC20A9FED270A012281EDC30A7E
:1053D00080F820279FED240A42F2107281EDC90A5D
:1053E00081EDCA0A81EDCB0A81EDCC0A81EDCD0AAF
:1053F00081EDCE0A81EDCF0A81EDD00A81EDD10A8F
:1054000081EDD20A81EDD30A81EDD40A81EDD50A6E
:1054100081EDD60ADFED150AC0F85C27C1EDD80A88
:10542000002280F8642781EDDA0A81EDDB0A81ED44
:10543000DC0A81EDDD0A81EDDE0A81EDDF0A81ED16
:10544000E00A81EDE10A81EDE20A81EDE30A81EDF6
:10545000E40A81EDE50A81EDE60A81EDE70A10BD77
:10546000A54F000800008046000000006F12833A3C
:105470000549064A0968B1FBF2F282714FF47A726B
:10548000B1FBF2F1816070471000002040420F0034
:1054900070B504460D46204600F060FB20B120792F
:1054A00040F08000207105E0204600F09DF8217951
:1054B00008432071204600F0E5FA20B1207940F041
:1054C0004000207105E0204600F02CF821790843C7
:1054D0002071607920B12946204600F0E7F815E0F8
:1054E0009FED0B0A85ED090A9FED0A0A85ED0A0A70
:1054F00085ED0B0A9FED080A85ED0C0A9FED070A62
:1055000085ED080A9FED060A85ED060A207970BD33
:10551000AC38223BB016CE393F161B41C48B813FBD
:10552000000020422DE9F84380460024002000902E
:105530006A460021404600F067FC9621404600F094
:1055400021FD6A460021404600F05EFC962140465F
:1055500000F018FDB6221421404600F093FC5021C3
:10556000404600F0F7FC6A460021404600F04CFC43
:105570009621404600F006FD6A460021404600F0B4
:1055800043FC9621404600F0FDFC9DF800000F28EA
:1055900002D0FF20BDE8F883124F04EB4405EE195A
:1055A000795D7278404600F06DFC9621404600F02F
:1055B000E9FC795D6A46404600F026FC96214046AB
:1055C00000F0E0FC70789DF80010884204D004EBF5
:1055D000440038448078DDE7641CE4B2062CDCD358
:1055E0000020D7E75E0000202DE9F8438046002028
:1055F000009000246A460021404600F023FC9621DA
:10560000404600F0BFFC6A460021404600F01AFC0C
:105610009621404600F0B6FCB6227E21404600F0BE
:105620004DFC5021404600F095FC6A460021404662
:1056300000F008FC9621404600F0A4FC6A460021D8
:10564000404600F0FFFB9621404600F09BFC9DF891
:1056500000001E2802D0FF20BDE8F883124F04EBA3
:105660004405EE19795D7278404600F027FC9621DA
:10567000404600F087FC795D6A46404600F0E2FB58
:105680009621404600F07EFC70789DF8001088421C
:1056900004D004EB440038448078DDE7641CE4B2B5
:1056A000062CDCD30020D7E74C0000202DE9F34F77
:1056B0000C462DED048B89B0002007900890FEF772
:1056C000A5FEE24E86ED040A04AF0DF104084FF08A
:1056D0007C5BDFF87C93DFF87CA3FEF797FED6EDCA
:1056E000040ADD4930EE600A10EE100A884212DD2D
:1056F0009FEDDA0A84ED090A9FEDD90A84ED0A0AC2
:1057000084ED0B0A9FEDD70A84ED0C0A9FEDD60AB3
:1057100084ED060A76E19FEDD50AFFF7E5FA9FEDE5
:10572000D40A84ED0C0A84ED090A84ED0A0A84ED9A
:105730000B0A0025EDE0062307AA12210D9800F0C0
:105740003BFB9DF81D009DF81C10000200B20843B1
:1057500000EE100AD6ED020AB8EEC00A20EE200ACA
:1057600084ED000A9DF81F009DF81E10000200B293
:10577000084300EE900A96ED021AF8EEE00A60EE99
:10578000810AC4ED010A9DF821009DF82010000255
:1057900000B2084301EE900AF8EEE11A21EE811AF8
:1057A00084ED021A20EE000A00EEA00A01EE010AC2
:1057B00001F066FEB0EE408A94ED0C0A30EE080A65
:1057C00084ED0C0A082307AA00210D9800F0CEFAF8
:1057D0009DF81C000F2840D19DF81F009DF81E1059
:1057E000000200B2084300EE100AF8EEC00A96ED7F
:1057F000030A60EE800AC4ED030A94ED091A71EE03
:10580000200AC4ED090A9DF821009DF8201000022D
:1058100000B2084300EE900AF8EEE00A60EE800A5B
:10582000C4ED040A94ED0A1A71EE200AC4ED0A0AC6
:105830009DF823009DF82210000200B2084300EEFC
:10584000900AF8EEE00A20EE800A84ED050AD4ED15
:105850000B0A30EE800A84ED0B0A002D7ED0B4EEE8
:10586000E88AF1EE10FA01DDF0EE488AB4EEC98A5A
:10587000F1EE10FA01D2B0EE489A002004EB80015C
:1058800091ED030A07EB8001D1ED000AB4EEE00AC6
:10589000F1EE10FA01DD81ED000A08EB8001D1ED97
:1058A000000AB4EEE00AF1EE10FA01D281ED000A2E
:1058B000401CC0B20328E1D338EEC90A86ED050AC0
:1058C000002007EB8001D1ED000A08EB800191ED8B
:1058D000001A09EB800170EEC10AC1ED000A401CFC
:1058E000C0B20328EDD310EE100A584515DCD9F8E4
:1058F0000000504511DCD9F8040050450DDCD9F802
:105900000800504509DC9FED5B0AFFF7EDF96D1CBF
:10591000ADB270888542FFF40EAF7288D4ED0C0AE8
:1059200000EE102AB8EE400A80EE801A84ED0C1AC0
:10593000002000EE102A04EB8001B8EE400AD1ED01
:10594000090A80EE801A81ED091A401CC0B20328B2
:10595000EFD3022307AA22210D9800E05FE000F0B8
:105960002BFA9DF81C009DF81D10C00040EA511054
:10597000B0F5806F02DBA0F5006000B200EE100A07
:10598000B4EE001AF8EEC00AB3EE070A00EE810A80
:1059900084ED060A3088401C3080706958453FF716
:1059A0009CAE94ED0C0ADFED340A30EE600AB0EEE6
:1059B000C00A10EE100A5845F1DCD9F80000504535
:1059C000EDDCD9F804005045E9DCD9F80800504571
:1059D000E5DC94ED090A2948B0EEC00A10EE101A71
:1059E0008142DCDC94ED0A0AB0EEC00A10EE101A17
:1059F0008142D4DC94ED0B0AB0EEC00A10EE101A0E
:105A00008142CCDC94ED0C0ADFED1D0A80EE801A99
:105A100084ED081A09B0BDEC048BBDE8FC8FF0EEF4
:105A2000488AB0EE489A002004EB800191ED030A09
:105A300007EB800181ED000A08EB800181ED000A8F
:105A4000401CC0B20328EFD336E700002C00002032
:105A50008C0900209A99193E00002041AC38223B65
:105A6000B016CE393F161B41000020420AD7A33B97
:105A7000000000006F12033ACDCC1C410AD7233C32
:105A8000C3F51C4138B505460020009000246A4645
:105A90000021284600F0B8F99621284600F072FA55
:105AA0006A460021284600F0AFF99621284600F00A
:105AB00069FAB6221421284600F0E4F9502128465C
:105AC00000F048FA6A460021284600F09DF9962128
:105AD000284600F057FA6A460021284600F094F95B
