:020000040800F2
:100000005840002075020008D7440008233B000830
:10001000D5440008D9130008694700080000000013
:10002000000000000000000000000000DB440008A9
:100030002514000800000000D9440008DD44000831
:100040008F0200088F0200088F0200088F0200084C
:100050008F0200088F020008271400088F02000892
:100060008F0200082D1400088F0200088F0200087C
:100070008F0200088F0200088F020008DD130008BD
:10008000E91300088F0200088F0200088F020008A1
:100090008F0200088F0200088F0200083314000846
:1000A0008F0200088F0200088F0200088F020008EC
:1000B0008F0200088F0200088F0200088F020008DC
:1000C0008F0200088F0200088F0200088F020008CC
:1000D0008F020008514700085D4700088F020008A2
:1000E0008F0200088F0200088F0200088F020008AC
:1000F0008F0200088F0200088F020008F513000825
:100100008F0200088F0200088F0200088F0200088B
:100110008F02000879460008F1440008FD440008F9
:100120008F020008011400080D1400088F02000857
:100130008F0200088F0200088F0200088F0200085B
:100140008F0200088F0200088F0200088F0200084B
:100150008F020008191400088F0200088F0200089F
:100160008F0200088F0200088F0200088F0200082B
:100170008F0200088F0200088F02000800000000B4
:100180008F0200088F02000800F002F800F062F809
:100190000AA090E8000C82448344AAF10107DA45E2
:1001A00001D100F057F8AFF2090EBAE80F0013F0D2
:1001B000010F18BFFB1A43F00103184778AB00008A
:1001C00098AB00000A444FF0000C10F8013B13F00C
:1001D000070408BF10F8014B1D1108BF10F8015BA0
:1001E000641E05D010F8016B641E01F8016BF9D193
:1001F00013F0080F1EBF10F8014BAD1C0C1B09D1EA
:100200006D1E58BF01F801CBFAD505E014F8016B5B
:1002100001F8016B6D1EF9D59142D6D370470000ED
:100220000023002400250026103A28BF78C1FBD8FF
:10023000520728BF30C148BF0B6070471FB50AF096
:10024000ABFB9DE8030000F0BBFE00F087FE1FBD86
:1002500010B510BD00F06DFF1146FFF7EFFF09F07C
:10026000FBFB00F08BFF03B4FFF7F2FF03BC00F0D1
:10027000F5FF00000948804709480047FEE7FEE710
:10028000FEE7FEE7FEE7FEE7FEE7FEE7FEE7FEE746
:1002900004480549054A064B70470000E144000840
:1002A00089010008582200205840002058310020C1
:1002B0005831002070B405880E884468D1F804C015
:1002C0005368B54208D140884988884201BF1188E7
:1002D0008D425188884203D070BC6FF00200704795
:1002E00005FB00F1880827D094ED001ADCED000A28
:1002F00094ED010ADCED011A31EE201AD4ED020A68
:1003000070EE211A9CED020A83ED001AC3ED011A6A
:1003100094ED031ADCED031A30EE800A401E71EEF4
:10032000210A83ED020A04F11004C3ED030A03F16C
:1003300010030CF1100CD7D111F0030030D0B0F144
:10034000004F30D200282BDD211F1B1FACF104020F
:1003500010F0010F0AD091ED010AD2ED010A091D3A
:10036000121D30EE200A83ED010A1B1D400817D034
:1003700091ED010AD2ED010A401E30EE200A83ED14
:10038000010A91ED020AD2ED020A01F1080102F11F
:10039000080230EE200A83ED020A03F10803E7D1D8
:1003A00070BC00207047B4EC010A401EFCEC010A4E
:1003B00030EE200AA3EC010AF5D1F1E7018042807A
:1003C000436070472DE9F34F84B004984068009073
:1003D000486801900498B0F800E04588DFEDFE0A17
:1003E00000200290B0EE600AAE4506D10888498828
:1003F000884204BF7146864504D06FF0020006B003
:10040000BDE8F08F01985FEA010C18BFB7EE001A43
:100410003DD000BFBEEB0C0117D0B1F1004F80F012
:100420001F82002911DD021F11F0010F1CBFC2ED58
:10043000010A121D4B1006D0C2ED010AC2ED020ADC
:1004400008325B1EF8D100EB8100BCF10102A0EC88
:10045000011A19D0B2F1004F80F00882002A13DD92
:10046000031F12F0010F1CBFC3ED010A1B1D511029
:1004700008D000BFC3ED010AC3ED020A491E03F113
:100480000803F7D100EB8200BCF1010CC2D14FF0A0
:1004900000080395002D14BFB0EE602A002000F084
:1004A000BF8100BF009908FB05F001EB800B0199AB
:1004B000DBED002A01EB80000346F0EE421AC64550
:1004C00052D9AEEB0802ABEB850112F0010F17D049
:1004D00001EB850191ED000AB5EEC00AF1EE10FACC
:1004E00007DDB4EEE10AF1EE10FA09DDF0EE401A94
:1004F00006E0B1EE400AF4EEC01AF1EE10FAF5D3C0
:10050000521031D001EB850C9CED000AB5EEC00A0B
:10051000F1EE10FA05DDB4EEE10AF1EE10FA09DDB4
:1005200006E0B1EE400AF4EEC01AF1EE10FA01D284
:10053000F0EE401A01EBC50191ED000AB5EEC00ADC
:10054000F1EE10FA05DDB4EEE10AF1EE10FA09DD84
:1005500006E0B1EE400AF4EEC01AF1EE10FA01D254
:10056000F0EE401A521ECDD1F5EEC01AF1EE10FA9F
:1005700000F07381F5EEC02A0126F1EE10FA009921
:10058000D4BFB1EE620AB0EE620AB4EE610AF1EED7
:1005900010FA1CBFAEEB0802B2F1010C47D005FB0C
:1005A00008F201EB820292ED001A00BFB0EE410AA0
:1005B00005FB06F4B5EEC00A00EB8404F1EE10FA78
:1005C000CCBFF0EE400AF1EE400AF4EE610AF1EE23
:1005D00010FA28D1B5EB080C11D0BCF1004F7DD238
:1005E000BCF1000F0BDD00BF92ED000AD1ED000A57
:1005F000BCF1010CE2EC010AA1EC010AF4D12900E2
:100600000ED0B1F1004F6AD2002909DD94ED000A45
:10061000D0ED000A491EE4EC010AA0EC010AF5D174
:10062000012002900BE0761CBCF1010CBED10298B7
:10063000012804D0F5EEC02AF1EE10FA7ED09BED31
:10064000000AB5EB08009A465946064622D0B0F19A
:10065000004F74D200281DDD091F10F0010F06D0D5
:10066000F0EE400A80EEA01A81ED011A091D40103B
:1006700010D000BFD1ED010A401E80EE801A81ED3E
:10068000011A91ED021AC1EE000AC1ED020A01F150
:100690000801EFD1280026D0B0F1004F7ED200280B
:1006A00021DDAAF1040110F0010F06D0D1ED010AFD
:1006B00080EE801A81ED011A091D401013D000BF91
:1006C000D1ED010A401E80EE801A81ED011AD1EDB4
:1006D000020A80EE801A81ED021A01E0CBE0D6E03A
:1006E00001F10801ECD1DDE900124FF000095FEAE9
:1006F0000E0773D0C14504BF01EB860102EB8502F2
:1007000074D091ED000ADC465046331E35D01C46AD
:10071000B6F1004F7ED2002C2FDD0B1FABF1040C85
:1007200016F0010F0FD0F0EE400ADCED011AB0EE2A
:10073000601A00EEE11A83ED011A01E08DE0B1E0EC
:100740001B1D0CF1040C741015D000BFD3ED010A71
:100750009CED011A40EE410AC3ED010AD3ED020AF5
:100760009CED021A0CF1080C40EE410AC3ED020A9E
:100770000833641EEAD101EB86012B0036D0B3F1B9
:10078000004F72D2002B31DDA2F1040CAAF104005B
:1007900013F0010F0CD0DCED010A00E08BE090EDCE
:1007A000011A001D40EE410ACCED010A0CF1040CC7
:1007B0005C1019D0DCED010A90ED011A40EE410AFF
:1007C000CCED010ADCED020A90ED021A083040EE91
:1007D000410ACCED020A03E0000000000DE005E054
:1007E000641E0CF1080CE5D102EB830201EB8801D9
:1007F0007F1E09F101097FF47DAF009808F101081F
:10080000001D00900398401E03907FF44BAE0299A8
:10081000012900E058E004BF06B0BDE8F08F00BF3A
:10082000B5EEC00AF1EE10FA7FF4E9AD04990EFBC3
:1008300005F3002B4A684FF000010BD902EB810C45
:100840009CED000AB5EEC00AF1EE10FA02D1491C87
:100850008B42F3D88B427FF4D2AD6FF00400CEE52B
:10086000E0EC010A491EFBD1EFE538E0E0EC010ABB
:10087000521EFBD108E692ED000AD1ED000ABCF150
:10088000010CE2EC010AA1EC010AF4D1B7E694ED07
:10089000000AD0ED000A491EE4EC010AA0EC010AAE
:1008A000F5D1BDE6D1ED000A401E80EE801AA1EC24
:1008B000011AF7D1EEE6D3ED000A401E80EE801A51
:1008C000A3EC011AF7D10EE7BCEC011AD1ED000A36
:1008D0005B1E40EE410AE1EC010AF5D14DE7B0ECB8
:1008E000011AD2ED000A5B1E40EE410AE2EC010A59
:1008F000F5D17BE72DE9F04F82B04668536801934C
:10090000058847884B88002000900888874201BFEF
:10091000B2F800C06545528893421EBF6FF00200D6
:1009200002B0BDE8F08F9FED412A4FEA970EC7F362
:10093000400B00BFDDE9000202EB800A4A689846DE
:100940004FF00009B0EE420AB4465FEA0E0025D02F
:1009500092ED001ADCED001A02EB8302DCED010AD5
:1009600001EE810A92ED001A02EB8302401ED2EDE5
:10097000001A02EB830200EE810A9CED021ADCED04
:10098000030A00040CF1100C000C01EE210A92ED98
:10099000001A02EB830200EE810AD9D117F003009E
:1009A00026D0ACF10404A2EB830210F0010F08D0B2
:1009B00002EB8302D4ED010A92ED001A241D00EE31
:1009C000810A5FEA0B0013D002EB830CD4ED010A1D
:1009D0009CED001A02EBC302401E00EE810AD4ED2A
:1009E000020A92ED001A04F1080400EE810AEBD12C
:1009F00009F10100AAEC010A1FFA80F9486800EB2E
:100A00008902A8F101001FFA80F8B8F1000F99D10E
:100A1000009806EB8706184480B20090681E050413
:100A20002D0C87D102B00020BDE8F08F000000003F
:100A300070B405880E884468D1F804C05368B54284
:100A400008D140884988884201BF11888D42518869
:100A5000884203D070BC6FF00200704705FB00F1C4
:100A6000880827D094ED001ADCED000A94ED010A05
:100A7000DCED011A31EE601AD4ED020A70EE611A53
:100A80009CED020A83ED001AC3ED011A94ED031ADE
:100A9000DCED031A30EEC00A401E71EE610A83EDF0
:100AA000020A04F11004C3ED030A03F110030CF170
:100AB000100CD7D111F0030030D0B0F1004F30D27C
:100AC00000282BDD211F1B1FACF1040210F0010FC9
:100AD0000AD091ED010AD2ED010A091D121D30EE76
:100AE000600A83ED010A1B1D400817D091ED010A31
:100AF000D2ED010A401E30EE600A83ED010A91ED4D
:100B0000020AD2ED020A01F1080102F1080230EEF8
:100B1000600A83ED020A03F10803E7D170BC0020EC
:100B20007047B4EC010A401EFCEC010A30EE600A8A
:100B3000A3EC010AF5D1F1E72DE9F04F02884768EF
:100B4000B0F802804888D1F8049082B04FF0000AD3
:100B50001646824207BF098888456FF0020002B03E
:100B600018BFBDE8F08F4FEA980B02EB42000190EE
:100B7000C8F34000CDF8000009EB8A01BBF1000F7B
:100B800033D0019801EB820C01EB80043B46E64632
:100B900001EBC2054FEA0B0093ED000A401E81ED08
:100BA000000A93ED010A01EB02118CED000A93EDAE
:100BB000020A0CEB021C85ED000A93ED030A05EB1B
:100BC000021584ED000A04EB021403F11003E3D1D3
:100BD0000EEB820000EB820000EB8201ABF1010022
:100BE000504307EB0B1701EB001118F0030C21D059
:100BF0003B1FA1EB82011CF0010F06D093ED010A0F
:100C000001EB82011B1D81ED000A009880B100BF3D
:100C100093ED010A01EB820401EBC20184ED000AAD
:100C200093ED020A401E81ED000A03F10803EFD1A3
:100C300007EB8C070AF101001FFA80FA701E060408
:100C4000360C99D102B00020BDE8F08F70B5064691
:100C500000F096F9056806F10B0020F00704B44295
:100C60009CBF002070BD2B466A68BAB11068A042D4
:100C700010D304F1080188423CBF5068586007D384
:100C80005168101941601168091B016058601460B7
:100C9000101D70BD13465268002AE7D12146284630
:100CA00000F07AF90028DED170BD53EA020C00F0A2
:100CB00069802DE9F04B4FF00006002B1FBFB3FAFF
:100CC00083F503FA05F424FA05F65E4012BF1643D5
:100CD000B2FA82F502FA05F4C5F120051EBF22FA28
:100CE00005FC44EA0C04203556EA044C4FEA14444F
:100CF00018BF641C4FF000084FF00009904271EBE0
:100D0000030C39D3002919BFB1FA81F701FA07F6AC
:100D1000B0FA80F700FA07F6C7F120071EBF20FAE5
:100D200007FC46EA0C062037B6FBF4FCA7EB0507E8
:100D3000103F07F01F0BCBF120060CFA0BFB2CFA2F
:100D400006F644BFB3460026202FA4BF5E464FF0F0
:100D5000000B5BEA060C08BF4FF0010B19EB0B0907
:100D6000ABFB027C48EB0608C01B06FB02CC0BFB6E
:100D700003CC71EB0C01C1E70B46024641464846E5
:100D8000BDE8F08B13B54FF000004FF00001AFF35A
:100D90000080BDE81C40704710B5431C02E010F80D
:100DA000011B71B18107FAD14FF0013202C88C1AD0
:100DB0008C4314EAC211F9D0C01A0A0603D0C01E2F
:100DC00010BDC01A10BD0A0401D0801E10BD09025A
:100DD000FCD0401E10BD032A40F2308010F0030CFE
:100DE00000F0158011F8013BBCF1020F624498BF7E
:100DF00011F801CB00F8013B38BF11F8013BA2F11B
:100E0000040298BF00F801CB38BF00F8013B11F095
:100E1000030300F02580083AC0F0088051F8043B35
:100E2000083A51F804CBA0E80810F5E7121D5CBFA2
:100E300051F8043B40F8043BAFF30080D20724BFD5
:100E400011F8013B11F801CB48BF11F8012B24BF69
:100E500000F8013B00F801CB48BF00F8012B7047B8
:100E600010B5203AC0F00B80B1E81850203AA0E845
:100E70001850B1E81850A0E81850BFF4F5AF5FEA79
:100E8000027C24BFB1E81850A0E8185044BF18C92C
:100E900018C0BDE810405FEA827C24BF51F8043BD3
:100EA00040F8043B08BF7047D20728BF31F8023B27
:100EB00048BF11F8012B28BF20F8023B48BF00F8BB
:100EC000012B70474FF000020429C0F0128010F08F
:100ED000030C00F01B80CCF1040CBCF1020F18BF16
:100EE00000F8012BA8BF20F8022BA1EB0C0100F0A9
:100EF0000DB85FEAC17C24BF00F8012B00F8012B7C
:100F000048BF00F8012B70474FF0000200B51346B0
:100F100094469646203922BFA0E80C50A0E80C5019
:100F2000B1F12001BFF4F7AF090728BFA0E80C50CA
:100F300048BF0CC05DF804EB890028BF40F8042BC3
:100F400008BF704748BF20F8022B11F0804F18BF30
:100F500000F8012B704770477047704770B5064C1A
:100F60007C44064D7D4403E0206820448047241DD6
:100F7000AC42F9D170BD0000F09D0000009E000061
:100F80000048704700220020004870472C220020B3
:100F9000704770477047704738B504460A460020CE
:100FA0006946AFF30080002808BF38BD02460099AB
:100FB000204600F077F8012038BD012000F0A4B8E9
:100FC000F8B5AFF30080054600200C46102000BFA6
:100FD0000646A819A0420DD9324669460020AFF353
:100FE0000080070008BF00F08FF80098A04218BFEB
:100FF0000546C419FFF7C4FF05600746F01D20F041
:1010000007004619284600F00AF8B44208BFF8BDA8
:10101000A21B31463868BDE8F84000F043B8002113
:101020000160C0E9011070471020704770B5044698
:10103000051FFFF7A5FF0068002C14BF446870BDB2
:10104000002C18BFAC423CBF20466468F8D301684E
:101050000A18AA4218BF456003D12A680546114400
:10106000016028684119A1421CBF6C6070BD6168B5
:10107000696021680844286070BD10B500F00EF862
:10108000006810BD10B5044600F008F8046010BDFB
:1010900000F041B800487047F82100200048704730
:1010A000F8210020034640688C46002818BF88427B
:1010B0003CBF03464068F8D318681844884207D0FC
:1010C0000CF1030020F00700001D411A521A0146DE
:1010D000081D0A60FFF7AABF1FB584B000200A9C54
:1010E00006AB04AA02A90094AFF3008018B1DDE9B1
:1010F000020108B010BD0348204000F058F800205D
:101100000146F6E70000207C10B500F057F8BDE876
:10111000104000F047B810B500F07BF8016919B134
:1011200000220261884701E08068804700F02FF8C4
:1011300070477546FFF7AEFFAE4605006946534659
:1011400020F00700854618B020B5FFF7A1F8BDE8EC
:1011500020404FF000064FF000074FF000084FF01E
:10116000000B21F00701AC46ACE8C009ACE8C009AF
:10117000ACE8C009ACE8C0098D46704710B504461C
:10118000AFF300802046BDE81040FFF76CB810B503
:10119000002000F086F8FFF75BF8BDE81040012062
:1011A00000F05CB8002801D000F058B8704710B5C6
:1011B00000F07EF8BDE81040FFF7F4BF10B501283D
:1011C00005D0002103A000F053F8012010BD09A1B3
:1011D000F8E7000053494752544D454D3A204F75AA
:1011E00074206F662068656170206D656D6F72791F
:1011F000000000003A2048656170206D656D6F72D7
:101200007920636F727275707465640010B5FFF7B2
:10121000BEFF70B500F028F804680546A4B9202088
:10122000FFF714FD040011D0094900202C60C4E927
:1012300000010849A1602073206160610649A06136
:1012400009B100F08BF8E061204670BDFFF79FFF09
:10125000000000000D1200080000000001491820E5
:10126000ABBEFEE726000200004870473422002093
:1012700070B505460C460A2000E06D1C00F08CF8A5
:1012800035B128780028F8D102E0641C00F084F819
:1012900014B120780028F8D1BDE870400A2000F091
:1012A0007BB810B500F080F8BDE81040FFF77ABFBA
:1012B00010B5022803D0410103D50DA112E0002092
:1012C00010BD010101D50FA10CE0C10001D511A194
:1012D00008E0810001D512A104E0400001D513A16E
:1012E00000E0002115A0FFF7C3FF012010BD0000A2
:1012F000496E76616C6964204F7065726174696FC4
:101300006E000000446976696465204279205A6560
:10131000726F00004F766572666C6F770000000098
:10132000556E646572666C6F77000000496E657873
:1013300061637420526573756C74000053494746AD
:1013400050453A2041726974686D6574696320651F
:101350007863657074696F6E3A20000010B588205C
:10136000FFF774FC002801D00021017010BD802916
:1013700002D808B1017809B100207047012100F8B6
:10138000081B704718B100F10802914201D00020FB
:10139000704700210170704708B569468DF800005C
:1013A0000320ABBE08BD000010B5002102A0FFF76E
:1013B0005FFF012010BD0000534947414252543A9B
:1013C0002041626E6F726D616C207465726D696E22
:1013D0006174696F6E000000FEE70000014800F0D4
:1013E00087B80000EC020020014800F081B800003E
:1013F0007C080020014800F07BB80000BC070020FA
:10140000014800F075B80000DC080020014800F039
:101410006FB800001C080020014800F069B8000007
:101420003C0900207047012000F000BA082000F0BD
:10143000FDB94FF4007000F0F9B972B6FEE72DE97E
:10144000F0410446A76D00F0F5FA054694F8350022
:101450000026022806D08020606584F834600120D0
:10146000BDE8F0812068016821F016010160206864
:10147000416921F080014161206C08B9A06C20B164
:101480002068016821F0080101602068016821F0EE
:10149000010101600BE000F0CDFA401B052806D9E0
:1014A000202034342062032060702670D8E7206842
:1014B0000068C007EFD134343F2094F828108840EA
:1014C000B8600120607026700020C9E790F83510E0
:1014D000022903D08021416501207047052180F851
:1014E00035100068016821F001010160002070479B
:1014F0002DE9F84304464FF00009CDF800906F48FD
:101500004FF416510068B0FBF1F7A56D2E6894F802
:101510005C00082202FA00F1314210D02068016814
:1015200049070CD5016821F00401016094F85C00C2
:1015300002FA00F1A960606D40F00100606594F866
:101540005C104FF0010808FA01F0304208D0216821
:101550004969090604D5A860606D40F00200606525
:1015600094F85C1004208840304208D02168096853
:10157000890704D5A860606D40F00400606594F8A8
:101580005C1010208840304220D02168096809078B
:101590001CD5A8602068016849030CD500680003C9
:1015A00004D4216C91B1204688470FE0A16C69B149
:1015B000204688470AE00168C90503D4016821F084
:1015C00008010160216C09B12046884794F85C103D
:1015D0002020884030424CD021680968C90648D58F
:1015E000A86094F8350005280BD0206801684903ED
:1015F00030D50068000328D4616C51B32046884779
:1016000037E02068016821F0160101602068416917
:1016100021F080014161206C08B9A06C20B12068E4
:10162000016821F00801016094F85C103F208840B7
:10163000A86084F8358084F83490216D00293BD06F
:1016400001B02046BDE8F0430847E16B09B12046F0
:1016500088470EE00168C90507D4016821F0100130
:10166000016084F8358084F83490E16B09B120463C
:101670008847606D00281FD0606DC00714D005201A
:1016800084F835002068016821F0010101600098AC
:10169000401C0090B84203D820680068C007F6D10B
:1016A00084F8358084F83490E16C002904D001B0CE
:1016B0002046BDE8F0430847BDE8F883100000204D
:1016C0002DE9F041044600F0B5F905465CB1022071
:1016D00084F83500002684F834602068016821F021
:1016E000010101600DE00120BDE8F08100F0A2F9E8
:1016F000401B052805D920206065032084F83500AB
:10170000F2E720680068C007F0D121680A68204825
:101710000240D4E901031843D4E903352B431843AD
:1017200063691843A3691843E3691843236A18439C
:101730001043626A042A03D1D4E90B231A431043ED
:1017400008602068406920F00700656A2946054363
:10175000012704290DD1A06A0543E06A48B120465B
:1017600006F047FD28B14020606584F835700120FF
:10177000BAE720684561204606F078FD94F85C20C1
:101780003F2191408160666584F835700020ABE7A9
:101790003F8010F02DE9F04104460025A66D94F835
:1017A000340001280DD0012084F8340094F83570FD
:1017B0000020012F07D084F8340002252846BDE818
:1017C000F0810220FBE7022784F83570606520462F
:1017D00006F0FAFC94F85C103F208840B060206866
:1017E000016841F016010160206C20B12068016899
:1017F00041F0080101602068016841F001010160C9
:10180000DCE7000070B5044600F014F90546601CE2
:1018100002D004480078044400F00CF9401BA042B8
:10182000FAD370BD040000207047000010B50449D1
:101830000A68024202D00860FFF7F6FF10BD000000
:10184000143C01402DE9F84F0022DFF89C914FF045
:10185000010809F1040A03274FF00F0C0AF1040BE9
:1018600008FA02F50B682B40AB426ED10C7904F0FC
:101870000304012C01D0022C15D18668540007FA0C
:1018800004FE26EA0E06D1F80CE00EFA04FE4EEA3B
:10189000060EC0F808E04468AC430D79C5F30015A6
:1018A0009540254345600C79E443A40708D0C568FA
:1018B000540007FA04F6B5438E68A6402E43C6606E
:1018C0000C7904F00304022C11D1D40800EB840637
:1018D000356A5407E40E0CFA04FE25EA0E05D1F829
:1018E00010E00EFA04FE4EEA050EC6F820E0056888
:1018F000540007FA04F6B5430E7906F00306A64035
:101900002E4306604C6814F4403F67D0374C25687E
:1019100045F480452560246804F480440094344CE8
:1019200022F003052E19D6F8085894074FEA147EC2
:101930000CFA0EF4A5432F4CA04201D1002424E060
:101940002D4CA04202D101241FE047E02B4CA042C5
:1019500001D1022419E02A4CA04201D1032414E051
:10196000284CA04201D104240FE0274CA04201D111
:1019700005240AE0254CA04201D1062405E0244CB0
:10198000A04201D1072400E0082404FA0EF42C43FD
:10199000C6F80848D9F800409C434D68ED0300D5CF
:1019A0001C43C9F80040DAF800409C434D68AD0381
:1019B00000D51C43CAF80040DBF800409C434D684A
:1019C000ED0200D51C43CBF80040074D0C352C68C8
:1019D0009C434E68B60200D51C432C60521C102A52
:1019E000FFF43EAFBDE8F88F003C014044380240B0
:1019F00000300140000002400004024000080240A4
:101A0000000C024000100240001402400018024086
:101A1000001C0240426921EA02030A4043EA0241F3
:101A200081617047002A01D081617047090481619A
:101A300070470000014880687047000004000020E3
:101A400002488168027811448160704704000020D8
:101A500010B50B48016841F400710160016841F460
:101A600080610160016841F480710160032000F031
:101A700073F8002000F006F800F026F8002010BDF2
:101A8000003C024070B504460D4D4FF47A71287841
:101A9000B1FBF0F00B490968B1FBF0F000F011FE6A
:101AA00008B1012070BD102C07D200222146501E23
:101AB00000F032F86C60002070BD012070BD0000A5
:101AC000040000201000002082B00B48016841F49F
:101AD00080410160006800F4804001900648001FCA
:101AE000016841F080510160006800F08050019071
:101AF000052002B000F030B844380240002809DB6D
:101B000000F01F02012191404009800000F1E02017
:101B1000C0F8001170470000F0B40D460D4B1B6873
:101B2000C3F30223C3F10704042C00D90424191DB4
:101B3000072901D2002300E0DB1E012606FA04F18A
:101B4000491E294099409E40761E16403143F0BC04
:101B500006F0C8BF0CED00E000F00701054A106870
:101B60004FF6FF03184040EA012003490843106084
:101B7000704700000CED00E00000FA052DE9F04789
:101B800004460D46002C13D0DFF82891D9F8000048
:101B9000EFB200F00700A8420CD289F80070D9F823
:101BA000000000F00700A84204D00120BDE8F08743
:101BB0000120FBE72068404E810712D5400703D57E
:101BC000306840F4E05030602078000703D530687A
:101BD00040F4604030603068A16820F0F0000843B5
:101BE00030602078C00731D0334960680839012857
:101BF00008D002280BD0032809D0096889070BD424
:101C00000120D3E70968890306D40120CEE70968DB
:101C1000890101D40120C9E7316821F003010143A2
:101C20003160FFF707FF804641F2883A07E0FFF78F
:101C300001FFA0EB0800504501D90320B6E730684A
:101C4000616800F00C00B0EB810FF0D1D9F8000012
:101C500000F00700A84209D989F80070D9F80000FF
:101C600000F00700A84201D001209FE7207840073C
:101C700005D53068E16820F4E050084330602078F2
:101C8000000706D53068216920F4604040EAC100B1
:101C9000306000F03FF83168084AC1F30311515C2D
:101CA000C8400749086007480068FFF7EBFE0020BE
:101CB0007CE70000003C02400838024020AC0008ED
:101CC0001000002008000020014800687047000054
:101CD0001000002000B5FFF7F7FF04490968044A27
:101CE000C1F38221515CC84000BD000008380240A9
:101CF00030AC000800B5FFF7E7FF04490968044A63
:101D0000C1F34231515CC84000BD000008380240B8
:101D100030AC000810B51548006810F00C011448EC
:101D200023D0042921D008291FD1104C241F216859
:101D300001F03F022168490208D521680023C1F360
:101D40008811A1FB0001FEF7B0FF07E02168002326
:101D5000C1F38811A1FB0001FEF7A7FF2168C1F3C1
:101D60000141491C4900B0FBF1F010BD08380240A8
:101D70000024F4002DE9F84F0446002C13D02078FD
:101D8000DFF8A083C007A8F1040556D008F10400CD
:101D90000168C1F3810101290CD00068C0F3810002
:101DA000022803D00DE00120BDE8F88FD8F800002C
:101DB000400206D5286880033FD5606870BB0120CB
:101DC000F2E76068B0F5803F10D0B0F5A02F12D0D8
:101DD000286820F480302860286820F4802028605B
:101DE0006068E0B1FFF726FE064614E0286840F47C
:101DF00080302860F4E7286840F480202860286854
:101E000040F480302860EBE7FFF714FE801B642865
:101E100001D90320C8E728688003F5D50DE0FFF756
:101E200009FE064606E0FFF705FE801B642801D97F
:101E30000320B9E728688003F5D42078BA4F8007DB
:101E40004FF0000948D5B748001D016811F00C0F8C
:101E500008D00068C0F38100022813D1D8F8000030
:101E600040020FD42868800704D5E068012801D01B
:101E7000012099E72868216920F0F80040EAC100B4
:101E8000286029E0E068B8B101203860FFF7D2FD92
:101E9000064606E0FFF7CEFD801B022801D903208D
:101EA00082E728688007F5D52868216920F0F800C6
:101EB00040EAC10028600FE0C7F80090FFF7BAFDC4
:101EC000064606E0FFF7B6FD801B022801D9032075
:101ED0006AE728688007F5D42078000729D5DFF85D
:101EE00044A2924861690AF1700A89B10121016036
:101EF000FFF7A0FD064606E0FFF79CFD801B0228C9
:101F000001D9032050E7DAF800008007F4D510E08B
:101F1000C0F80090FFF78EFD064606E0FFF78AFD49
:101F2000801B022801D903203EE7DAF80000800771
:101F3000F4D42078400778D54FF0000A79483C3037
:101F40000068C0000BD477483C30016841F08051F4
:101F50000160006800F0805000904FF0010ADFF847
:101F6000D0B1DBF80000C00514D4DBF8000040F469
:101F70008070CBF80000FFF75DFD064606E0FFF736
:101F800059FD801B022801D903200DE7DBF8000072
:101F9000C005F4D5634EA0686C3601280FD0052823
:101FA00012D0306820F001003060306820F004006A
:101FB0003060A068F8B1FFF73DFD834617E0306858
:101FC00040F001003060F4E7306840F00400306019
:101FD000306840F001003060EBE7FFF72BFDA0EB2D
:101FE0000B0141F28830814201D90320DCE63068E0
:101FF0008007F2D510E0FFF71DFD834609E0FFF7EB
:1020000019FDA0EB0B0141F28830814201D9032078
:10201000CAE630688007F2D4BAF1010F05D1414811
:102020003C30016821F080510160A069C0B33D4996
:10203000091D09684FF0FF36C1F38101022946D01E
:10204000022805D0C7F86090FFF7F4FC04463AE098
:10205000C7F86090FFF7EEFC814607E0FFF7EAFC67
:10206000A0EB0900022801D903209DE62868800121
:10207000F4D4D4E907010843616AA26A890106EB36
:10208000520241EA0241084394F82C1040EA0160F0
:10209000C8F8000001203866FFF7CCFC044607E0D2
:1020A0003DE0FFF7C7FC001B022801D903207BE6B7
:1020B00028688001F5D532E0FFF7BCFC001B022840
:1020C00001D9032070E628688001F5D427E00128B3
:1020D00023D0D8F80000E26900F4800191421AD1BF
:1020E000226A00F03F01914215D147F6C071626A41
:1020F0000140B1EB821F0ED1A26A00F4403106EB21
:102100005202B1EB024F06D194F82C1000F070602F
:10211000B0EB016F03D0012046E6012044E6002029
:1021200042E600000438024000004742800E474269
:1021300000700040704770B50446002C09D0606AFA
:10214000002540B125616561A56294F8510040B158
:102150000CE0012070BD6068B0F5827FF4D0E561CD
:10216000F2E784F85050204600F044F8022084F84A
:1021700051002068016821F040010160A088218998
:1021800000F4827001F404410843A18901F4006164
:102190000843217C01F002010843217D01F0010187
:1021A0000843218B01F400710843217F01F03801BD
:1021B000084394F8201001F080010843218D01F4B8
:1021C0000051084321680860A069042101EA104019
:1021D00094F8241001F01001084321684860206839
:1021E000C16921F40061C1616565012084F8510075
:1021F000002070BD2DE9F04186B00646142101A8EB
:10220000FEF782FE3A4A306800253A490224032745
:102210004FF00508904220D136481430026842F44D
:1022200080520260006800F480500090086840F01E
:1022300002000860086800F0020000903820019059
:102240000294012003900497CDF8148001A92A4834
:10225000FFF7F8FA06B0BDE8F081284A9042F9D1BC
:1022600024481030026842F480420260006800F4A2
:1022700080400090086840F480700860086800F4AE
:1022800080700090086840F004000860086800F062
:10229000040000900194029403950497CDF81480F3
:1022A00001A91748FFF7CEFA082001900294039580
:1022B0000497CDF8148001A91248FFF7C3FA134C14
:1022C0001148206065604020A060E5600001206149
:1022D0006561A561E5618001206265622046FFF7C6
:1022E000EFF908B1FFF7A9F8B464A663B2E70000FC
:1022F0000030014030380240000402400038004005
:10230000002002400008024070600240EC02002001
:10231000704770472DE9F84F04460A9E8A46934657
:102320001F4601254FF0000894F8500001280ED0F8
:10233000012084F85000FFF77DFB814694F851009E
:10234000616801280DD0B1F5827F07D102E002203B
:10235000BDE8F88FA16809B9042802D04FF002083F
:10236000C3E0BAF1000F28D0BBF1000F25D0380030
:1023700023D094F85100042802D0052084F851009D
:1023800000206065C4F838B0E787A787C4F830A09C
:10239000E786A7862064606420680168490603D444
:1023A000016841F040010160E068B0F5006F07D0BE
:1023B0006068E8B3012F48D07DE04FF0010894E059
:1023C000606808B1012F39D1206B21680088C8608E
:1023D000206B801C2063E08E401EE0862EE020688B
:1023E000816889070DD5E18E59B1012D09D1216B85
:1023F0000988C160206B801C2063E08E401EE0864F
:10240000002520688168C9070BD0E18F49B1C068F9
:10241000A16B0880A06B801CA063E08F401EE0874A
:102420000125FFF707FBA0EB0900B04206D300E04F
:102430000BE0701C02D04FF0030856E0E08E00283D
:10244000CDD1E08F0028CAD13BE0206B2168007815
:102450000873206B401C2063E08E401EE0862AE05B
:102460002068816889070DD5E18E59B1012D09D108
:10247000216B09780173206B401C2063E08E401EA5
:10248000E086002520688168C9070BD0E18F49B13B
:10249000C068A16B0870A06B401CA063E08F401E59
:1024A000E0870125FFF7C6FAA0EB0900B04201D38F
:1024B000701C11D186B1E08E0028D1D1E08F0028A8
:1024C000CED14A463146204605F078FF38B14FF06C
:1024D00001082020606508E04FF0030805E0A068CF
:1024E00018B92068C168806800900120503460707D
:1024F0000020207040462BE72DE9F04104460025DE
:1025000094F8500001280DD0012784F8507094F8F9
:102510005100D4F804C0002601280FD0BCF5827FFA
:102520000AD102E00220BDE8F081D4F808C0BCF175
:10253000000F01D1042801D002256AE081B37AB3EB
:1025400073B394F85100042802D0052084F8510098
:1025500066652163A386E386A263A387E387266477
:10256000666494F8510004281DD0E16C2B4808647F
:10257000E16C2B48C863E16C2A48C864E06C0665CE
:10258000E38F2168A26B0C31E06CFFF703F988B18F
:10259000606D40F010006065012584F8517038E0EE
:1025A000FFE7012535E0E16C1F480864E16C1F4836
:1025B000C863E0E72068416841F001014160A06C18
:1025C0000664A06CC663A06CC664A06C0665E38E4E
:1025D0002268216B0C32A06CFFF7DCF838B1606D1B
:1025E00040F010006065012584F8517011E020680A
:1025F0000168490603D4016841F040010160206888
:10260000416841F0200141602068416841F00201C9
:10261000416084F85060284685E700003185000855
:102620001984000899820008B3830008BB8200085F
:1026300010B500681C4988420FD11C4C2189606884
:10264000FFF7E8F904F18A01B4F80A21D4F810314F
:10265000BDE81040A1F180001847154988420FD10C
:10266000144C21896068FFF7D5F904F18A01B4F8A8
:102670000A21D4F81031BDE81040A1F180001847BC
:102680000D4988420FD10D4C21896068FFF7C2F9CE
:1026900004F18A01B4F80A21D4F81031BDE81040E1
:1026A000A1F18000184710BD00300140400C00200F
:1026B00000380040540D0020003C0040680E00200F
:1026C000704710B5401EB0F1807F01D3012010BDCE
:1026D0004FF0E02460610F21601706F003FA00203C
:1026E000A06107202061002010BD7047704710B521
:1026F00090F83C20012A22D0012280F83C20CA68B0
:1027000000238C6822F4407222434C6822F48062D9
:1027100022430C6822F4006222430C6922F48052A6
:1027200022434C6922F400522243C96922F48042B8
:102730000A4301684A6480F83C30002010BD022042
:1027400010BD000070B590F83C20012A31D0012660
:1027500080F83C60022280F83D200268546893684B
:1027600024F070050C682C435460134C0268A2429C
:1027700014D0B2F1804F11D0104CA2420ED0104CA8
:10278000A2420BD00F4CA24208D00F4CA24205D05F
:102790000E4CA24202D00E4CA24204D123F0800380
:1027A0004968194391603C30467000210170002057
:1027B00070BD022070BD0000000001400004004018
:1027C00000080040000C00400004014000400140AF
:1027D0000018004010B50446002C03D094F83D00CA
:1027E00010B107E0012010BD002084F83C00204615
:1027F00000F016F8022084F83D00211D206801F049
:1028000083FE01203D3460726070A070E070207122
:102810006071A071E07120722070002010BD000076
:1028200008B500683A4A3B49904208D1086840F030
:1028300008000860086800F00800009008BD364AEB
:10284000904211D1086840F010000860086800F05C
:1028500010000090002201213620FFF75DF9BDE84D
:1028600008403620FFF74AB92C4A904211D1086837
:1028700040F020000860086800F02000009000226E
:1028800001213720FFF748F9BDE808403720FFF75E
:1028900035B9204A224B121D984208D1106840F0E9
:1028A00002001060106800F00200009008BD1D4B8F
:1028B000984208D1106840F480301060106800F42D
:1028C0008030009008BD184A904208D1086840F056
:1028D00040000860086800F04000009008BD134AFE
:1028E000904208D1086840F080000860086800F055
:1028F0008000009008BD0E4A9042FBD1086840F469
:1029000080700860086800F48070009008BD0000C6
:10291000000C00404038024000100040001400400D
:10292000000401400040014000180040001C00402D
:102930000020004090F83D10012901D0012070478F
:10294000022180F83D100168CA6842F00102CA60A5
:1029500000681449884214D0B0F1804F11D0124958
:1029600088420ED0114988420BD01149884208D0C4
:102970001049884205D01049884202D00F49884248
:1029800009D1816801F00701062908D0016841F0EA
:102990000101016003E0016841F0010101600020D4
:1029A00070470000000001400004004000080040A3
:1029B000000C0040000401400040014000180040AD
:1029C00070B50446002594F83C00012817D0012674
:1029D00084F83C60022084F83D002068826822F080
:1029E000770222F47F4282600868502838D00DDCDC
:1029F000202853D005DC90B3102811D14EE00220DE
:102A000070BD30284AD040280AD13DE0602831D03E
:102A100070280CD0B0F5805F03D0B0F5005F12D005
:102A200001253C34667000202070284670BDCB68BC
:102A3000D1E90121206801F0DAFD2068816841F0C8
:102A400077018160EDE7CB68D1E90121206801F0D1
:102A5000CEFD2068816841F480418160E1E71DE09E
:102A6000CA684968206805F007FE5021206805F013
:102A7000FBFDD6E7CA684968206805F00EFE6021B4
:102A8000206805F0F1FDCCE7CA684968206805F0C8
:102A9000F3FD4021206805F0E7FDC2E7226801460A
:102AA000104605F0E1FDBCE72DE9F04104460D4676
:102AB000002C03D094F83D0018B108E00120BDE8D7
:102AC000F081002084F83C00204600F047F8022006
:102AD00084F83D002068816844F2070291438160D8
:102AE000211D206801F010FD273454F8270C81685F
:102AF0008269066A2B680B4340F203318A43AF694F
:102B0000A96842EA0722114340F60C4291434FF272
:102B1000F0029143EF69EA6841EA07210A43296913
:102B20002F6A090141EA0731114326F0220222F0FF
:102B300088066A686D6946EA05152A43836054F879
:102B4000270C816154F8270C02620120E077E075C0
:102B50002076E0762077A0750020B0E770B586B0CB
:102B60000446142101A8FEF7CFF94148216800234B
:102B7000404A0224012681421ED13E481430016899
:102B800041F001010160006800F001000090106850
:102B900040F010001060106800F0100000904FF43A
:102BA00028500190029403930493059601A932489A
:102BB000FEF748FE06B070BD2E4D30481035B1F11D
:102BC000804F1CD02E4EB14233D1296841F0020112
:102BD0002960296801F002010091116841F00101AA
:102BE0001160116801F001010091C021019102946E
:102BF00003930493059401A9FEF724FEDAE72968FC
:102C000041F001012960296801F00101009111687A
:102C100041F001011160116801F0010100910321EF
:102C20000191029403930493059601A9FEF70AFE0D
:102C3000C0E714488142BDD1286840F004002860F4
:102C4000286800F004000090106840F00800106050
:102C5000106800F0080000904FF44050019002947A
:102C600003930493059401A90748FEF7EBFDA1E740
:102C700000000140303802400010024000000240D5
:102C80000004004000080040000C024070B50446FB
:102C900014F83E0F6278237965793E3C02260029BC
:102CA00004D004290DD001281CD115E0012801D140
:102CB000012B01D0012070BD84F83E6084F8426091
:102CC00018E0012A01D1012D01D0012070BD84F846
:102CD0003F6084F843600DE0012A03D1012B01D14C
:102CE000012D01D0012070BD04F83E6F6670267181
:102CF00066713E3C91B1042916D001220021206862
:102D000001F068FC01220421206801F063FC2068C6
:102D1000016841F001010160002070BD0122002125
:102D2000206801F057FCF2E701220421206801F03D
:102D300051FCECE7704770B50446206801694FF01C
:102D40000005C943890716D4C168C943890712D44D
:102D5000E91E01610120207720688069800703D087
:102D60002046FFF7E7FF05E0204600F057F9204630
:102D700000F0E7F9257720680169C943490718D4AD
:102D8000C168C943490714D46FF0040101610220EE
:102D900020772068806910F4407F03D02046FFF739
:102DA000C9FF05E0204600F039F9204600F0C9F9D6
:102DB000257720680169C943090717D4C168C94349
:102DC000090713D46FF008010161042020772068FF
:102DD000C069800703D02046FFF7ACFF05E020461E
:102DE00000F01CF9204600F0ACF925772068016955
:102DF000C943C90618D4C168C943C90614D46FF0C1
:102E000010010161082020772068C06910F4407F1C
:102E100003D02046FFF78EFF05E0204600F0FEF8C5
:102E2000204600F08EF9257720680169C943C9075B
:102E300008D1C168C943C90704D1891E0161204670
:102E400000F0EEF920680169C943090609D4C16898
:102E5000C943090605D46FF0800101612046FFF7E0
:102E600044FC20680169C943490609D4C168C943C3
:102E7000490605D46FF040010161204600F050FA88
:102E800020680169C94389060BD4C168C943890612
:102E900007D46FF0200101612046BDE87040FFF7C4
:102EA00025BC70BD70B586B00446142101A8FEF79C
:102EB0002BF84E4B216800244D4A02254D4899427B
:102EC00025D1116841F080011160116801F0800185
:102ED0000091116841F001011160116801F00101D8
:102EE00000914FF44061019102950394049405957B
:102EF00001A9FEF7A7FC0C2001900295039404940D
:102F0000059501A93C48FEF79DFC06B070BD3B4EFF
:102F10000323B14213D1106840F004001060106820
:102F200000F0040000904FF470700190029503943B
:102F30000494059301A93248FEF784FCE5E7314E7D
:102F4000B14212D1106840F010001060106800F01B
:102F500010000090202001900295039404940593A2
:102F600001A92948FEF76EFCCFE7284E0923B1429C
:102F700011D1116841F080011160116801F08001E8
:102F8000009199010191029503940494059301A97C
:102F9000FEF758FCB9E71E4E1E48B14211D1116828
:102FA00041F020011160116801F0200100918115AC
:102FB0000191029503940494059301A9FEF742FC44
:102FC000A3E7154EB142A0D1116841F02001116074
:102FD000116801F02001009171150191029503948F
:102FE0000494059301A9FEF72DFC8EE7000C004028
:102FF00030380240001C0240000002400004014042
:10300000000802400040014000100240001800404B
:10301000001C00400014024000200040704770B5C2
:1030200004460D46002694F83C0001280FD00120EC
:1030300084F83C006AB1042A1FD0082A32D00C2A36
:1030400044D00126002084F83C00304670BD0220A8
:1030500070BD2946206805F071FA2068816941F049
:10306000080181612068816921F004018161206883
:1030700081692A6911438161E4E72946206801F0EA
:10308000C1FA2068816941F4006181612068816929
:1030900021F480618161206881692A6941EA022105
:1030A0008161CFE72946206805F07CFA2068C16974
:1030B00041F00801C1612068C16921F00401C161CA
:1030C0002068C1692A691143C161BBE729462068AC
:1030D00005F0A0FA2068C16941F40061C16120686F
:1030E000C16921F48061C1612068C1692A6941EA2E
:1030F0000221C161A6E710B50446002C03D094F864
:103100003D0010B107E0012010BD002084F83C0014
:10311000204600F015F8022084F83D00211D2068AB
:1031200001F0F2F901203D3460726070A070E0702F
:1031300020716071A071E07120722070002010BDBC
:103140007047704710B50446002909D004290AD0F9
:1031500008290BD094F8410001280AD0012010BDA5
:1031600094F83E00F8E794F83F00F5E794F8400043
:10317000F2E70220A9B3042937D0082938D084F80F
:1031800041000122206801F025FA1E4920681E4AEC
:10319000884201D0904203D1436C43F4004343641E
:1031A0002068884213D0B0F1804F10D01749884270
:1031B0000DD0174988420AD01649884207D090425C
:1031C00005D01549884202D01449884213D181683C
:1031D00001F00701062912D0016841F001010160E8
:1031E0000DE0FFE784F83E00CBE784F83F00C8E736
:1031F00084F84000C5E7016841F00101016000204A
:1032000010BD000000000140000401400004004027
:1032100000080040000C0040004001400018004041
:1032200000683149884202D1304840680047B0F117
:10323000804F06D02E49884207D12C481030406874
:1032400000472A480830406800472A49884203D18D
:1032500026481830406800472749884203D1234850
:103260002030406800472549884203D11F48283054
:10327000406800472249884203D11C4830304068EA
:1032800000472049884203D1184838304068004739
:103290001D49884203D115484030406800471B490A
:1032A000884203D111484830406800471849884295
:1032B00003D10E485030406800471649884203D178
:1032C0000A485830406800471349884203D10748EC
:1032D0006030406800471149884203D10348683094
:1032E0004068004770470000000001409401002042
:1032F0000004004000080040000C004000100040A6
:10330000001400400004014000400140004401401E
:103310000048014000180040001C00400020004010
:10332000704738B5044694F83E00202801D00220AA
:1033300038BD71B16AB194F83C0001280BD001206E
:1033400084F83C002063204601F09CF9014621B13D
:1033500007E0012038BD022038BD206B012802D0D3
:103360000121084638BD2068026840680090206846
:103370000C3050E8002F42F0100240E80023002BF0
:10338000F5D1EEE770B50546334A286890420DD175
:10339000324CA180A4F18000A268064690472288A2
:1033A00031462846BDE87040FFF7BBBF2C4A90422B
:1033B0000DD12C4CA180A4F18000A2680646904754
:1033C000228831462846BDE87040FFF7AABF264A4A
:1033D00090420DD1254CA180A4F18000A268064640
:1033E0009047228831462846BDE87040FFF799BFD4
:1033F0001F4A90420DD11F4CA180A4F18000A26809
:1034000006469047228831462846BDE87040FFF7BF
:1034100088BF194A90420DD1184CA180A4F18000B8
:10342000A26806469047228831462846BDE870408B
:10343000FFF777BF124A90420DD1124CA180A4F140
:103440008000A26806469047228831462846BDE89B
:103450007040FFF766BF70BD001001408010002073
:10346000004400409011002000480040A0120020BD
:10347000004C0040B013002000500040C014002059
:1034800000140140D015002070470000F8B5044634
:1034900022681068D168536900F00F06002E08D129
:1034A000850606D58D0604D52046BDE8F84005F012
:1034B000B5B90025002E66D003F0010601F490771F
:1034C000374360D0C20705D0CA0503D5226C42F04D
:1034D00001022264420705D5DA0703D0226C42F0CC
:1034E00002022264820705D5DA0703D0226C42F07B
:1034F00004022264020707D501F02002324303D000
:10350000226C42F008022264226C002A31D080062C
:1035100004D5880602D5204605F080F92068406968
:10352000C0F38010216C090700D438B3204605F0A1
:1035300014FA2068406940061CD52068143050E811
:10354000001F21F0400140E80012002AF5D1A06BD5
:1035500060B157490165A06BFDF7B8FF002808D09E
:10356000A06B016D01B0BDE8F04008472046FFF7B1
:103570008BFFF8BD2046FFF787FFF8BD2046FFF719
:1035800083FF2564F8BD236B012B7ED1C3067CD558
:10359000CB067AD510685068009050694FF0200330
:1035A000400643D5A16B0868406880B20028E9D086
:1035B000A28D8242E6D9E085C869B0F5807F2DD022
:1035C00020680C3050E8001F21F4807140E80012A0
:1035D000002AF5D12068143050E8001F21F00101C5
:1035E00040E80012002AF5D12068143050E8001F8E
:1035F00021F0400140E80012002AF5D184F83E3065
:10360000256320680C3050E8001F21F0100140E8CD
:103610000012002AF5D1A06BFDF711FFA08DE18DFE
:10362000401A81B22046FFF7ADFEF8BDA08DE18DB6
:10363000401A81B2E08D0028F7D00029F5D020682B
:103640000C3050E8002F22F4907240E80026002E43
:10365000F5D12068143050E8002F22F0010240E834
:103660000026002EF5D184F83E30256320680C300A
:1036700050E8002F22F0100240E80023002BF5D183
:103680002046FFF77FFEF8BDFFE7020606D50A06D3
:1036900004D52046BDE8F84005F023B94006F2D530
:1036A0004806F0D52046BDE8F84005F0CCB900004A
:1036B000618A000870B50446002C04D094F83D00DF
:1036C000002510B106E0012070BD84F83C50204672
:1036D00000F022F8242084F83D002068C16821F41D
:1036E0000051C160204605F00FF82068016921F4FF
:1036F000904101612068416921F02A0141612068FF
:10370000C16841F40051C1602564202084F83D0067
:1037100084F83E00002070BD2DE9F04F87B00446CC
:10372000142102A8FDF7F0FBA0499F4A1039206838
:103730009E4B022700250E154FF003084FF0080B93
:103740004FF00069904252D1186840F48010186020
:10375000186800F480100190086840F004000860C8
:10376000086800F004000190086840F00800086054
:10377000086800F0080001908814029003970495EF
:10378000CDF81480CDF818B002A98948FEF75AF890
:103790000420029003970495CDF81480CDF818B05A
:1037A00002A98448FEF74EF8844F83483860C7F872
:1037B00004904020B860FD603E617D61BD61FD61A7
:1037C0004FF4403038627D623846FDF779FF08B12A
:1037D000FDF733FE6763BC63002211463520FEF718
:1037E0009BF93520FEF78AF907B0BDE8F08F6F4AE4
:1037F000DFF8CCE1121D4FF0070C4FF4003A704592
:103800003CD1106840F010001060106800F010000B
:103810000190086840F001000860086800F00100AD
:1038200001904FF4C060029003970495CDF8148086
:10383000CDF818C002A96348FEF704F85F4F62484C
:1038400060373860C7F80490BD60FD603E617D61FF
:10385000BD61FD61C7F820A07D623846FDF730FFED
:1038600008B1FDF7EAFDA763BC63002211462520DD
:10387000FEF752F92520FEF741F9B5E7DFF84CE1F4
:1038800070453DD1186840F400301860186800F4A5
:1038900000300190086840F008000860086800F0F7
:1038A000080001906020029003970495CDF81480E1
:1038B000CDF818C002A93F48FDF7C4FF3E483F4F6E
:1038C0003038C0373860C7F80490BD60FD603E6195
:1038D0007D61BD61FD614FF4403038627D623846E4
:1038E000FDF7EEFE08B1FDF7A8FDA763BC6300225B
:1038F00011462620FEF710F92620FEF7FFF873E7A1
:10390000334B9842B9D1106840F020001060106825
:1039100000F020000190086840F04000086008684E
:1039200000F0400001904FF484400290039704950A
:10393000CDF81480CDF818B002A92648FDF782FF13
:103940002148254F183838604FF02068C7F80480A8
:10395000BD60FD603E617D61BD61FD61C7F820A075
:103960007D623846FDF7ACFE08B1FDF766FDA76342
:10397000BC631548184F603060373860C7F8048062
:103980004020B860FD603E617D61BD61FD618002E7
:1039900038627D623846FDF793FE08B1FDF74DFDB4
:1039A0006763BC6320E700000050004040380240DD
:1039B00000080240000C0240B8600240BC07002032
:1039C00000100140000002404064024000440040FA
:1039D0000014014000180240DC08002090F83E303E
:1039E000202B01D00220704759B152B190F83C30E1
:1039F000012B08D0012380F83C300023036300F042
:103A00008BBE0120704702207047000010B500688F
:103A10000D4988420AD113210C4801F009FABDE88A
:103A20001040132209490A48FFF7D8BF09498842C4
:103A300009D10948D0F8FC1ABDE8104084310222AF
:103A40000648FFF7CBBF10BD00100140DC15002079
:103A5000F00600200050004000160020AC060020B8
:103A600070472DE9F84304460E4615461F4694F864
:103A70003D00202802D00220BDE8F883C6B1BDB1C8
:103A800094F83C00012815D0012084F83C004FF048
:103A90000009C4F84090212084F83D00FDF7CAFFDA
:103AA0008046A584E584A068B0F5805F04D005E079
:103AB0000120E1E70220DFE7206920B1354600263A
:103AC00084F83C9013E00025FAE743460022802169
:103AD0002046009704F0CCFF08B10320CCE79DB14D
:103AE000216815F8010B4860E08C401EE084E08CF2
:103AF0000028EAD14346002240212046009704F0E6
:103B0000B7FF40B10320B7E736F8020B2168C0F3D6
:103B100008004860E8E7202084F83D000020ABE77B
:103B20007047FEE708B52148016841F48001016053
:103B3000016801F480010091016841F40011016005
:103B4000006800F400100090002201210F20FDF712
:103B5000E3FF0F20FDF7D2FF002211461020FDF7F2
:103B6000DBFF1020FDF7CAFF002201212F20FDF707
:103B7000D3FF2F20FDF7C2FF002211463920FDF7A9
:103B8000CBFF3920FDF7BAFF002211463A20FDF79E
:103B9000C3FF3A20FDF7B2FF002201214520FDF7C7
:103BA000BBFFBDE808404520FDF7A8BF3038024004
:103BB0002DE9F04F87B0142102A8FDF7A5F90026E2
:103BC0006B48016841F010010160016801F01001CB
:103BD0000191016841F002010160016801F00201F8
:103BE0000191016841F040010160016801F040016C
:103BF0000191016841F004010160016801F00401D4
:103C00000191016841F001010160016801F00101C9
:103C10000191016841F008010160016801F00801AB
:103C20000191016841F480710160016801F48071C3
:103C30000191016841F080010160016801F080019B
:103C40000191016841F020010160006800F020004E
:103C50000190DFF820A1012211465046FDF7E2FE57
:103C6000DFF814B14FF48078012241465846FDF741
:103C7000D9FE4FF4C059002249464048FDF7D2FE14
:103C8000012240213E48FDF7CDFE022502954FF46A
:103C9000041703970124049402A95046FDF7D2FDAE
:103CA000029403940494059502A95046FDF7CAFDB9
:103CB000CDF8088003940494059502A95846FDF7B1
:103CC000C1FD600202900397049402A95846FDF7D3
:103CD000B9FD4FF00308CDF8088003950496CDF8A0
:103CE00014804FF0090ACDF818A002A92548FDF765
:103CF000A9FDCDF8089003940496059602A91F48E3
:103D0000FDF7A0FD4026029603940494059402A9B1
:103D10001B48FDF797FD0296039504940595CDF891
:103D2000188002A91848FDF78DFDCDF808A003976B
:103D3000049402A91248FDF785FD00220221062005
:103D4000FDF7EAFE0620FDF7D9FE00220121092039
:103D5000FDF7E2FE0920FDF7D1FE00220121172028
:103D6000FDF7DAFE1720FDF7C9FE07B0BDE8F08FBA
:103D700030380240001002400004024000000240BF
:103D800000180240000C02400014024010B5104818
:103D90000E4901604FF48271416000218160C16071
:103DA0000222026101224261520282613822C26112
:103DB0000162416281620A21C162FEF7BCF90028FA
:103DC00003D0BDE81040FDF738BB10BD0030014006
:103DD0003C02002010B510480E4901604FF482717A
:103DE00041604FF4004181600021C1600161416187
:103DF0004FF400728261C1610162416281620A21F5
:103E0000C162FEF798F9002803D0BDE81040FDF725
:103E100014BB10BD003800409402002010B58CB0D7
:103E20000024089409940A940B941C2101A8FDF71E
:103E30006BF81E481C49016053214160846041F2C7
:103E40008731C16004618461FEF7C4FC08B1FDF7ED
:103E5000F4FA4FF48050089008A91448FEF7B0FD1A
:103E600008B1FDF7EAFA1148FFF745F908B1FDF787
:103E7000E4FA60200190029403940594002201A9C1
:103E80000A48FFF7CCF808B1FDF7D7FA042201A9D8
:103E90000648FFF7C4F808B1FDF7CFFA0348FFF76B
:103EA00001F80CB010BD000000180040D40500203F
:103EB00010B588B01C2101A8FDF726F81548144953
:103EC0000160532141600024846044F61F61C16099
:103ED00004618461FEF77EFC08B1FDF7AEFA0D487F
:103EE000FFF709F908B1FDF7A8FA602001900294E4
:103EF00003940594002201A90648FFF790F808B141
:103F0000FDF79BFA0348FEF7CDFF08B010BD000097
:103F1000001C00401C06002010B588B01C2101A820
:103F2000FCF7F2FF15481449016053214160002459
:103F3000846044F61F61C16004618461FEF74AFC3D
:103F400008B1FDF77AFA0D48FFF7D5F808B1FDF78B
:103F500074FA60200190029403940594002201A950
:103F60000648FFF75CF808B1FDF767FA0348FEF76B
:103F700099FF08B010BD000000200040640600203A
:103F800010B58CB0242103A8FCF7BEFF00240194D7
:103F90000294154813490160446084604FF6FF7134
:103FA000C160046144618461032003900494012092
:103FB000059006940794089409900A940B9403A919
:103FC0000948FEF771FD08B1FDF737FA0194029434
:103FD00001A90548FEF7B6FB002801D0FDF72DFA30
:103FE0000CB010BD000001404C03002010B58CB097
:103FF000242103A8FCF788FF0024019402941448AC
:104000004FF080410160446084604FF6FF71C160F1
:1040100004618461032003900494012005900694B8
:104020000794089409900A940B9403A90848FEF792
:104030003BFD08B1FDF701FA0194029401A904487F
:10404000FEF780FB002801D0FDF7F7F90CB010BD9A
:104050009403002010B58CB0242103A8FCF754FF72
:10406000002401940294154813490160446084605F
:104070004FF6FF71C16004618461032003900494D2
:104080000120059006940794089409900A940B94D3
:1040900003A90A48FEF708FD08B1FDF7CEF901941F
:1040A000029401A90548FEF74DFB002801D0FDF759
:1040B000C4F90CB010BD000000040040DC03002077
:1040C00010B58CB0242103A8FCF71EFF0024019436
:1040D0000294154813490160446084604FF6FF71F3
:1040E000C160046184610320039004940120059061
:1040F00006940794089409900A940B9403A90A481B
:10410000FEF7D2FC08B1FDF798F90194029401A9D9
:104110000548FEF717FB002801D0FDF78EF90CB01B
:1041200010BD0000000800402404002010B58EB02F
:1041300000240A940B940C940D94089409941C2167
:1041400001A8FCF7E1FE2A4828490160532141609B
:10415000846044F61F61C16004618461FEF73AFB2C
:1041600008B1FDF76AF94FF480500A900AA9204877
:10417000FEF726FC08B1FDF760F91D48FEF7BBFF0E
:1041800008B1FDF75AF90894099408A91848FEF7F0
:10419000D9FA08B1FDF751F9602001900294039417
:1041A0000594002201A91248FEF739FF08B1FDF776
:1041B00044F9042201A90E48FEF731FF08B1FDF7CA
:1041C0003CF9082201A90A48FEF729FF08B1FDF7CA
:1041D00034F90C2201A90648FEF721FF08B1FDF7CA
:1041E0002CF90348FEF75EFE0EB010BD000C004037
:1041F0006C0400201CB50024009401940D480C4967
:10420000016053214160846040F2E731C160846104
:10421000FEF7E0FA08B1FDF710F900940194694641
:104220000448FEF78FFA002801D0FDF706F91CBDFF
:1042300000100040B40400201CB500240094019438
:104240000D480C49016053214160846041F287317F
:10425000C1608461FEF7BEFA08B1FDF7EEF8009484
:10426000019469460448FEF76DFA002801D0FDF775
:10427000E4F81CBD00140040FC04002010B596B00A
:1042800000241294139414941594109411941C21E6
:1042900009A8FCF739FE202101A8FCF735FE3448B7
:1042A00032490160A7214160846041F28731C160D9
:1042B000046144618461FEF78DFA08B1FDF7BDF831
:1042C0004FF48050129012A92948FEF779FB08B1EB
:1042D000FDF7B3F82648FEF70EFF08B1FDF7ADF87D
:1042E0001094119410A92248FEF72CFA08B1FDF79A
:1042F000A4F8602009900A940B940C940D940E94E9
:104300000F94002209A91A48FEF789FE08B1FDF7AB
:1043100094F8042209A91648FEF781FE08B1FDF7BA
:104320008CF8082209A91248FEF779FE08B1FDF7BA
:1043300084F80C2209A90E48FEF771FE08B1FDF7BA
:104340007CF8019402940394049405944FF4005073
:104350000690089401A90648FEF7C9F908B1FDF7CF
:104360006CF80348FEF79EFD16B010BD0004014036
:104370004405002010B58CB00024089409940A94D8
:104380000B941C2101A8FCF7BFFD194817490160D7
:104390004460846041F28731C16004618461FEF74A
:1043A00019FA08B1FDF749F84FF48050089008A9B0
:1043B0000F48FEF705FB08B1FDF73FF80C48FEF784
:1043C0009AFE08B1FDF739F8602001900294039439
:1043D0000594002201A90648FEF721FE08B1FDF769
:1043E0002CF80348FEF75EFD0CB010BD0040014004
:1043F0008C05002010B50C480A4901604FF4165195
:10440000416000218160C16001610C2242618161D3
:10441000C161FFF74FF9002803D0BDE81040FDF758
:104420000CB810BD00500040AC06002010B50C4880
:104430000A4901604FF41651416000218160C1605A
:1044400001610C2242618161C161FFF733F90028EB
:1044500003D0BDE81040FCF7F0BF10BD00100140D4
:10446000F006002010B50C480A4901604FF41651BF
:10447000416000218160C16001610C224261816163
:10448000C161FFF717F9002803D0BDE81040FCF721
:10449000D4BF10BD004400403407002010B50C48C4
:1044A0000A4901604FF4E131416000218160C1603F
:1044B00001610C2242618161C161FFF7FBF80028B4
:1044C00003D0BDE81040FCF7B8BF10BD0014014098
:1044D00078070020FEE7FEE770477047FDF7B0BAA7
:1044E0000248016841F470010160704788ED00E006
:1044F0000148FEF720BC0000B40400200148FEF78C
:104500001ABC0000FC0400202DE9F0410268264D91
:10451000264E274FDFF89CC0274B4FF08048A8421B
:1045200009D0404507D0B04205D0B84203D060451D
:1045300001D0984203D122F070044A682243A84275
:104540001BD0404519D0B04217D0B84215D06045B5
:1045500013D0984211D0194CA0420ED0184CA04252
:104560000BD0184CA04208D0174CA04205D0174CD5
:10457000A04202D0164CA04203D122F44074CA6873
:1045800022434C6922F08002224302608A68C262A0
:104590000A688262A84201D0984201D10969016388
:1045A00001214161BDE8F0810000014000040040AC
:1045B00000080040000C00400004014000400140A1
:1045C000004401400048014000180040001C004029
:1045D0000020004010B501F01F0101238B40046A48
:1045E0009C430462036A8A401343036210BD10B502
:1045F000846824F47F4442EA03220A43224382600F
:1046000010BD0000F0B5026A22F010020262036AD7
:104610004268846924F4E04424F440740D6844EA58
:10462000052423F020038D6843EA0513104D114E35
:10463000A84201D0B04206D123F08003CF6843EAFC
:10464000071323F04003A84201D0B04209D122F45D
:10465000806222F400624D6942EA85028D6942EA75
:10466000850242608461496881630362F0BD000095
:1046700000000140000401400148FEF707BF0000B0
:10468000AC06002037B582B004461346039AA262F6
:10469000A38500252564222084F83E00A16B1B48D9
:1046A000C863A16B1A480864A16B1A48C864A06B60
:1046B00005652168A06B091DFDF76CF8206801688D
:1046C0004068019084F83C5020680C3050E8001F8E
:1046D00041F4807140E80012002AF5D120681430BE
:1046E00050E8001F41F0010140E80012002AF5D116
:1046F0002068143050E8001F41F0400140E80012EB
:10470000002AF5D105B0002030BD0000C5890008A1
:1047100041890008BF86000881628285C285002128
:104720000164222280F83E2080F83C100168CA68AB
:1047300042F48072CA6001684A6942F001024A612B
:104740000068C16841F02001C1600020704700008E
:104750000148FEF79BBE0000F00600200148FEF76E
:1047600095BE000034070020FEE7000000B52DEDE7
:10477000028B81B00D49496800910168009A511A75
:1047800000EE101A0A49F8EE400A91ED000AB8EE60
:10479000400A80EE808A0099016003F061F901B05F
:1047A000B0EE480ABDEC028B00BD0000001000E036
:1047B0000C020020FF23FFF754B92DE9F041074612
:1047C0000D4600240026002028603846FCF7E4FA55
:1047D00030230FE0721CAB55511CAB543A5D03EB18
:1047E00012164A1C6E54395D01F00F013031561C0F
:1047F000A954641C8442EDDBBDE8F08110B500F0E3
:104800001FF80C489FED0C1A818890ED000A00EE0D
:10481000901AC088B8EE400AF8EE600A00EE810AED
:1048200000EE900A9FED051AF8EE600A00EE810A8C
:1048300010BD0000040200206F12833ABD37863598
:104840002DE9F04703F00CF91F48204F4FF0FF33DC
:104850000268386800263146E2FB03011C49086003
:104860001C4934460968B0FBF1F3C7E90236A3FBE3
:10487000012504FB015103FB0614801A66EB0401B9
:1048800004460D46C7E90401DFF84C80C8F8003043
:10489000124800232946D0F8009020464A46FCF7EB
:1048A00004FA82B2A8F8042002FB09F2A01A65EB10
:1048B0000601C7E906010A4A00231268FCF7F5F968
:1048C000A8F80600BDE8F087180200207800002054
:1048D000200200200C020020040200201002002010
:1048E000140200202DE9F04704460D4617461E46E7
:1048F000DFF8E4830420A8F800000820A8F80200EC
:1049000025736773A6734FF0000984F81090304642
:10491000FCF79CF960613146FCF7D4FAB8F8000066
:104920007043FCF793F9A061B8F800107143FCF7ED
:10493000EBFAB8F800007043FCF788F9E061B8F8CA
:1049400000107143FCF7E0FAB8F800006843FCF788
:104950007DF92062B8F800106943FCF7D5FA3046BB
:10496000FCF774F960623146FCF7ACFAB8F8000065
:104970006843FCF76BF92060B8F800106943FCF756
:10498000C3FAB8F800007043FCF760F96060B8F84B
:1049900000107143FCF7B8FAB8F800007843FCF750
:1049A00055F9A060B8F800107943FCF7ADFAB8F8F3
:1049B00000006843FCF74AF9C4F8E800B8F80010B2
:1049C0006943FCF7A1FA217B012204F13000D4F8FD
:1049D000E830FBF7F3FCB8F800006843FCF736F961
:1049E000C4F8EC00B8F800106943FCF78DFA217B9D
:1049F000012204F13800D4F8EC30FBF7DFFC9FB162
:104A0000B8F800007843FCF721F9C4F8F000B8F8D2
:104A100000107943FCF778FA617B012204F1400031
:104A2000D4F8F030FBF7CAFCB8F800007043FCF78C
:104A30000DF9C4F8F400B8F800107143FCF764FAFB
:104A4000A17B012204F14800D4F8F430FBF7B6FC56
:104A5000B8F8000068436843FCF7F8F8C4F8F800B9
:104A6000B8F8001069436943FCF74EFA217B04F162
:104A700050000A46D4F8F830FBF7A0FCB8F8000064
:104A800068436843FCF7E2F8C4F8FC00B8F800108B
:104A900069436943FCF738FA217B04F158000A4660
:104AA000D4F8FC30FBF78AFCB8F800006843684390
:104AB000FCF7CCF88834A067B8F800006843684376
:104AC000FCF7C4F8E067B8F80010A06F69436943C9
:104AD000FCF71AFAB8F80010E06F69436943FCF775
:104AE00013FA14F87C1CA36F883C0A4604F160009A
:104AF000FBF764FC217B04F168000A46D4F804311A
:104B0000FBF75CFCAFB1B8F8000068437843FCF7F2
:104B10009DF8C4F80801B8F8001069437943FCF720
:104B2000F3F9627B217B04F17000D4F80831FBF7C4
:104B300045FCB8F8000070436843FCF787F89434EC
:104B4000A067B8F8000068437043FCF77FF8E0679F
:104B5000B8F80010A06F71436943FCF7D5F9B8F8B5
:104B60000010E06F69437143FCF7CEF914F8882C0C
:104B700014F8861CA36F943C04F17800FBF71EFC2C
:104B8000A27B217B04F18000D4F81031FBF716FCE6
:104B9000B8F8000068436843FCF758F8C4F81401FB
:104BA000B8F8001069436943FCF7AEF9217B04F1C2
:104BB00088000A46D4F81431FBF700FCB8F800006E
:104BC00070437043FCF742F8C4F81801B8F80010BD
:104BD00071437143FCF798F9A17B04F190000A46F8
:104BE000D4F81831FBF7EAFBB8F8000068437043CB
:104BF000FCF72CF8C4F81C01B8F8001069437143A5
:104C0000FCF782F9A27B217B04F19800D4F81C31D7
:104C1000FBF7D4FB207B10FB00F0B8F800104843F2
:104C2000FCF714F8C4F82001207B10FB00F0B8F862
:104C300000104843FCF70AF8C4F82401207B10FB5D
:104C400000F0B8F800104843FCF700F8C4F8280159
:104C5000207BB8F800104843FBF7F8FFC4F82C019C
:104C6000207BB8F800104843FBF7F0FFC4F8300190
:104C7000217B04F1A0000A46D4F82031FBF79EFB0B
:104C8000217B04F1A8000A46D4F82431FBF796FBF7
:104C9000217B04F1B0000A46D4F82831FBF78EFBE3
:104CA000217B012204F1B800D4F82C31FBF786FBFC
:104CB000217B012204F1C000D4F83031FBF77EFBE8
:104CC00084F8289084F8299084F82A9084F82B900E
:104CD00084F82C90BDE8F087900100202DE9F04782
:104CE000044694F82A00002855D104F1800104F10B
:104CF00078000D460746FBF71FFF6C3484F85C0014
:104D0000A089A08734F8120CE0876C3C04F1A8025B
:104D100004F15801164688463846FBF7EBFD82340D
:104D200084F84600E08CE08520882086823C04F1EF
:104D3000B002174629463046FBF7DCFD903484F874
:104D400038002088208260886082903C04F1A002B4
:104D5000914604F190013846FBF7ACFAAA34A077EB
:104D600039464846FBF72EFBA07734F8520C24F85E
:104D7000020C34F8280C2080324629464046FBF7C6
:104D8000B9FDA077AA3C04F1980239463046FBF7FA
:104D9000B1FD84F8C800BDE8F087704730B593B026
:104DA000302107A8FCF7B0F8142102A8FCF7ACF8F2
:104DB00000251D48016841F080510160006800F045
:104DC000805001901948016841F4804101600068F9
:104DD00000F4804001900224079401200A901020E2
:104DE0000B900D940E9508200F90A8201090119410
:104DF0000720129007A8FCF7BDFF08B1FCF71DFBC8
:104E00000F200290039404954FF4A05005904FF4A6
:104E100080500690052102A8FCF7B0FE002801D0C2
:104E2000FCF70BFB13B030BD40380240007000406F
:104E300001460348406D00F52C6000F0C3BE000041
:104E4000A021002070B50446204600F06FF8D4F889
:104E5000CC1009B120468847204600F003FCD4F866
:104E6000D01009B120468847204600F0C5FBD4F891
:104E7000D41009B120468847207C2B4DC0B9E07B77
:104E8000B0B1227B28884243D4E93A01FBF7E8FF1E
:104E9000207B10FB00F228884243D4E93E01FBF757
:104EA000DFFFD4F8E01009B120468847002029E050
:104EB0002046FFF713FFD4F8D81009B120468847E1
:104EC000204600F059FBD4F8DC1009B12046884791
:104ED000204600F015F9E4E700FB0101D4F8F820C2
:104EE00002EB8101226AD1ED000A02EB800292ED11
:104EF000000AF4EEC00AF1EE10FA01D281ED000AC8
:104F0000401CC0B2217B8142E6D8227B2888D4F89D
:104F1000E81042432068FBF7A3FFD4F8E41009B17E
:104F200020468847206870BD9001002070B5044677
:104F30000F4DE07B002803D0204603F0C7F80DE0BA
:104F4000A27B288861684243D4F8F400FBF788FF0D
:104F5000A17B288841436068FBF7D6FF627B2888E5
:104F6000A1684243D4F8F000BDE87040FBF778BF79
:104F700090010020F8B5069C1F4E0568B54211D17E
:104F80001E4D69602A81A5F80A31A5F80C414FF43D
:104F90007A7105F18A0200910123A2F18001FDF7E7
:104FA000B9F9F8BD164F1E19BD4210D1154D6960F3
:104FB0002A81A5F80A31A5F80C4105F18A0201B051
:104FC000B3B2BDE8F040A2F18001FDF795BA0E4FF3
:104FD000BD42E6D10D4D69602A81A5F80A31A5F8D8
:104FE0000C4105F18A0201B0B3B2BDE8F040A2F174
:104FF0008001FDF781BA000000300140400C002024
:1050000000380040540D0020003C0040680E002095
:1050100001460348406D00F5316000F059BF0000C3
:10502000A021002070B504462DED028B01252570CE
:1050300084ED6C0AC4ED6D0A84ED6E1A9FED280AAA
:1050400084ED730A002084F83801D03400212167F0
:105050006167A167E167D03C11EE900AB7EE008A64
:10506000B0F17E5F01DDF0EE481AC4ED741A84EDF4
:10507000642A032300220621201DFFF733FC0122AE
:1050800004F5E473114604F5E070FBF797F98834F2
:10509000606E80ED008A606E9FED120A80ED010A5D
:1050A000606E80ED020A606E80ED030A0E48A06417
:1050B0000E48E0640E4820650E48606504F85A5CAE
:1050C00004F8595C90220C49E06FFBF7C9FE606F51
:1050D0009022BDEC028B0949BDE87040FBF7C0BED1
:1050E00077CC2B3200000000517B0008397F00088C
:1050F0008D7A0008857B00084CAC00080001002078
:105100002DE9F041044694F82C00002827D174348E
:10511000A08CA086E188E186A08734F81A0CE0878D
:10512000743C04F1A802154604F1780104F19800DA
:10513000FBF7E0FB84F8C80004F1B00204F1580169
:1051400016460F462846FBF7D5FB84F8C80004F145
:10515000500231463846FBF76BFC84F8C800BDE8C6
:10516000F081704770B504462DED088BB0EE40BA63
:10517000F0EE60AAB0EE41AAF0EE619AB0EE429A6B
:10518000F0EE628AB0EE438A207800280CD12046E7
:105190009FEDED2AF7EE001A9FEDEC1ADFEDEC0A19
:1051A000B2EE040AFFF73EFF04F5827484ED2E8A06
:1051B000D4ED171A7BEE611AC4ED1A1A94ED180A91
:1051C0003AEEC00A84ED1B0AD4ED190A7AEE600AA1
:1051D000C4ED1C0AB6EE001ADE4D61EE811A61EED6
:1051E000881AC5ED011A20EE010A20EE080A85EDA5
:1051F000020A20EE810A20EE080A85ED030A9022B9
:10520000D5492068FBF72CFE95ED010A2068B1EE28
:10521000402A80ED012AD5ED020A2068F1EE602ACD
:10522000C0ED022A95ED031A2068F1EE411AC0ED97
:10523000031A206880ED060A206880ED081A2068AD
:10524000C0ED092A2068C0ED0C0A2068C0ED0D1AD7
:10525000206880ED0F0A206880ED121A2068C0EDEA
:10526000130A206880ED142AD4E91101A4F5827490
:10527000084305D1C4ED5E9A84ED5F9AC4ED608A5F
:1052800094ED5E0AD4ED640A94ED6F1A20EE202AA4
:1052900031EE200AC2EE001A21EE292AC2EE002ABF
:1052A00071EEA22AC4ED5E2AD4ED5F1A21EEA02A87
:1052B000C2EE001A21EE092A82EE003A71EE831A3C
:1052C000C4ED5F1A94ED602A21EE281A22EE202AFE
:1052D000C2EE000A81EE002A70EE820AC4ED600A76
:1052E00022EEA20A01EEA10A00EEA00A02F0D8FE08
:1052F00085ED040A002004EB8001D1ED5E0AA1686F
:1053000060EE800A01EB8001C1ED000A401CC0B2D2
:105310000328F0D394ED5B0AD4ED5C0A20EE000A7A
:1053200000EEA00AD4ED5D0A00EEA00A02F0B8FE7D
:10533000B7EE009A89EE001A84ED651AD5ED040ADD
:1053400089EE200A84ED660A11EE100A834988422C
:105350000DDA10EE100A8249884208DD10EE100ABC
:105360008049884203DA012084F8390102E00020F4
:1053700084F8390104F58C7494ED260AD4ED290AD9
:10538000206820EE200A80ED000A94ED260AD4ED74
:10539000290A206820EE200A80ED070A94ED260AEB
:1053A000D4ED290A206820EE200A80ED0E0A94ED43
:1053B000260AD4ED290A206820EE200A80ED150A7D
:1053C00094ED270AD4ED290A206820EE200A80ED0A
:1053D0001C0A94ED270AD4ED290A206820EE200A41
:1053E00080ED230A606894ED280A80ED000A606869
:1053F00094ED280A80ED040A606894ED280AA4F56B
:105400008C7480ED080A201DFFF71CFD606890ED8C
:10541000001A84ED541A90ED010A84ED550A90EDBE
:10542000022A84ED562AD0ED031AC4ED571AD0EDA6
:10543000040AC4ED580AD0ED050AC4ED590AD5EDA9
:10544000000AC4ED5A0A61EE012A21EE211AB0EEDB
:10545000008AF0EE490A40EE002A00EE021A52EEEF
:10546000880A21EE080A04F0D7F8DFED3F8A20EE23
:10547000280A84ED6A0A94ED540A94ED571AF0EE66
:10548000490A60EE001A41EE011A51EE880AD4ED85
:10549000551A20EE210AD4ED561A01EE810A20EEAB
:1054A000080A04F0B9F820EE280A84ED690A94EDA0
:1054B000550AD4ED570A94ED561A20EE200AD4ED81
:1054C000540A00EEC10AF8EE000A20EE200A04F0A9
:1054D0000DF820EE280A84ED680A94ED6A0AD4EDEE
:1054E000760A224970EE600A10EE900A884205DDC5
:1054F000B4F8D401401EA4F8D40109E010EE900ADB
:105500001B49884204D9B4F8D401401CA4F8D40142
:1055100004F5A474DFED171AB4F98C0000EE900ABC
:10552000B8EEE01AF0EE400A41EE210AC4ED190A85
:1055300084ED240AD4E90001401C41F1000103C4B8
:10554000BDEC088B70BD0000000000008096184B79
:105550006F12833AB80000204CAC00089A99993E2B
:10556000CDCC1441CDCC2441E12E65420000344322
:10557000000034C30000B4432DE9F041044694F820
:105580002B00002836D1B4F87800A4F8B800012523
:10559000A4F8BA5004F1B80204F1380116460F46D7
:1055A00004F17800FBF7A6F9AA34A07734F8620C6E
:1055B000E0822583AA3C04F1C0029046314604F102
:1055C0004800FBF735FA983484F8300020882084AE
:1055D0006584983C3246414604F19800FBF78AF90D
:1055E00084F8C80004F1300231463846FAF762FE0A
:1055F00084F8C800BDE8F0812DE9F041044694F834
:10560000290000282CD104F1680104F160000D4646
:105610000746FBF791FA84F8C80004F158021646D1
:1056200004F150013846FBF765F984F8C800B4F876
:105630005800A4F8A800B4F86A00A4F8AA0004F17D
:10564000A802174629463046FBF754F984F8C800EB
:10565000324604F188013846FAF72CFE84F8C80077
:10566000BDE8F0812DE9F041044694F828000028B7
:105670002AD1627B04F1300104F1600004F13805A5
:1056800022B3227BA4F8B8200126A4F8BA6004F162
:10569000B8021746FBF72EF984F8C800207BA4F85F
:1056A000C000A4F8C26004F1C002164604F1400133
:1056B00004F17000FBF71EF904F8C80F2A463146C2
:1056C0003846FAF7F7FD2070BDE8F0812A46FBF76F
:1056D00011F984F8C800F7E770B50F490888401C35
:1056E00008800E4802F05EF80C48406D00F5B3608B
:1056F00003F034FB0A4800F07DFE0024084DC4EBA3
:10570000C40000EB400005EB0010543000F09AFAA2
:10571000641C042CF3DB70BD28020020A0210020B3
:105720000016002010B50B494888401C48800A48E4
:1057300000F032FE084890F8C40A002808D0074A52
:10574000BDE8104002F10B01A1F1450001F0B6B82F
:1057500010BD000028020020001600203621002085
:105760000D490A6842F080720A600C4900224A60C2
:105770000B6843F001030B6009494843094908607D
:105780004FF47A73B0FBF3F34B60054BB0FBF3F0CF
:105790008860CA6070470000FCED00E0001000E087
:1057A00040420F000C0200200C4B02689A4204D1C8
:1057B0000B4A1060C2F8101170470A4B9A4204D18C
:1057C000094A1060C2F810117047084B9A42FBD189
:1057D000074A1060C2F81011704700000030014005
:1057E000400C002000380040540D0020003C0040D8
:1057F000680E0020374B02689A4203D1364A106087
:1058000051607047B2F1804F07D0344B9A4209D1B2
:10581000314A10321060516070472F4A08321060D0
:10582000516070472E4B9A4204D12B4A18321060B7
:10583000516070472B4B9A4204D1274A20321060A6
:1058400051607047284B9A4204D1234A2832106095
:1058500051607047254B9A4204D11F4A3032106084
:1058600051607047224B9A4204D11B4A3832106073
:10587000516070471F4B9A4204D1174A4032106062
:10588000516070471C4B9A4204D1134A4832106051
:1058900051607047194B9A4204D10F4A5032106040
:1058A00051607047164B9A4204D10B4A583210602F
:1058B00051607047134B9A4204D1074A603210601E
:1058C00051607047104B9A42FBD1034A6832106016
:1058D0005160704700000140940100200004004026
:1058E00000080040000C0040001000400014004080
:1058F00000040140004001400044014000480140D4
:1059000000180040001C0040002000400A48416888
:105910000A4AD2ED000A4268521AF8EE601A01EE05
:10592000102AB8EE411A60EE211AB4EEE11AF1EE37
:1059300010FAF0D370470000001000E00C020020C5
:1059400010B5A820FFF70CFF37493848FFF752FF82
:1059500037493848FFF74EFF37493848FFF724FFEB
:1059600013223749374800F08DF81422364937485A
:1059700000F088F802223649364800F083F83648AD
:1059800000F53A64606500220821204603F0CAF859
:10599000606D00F03BFC00213048FDF7D3FB002197
:1059A0002F48FDF7CFFB00212E48FDF7CBFB04214C
:1059B0002C48FDF7C7FB08212A48FDF7C3FB0C2143
:1059C0002848FDF7BFFB00212748FDF7BBFB04215A
:1059D0002548FDF7B7FB00212448FDF7B3FB042160
:1059E0002248FDF7AFFB08212048FDF7ABFB0C2157
:1059F0001E48FDF7A7FB3C211D48FDF747F93C2158
:105A00001C48FDF743F93C211B48FDF73FF93C21B9
:105A10001A48FDF73BF90548FCF78CFFBDE810403C
:105A20000448FCF787BF0000D9560008B4040020E2
:105A300025570008FC040020635100083C020020A8
:105A4000314E0008F00600201150000834070020F5
:105A50009B4D0008AC0600200016002064060020C4
:105A60001C0600206C040020D40500204405002002
:105A70004C03002094030020DC03002024040020B9
:105A80007047000030B42B4C0368A3420AD12A4B64
:105A90001860C3F80C11A3F8042130BC03F5CC61E5
:105AA000FDF79CBF254CA3420AD1254B1860C3F8D3
:105AB0000C11A3F8042130BC03F18401FDF731BCC3
:105AC000204CA3420AD1204B1860C3F80C11A3F854
:105AD000042130BC03F18401FDF723BC1B4CA3421D
