:020000040800F2
:100000005840002075020008C3450008E33B000883
:10001000C1450008D91300086D4800080000000021
:10002000000000000000000000000000C7450008BC
:100030002514000800000000C5450008C945000857
:100040008F0200088F0200088F0200088F0200084C
:100050008F0200088F020008271400088F02000892
:100060008F0200082D1400088F0200088F0200087C
:100070008F0200088F0200088F020008DD130008BD
:10008000E91300088F0200088F0200088F020008A1
:100090008F0200088F0200088F0200083314000846
:1000A0008F0200088F0200088F0200088F020008EC
:1000B0008F0200088F0200088F0200088F020008DC
:1000C0008F0200088F0200088F0200088F020008CC
:1000D0008F0200083D480008494800088F020008C8
:1000E0008F0200088F0200088F0200088F020008AC
:1000F0008F0200088F0200088F020008F513000825
:100100008F0200088F0200088F0200088F0200088B
:100110008F02000865470008DD450008E945000832
:100120008F020008011400080D1400088F02000857
:100130008F0200088F0200088F0200088F0200085B
:100140008F0200088F0200088F0200088F0200084B
:100150008F020008191400088F0200088F0200089F
:100160008F0200088F0200088F0200088F0200082B
:100170008F0200088F0200088F02000800000000B4
:100180008F0200088F02000800F002F800F062F809
:100190000AA090E8000C82448344AAF10107DA45E2
:1001A00001D100F057F8AFF2090EBAE80F0013F0D2
:1001B000010F18BFFB1A43F001031847A8AE000057
:1001C000C8AE00000A444FF0000C10F8013B13F0D9
:1001D000070408BF10F8014B1D1108BF10F8015BA0
:1001E000641E05D010F8016B641E01F8016BF9D193
:1001F00013F0080F1EBF10F8014BAD1C0C1B09D1EA
:100200006D1E58BF01F801CBFAD505E014F8016B5B
:1002100001F8016B6D1EF9D59142D6D370470000ED
:100220000023002400250026103A28BF78C1FBD8FF
:10023000520728BF30C148BF0B6070471FB50AF096
:1002400043FD9DE8030000F0BBFE00F087FE1FBDEC
:1002500010B510BD00F06DFF1146FFF7EFFF09F07C
:100260000BFD00F08BFF03B4FFF7F2FF03BC00F0BF
:10027000F5FF00000948804709480047FEE7FEE710
:10028000FEE7FEE7FEE7FEE7FEE7FEE7FEE7FEE746
:1002900004480549054A064B70470000CD45000853
:1002A00089010008582200205840002058310020C1
:1002B0005831002070B405880E884468D1F804C015
:1002C0005368B54208D140884988884201BF1188E7
:1002D0008D425188884203D070BC6FF00200704795
:1002E00005FB00F1880827D094ED001ADCED000A28
:1002F00094ED010ADCED011A31EE201AD4ED020A68
:1003000070EE211A9CED020A83ED001AC3ED011A6A
:1003100094ED031ADCED031A30EE800A401E71EEF4
:10032000210A83ED020A04F11004C3ED030A03F16C
:1003300010030CF1100CD7D111F0030030D0B0F144
:10034000004F30D200282BDD211F1B1FACF104020F
:1003500010F0010F0AD091ED010AD2ED010A091D3A
:10036000121D30EE200A83ED010A1B1D400817D034
:1003700091ED010AD2ED010A401E30EE200A83ED14
:10038000010A91ED020AD2ED020A01F1080102F11F
:10039000080230EE200A83ED020A03F10803E7D1D8
:1003A00070BC00207047B4EC010A401EFCEC010A4E
:1003B00030EE200AA3EC010AF5D1F1E7018042807A
:1003C000436070472DE9F34F84B004984068009073
:1003D000486801900498B0F800E04588DFEDFE0A17
:1003E00000200290B0EE600AAE4506D10888498828
:1003F000884204BF7146864504D06FF0020006B003
:10040000BDE8F08F01985FEA010C18BFB7EE001A43
:100410003DD000BFBEEB0C0117D0B1F1004F80F012
:100420001F82002911DD021F11F0010F1CBFC2ED58
:10043000010A121D4B1006D0C2ED010AC2ED020ADC
:1004400008325B1EF8D100EB8100BCF10102A0EC88
:10045000011A19D0B2F1004F80F00882002A13DD92
:10046000031F12F0010F1CBFC3ED010A1B1D511029
:1004700008D000BFC3ED010AC3ED020A491E03F113
:100480000803F7D100EB8200BCF1010CC2D14FF0A0
:1004900000080395002D14BFB0EE602A002000F084
:1004A000BF8100BF009908FB05F001EB800B0199AB
:1004B000DBED002A01EB80000346F0EE421AC64550
:1004C00052D9AEEB0802ABEB850112F0010F17D049
:1004D00001EB850191ED000AB5EEC00AF1EE10FACC
:1004E00007DDB4EEE10AF1EE10FA09DDF0EE401A94
:1004F00006E0B1EE400AF4EEC01AF1EE10FAF5D3C0
:10050000521031D001EB850C9CED000AB5EEC00A0B
:10051000F1EE10FA05DDB4EEE10AF1EE10FA09DDB4
:1005200006E0B1EE400AF4EEC01AF1EE10FA01D284
:10053000F0EE401A01EBC50191ED000AB5EEC00ADC
:10054000F1EE10FA05DDB4EEE10AF1EE10FA09DD84
:1005500006E0B1EE400AF4EEC01AF1EE10FA01D254
:10056000F0EE401A521ECDD1F5EEC01AF1EE10FA9F
:1005700000F07381F5EEC02A0126F1EE10FA009921
:10058000D4BFB1EE620AB0EE620AB4EE610AF1EED7
:1005900010FA1CBFAEEB0802B2F1010C47D005FB0C
:1005A00008F201EB820292ED001A00BFB0EE410AA0
:1005B00005FB06F4B5EEC00A00EB8404F1EE10FA78
:1005C000CCBFF0EE400AF1EE400AF4EE610AF1EE23
:1005D00010FA28D1B5EB080C11D0BCF1004F7DD238
:1005E000BCF1000F0BDD00BF92ED000AD1ED000A57
:1005F000BCF1010CE2EC010AA1EC010AF4D12900E2
:100600000ED0B1F1004F6AD2002909DD94ED000A45
:10061000D0ED000A491EE4EC010AA0EC010AF5D174
:10062000012002900BE0761CBCF1010CBED10298B7
:10063000012804D0F5EEC02AF1EE10FA7ED09BED31
:10064000000AB5EB08009A465946064622D0B0F19A
:10065000004F74D200281DDD091F10F0010F06D0D5
:10066000F0EE400A80EEA01A81ED011A091D40103B
:1006700010D000BFD1ED010A401E80EE801A81ED3E
:10068000011A91ED021AC1EE000AC1ED020A01F150
:100690000801EFD1280026D0B0F1004F7ED200280B
:1006A00021DDAAF1040110F0010F06D0D1ED010AFD
:1006B00080EE801A81ED011A091D401013D000BF91
:1006C000D1ED010A401E80EE801A81ED011AD1EDB4
:1006D000020A80EE801A81ED021A01E0CBE0D6E03A
:1006E00001F10801ECD1DDE900124FF000095FEAE9
:1006F0000E0773D0C14504BF01EB860102EB8502F2
:1007000074D091ED000ADC465046331E35D01C46AD
:10071000B6F1004F7ED2002C2FDD0B1FABF1040C85
:1007200016F0010F0FD0F0EE400ADCED011AB0EE2A
:10073000601A00EEE11A83ED011A01E08DE0B1E0EC
:100740001B1D0CF1040C741015D000BFD3ED010A71
:100750009CED011A40EE410AC3ED010AD3ED020AF5
:100760009CED021A0CF1080C40EE410AC3ED020A9E
:100770000833641EEAD101EB86012B0036D0B3F1B9
:10078000004F72D2002B31DDA2F1040CAAF104005B
:1007900013F0010F0CD0DCED010A00E08BE090EDCE
:1007A000011A001D40EE410ACCED010A0CF1040CC7
:1007B0005C1019D0DCED010A90ED011A40EE410AFF
:1007C000CCED010ADCED020A90ED021A083040EE91
:1007D000410ACCED020A03E0000000000DE005E054
:1007E000641E0CF1080CE5D102EB830201EB8801D9
:1007F0007F1E09F101097FF47DAF009808F101081F
:10080000001D00900398401E03907FF44BAE0299A8
:10081000012900E058E004BF06B0BDE8F08F00BF3A
:10082000B5EEC00AF1EE10FA7FF4E9AD04990EFBC3
:1008300005F3002B4A684FF000010BD902EB810C45
:100840009CED000AB5EEC00AF1EE10FA02D1491C87
:100850008B42F3D88B427FF4D2AD6FF00400CEE52B
:10086000E0EC010A491EFBD1EFE538E0E0EC010ABB
:10087000521EFBD108E692ED000AD1ED000ABCF150
:10088000010CE2EC010AA1EC010AF4D1B7E694ED07
:10089000000AD0ED000A491EE4EC010AA0EC010AAE
:1008A000F5D1BDE6D1ED000A401E80EE801AA1EC24
:1008B000011AF7D1EEE6D3ED000A401E80EE801A51
:1008C000A3EC011AF7D10EE7BCEC011AD1ED000A36
:1008D0005B1E40EE410AE1EC010AF5D14DE7B0ECB8
:1008E000011AD2ED000A5B1E40EE410AE2EC010A59
:1008F000F5D17BE72DE9F04F82B04668536801934C
:10090000058847884B88002000900888874201BFEF
:10091000B2F800C06545528893421EBF6FF00200D6
:1009200002B0BDE8F08F9FED412A4FEA970EC7F362
:10093000400B00BFDDE9000202EB800A4A689846DE
:100940004FF00009B0EE420AB4465FEA0E0025D02F
:1009500092ED001ADCED001A02EB8302DCED010AD5
:1009600001EE810A92ED001A02EB8302401ED2EDE5
:10097000001A02EB830200EE810A9CED021ADCED04
:10098000030A00040CF1100C000C01EE210A92ED98
:10099000001A02EB830200EE810AD9D117F003009E
:1009A00026D0ACF10404A2EB830210F0010F08D0B2
:1009B00002EB8302D4ED010A92ED001A241D00EE31
:1009C000810A5FEA0B0013D002EB830CD4ED010A1D
:1009D0009CED001A02EBC302401E00EE810AD4ED2A
:1009E000020A92ED001A04F1080400EE810AEBD12C
:1009F00009F10100AAEC010A1FFA80F9486800EB2E
:100A00008902A8F101001FFA80F8B8F1000F99D10E
:100A1000009806EB8706184480B20090681E050413
:100A20002D0C87D102B00020BDE8F08F000000003F
:100A300070B405880E884468D1F804C05368B54284
:100A400008D140884988884201BF11888D42518869
:100A5000884203D070BC6FF00200704705FB00F1C4
:100A6000880827D094ED001ADCED000A94ED010A05
:100A7000DCED011A31EE601AD4ED020A70EE611A53
:100A80009CED020A83ED001AC3ED011A94ED031ADE
:100A9000DCED031A30EEC00A401E71EE610A83EDF0
:100AA000020A04F11004C3ED030A03F110030CF170
:100AB000100CD7D111F0030030D0B0F1004F30D27C
:100AC00000282BDD211F1B1FACF1040210F0010FC9
:100AD0000AD091ED010AD2ED010A091D121D30EE76
:100AE000600A83ED010A1B1D400817D091ED010A31
:100AF000D2ED010A401E30EE600A83ED010A91ED4D
:100B0000020AD2ED020A01F1080102F1080230EEF8
:100B1000600A83ED020A03F10803E7D170BC0020EC
:100B20007047B4EC010A401EFCEC010A30EE600A8A
:100B3000A3EC010AF5D1F1E72DE9F04F02884768EF
:100B4000B0F802804888D1F8049082B04FF0000AD3
:100B50001646824207BF098888456FF0020002B03E
:100B600018BFBDE8F08F4FEA980B02EB42000190EE
:100B7000C8F34000CDF8000009EB8A01BBF1000F7B
:100B800033D0019801EB820C01EB80043B46E64632
:100B900001EBC2054FEA0B0093ED000A401E81ED08
:100BA000000A93ED010A01EB02118CED000A93EDAE
:100BB000020A0CEB021C85ED000A93ED030A05EB1B
:100BC000021584ED000A04EB021403F11003E3D1D3
:100BD0000EEB820000EB820000EB8201ABF1010022
:100BE000504307EB0B1701EB001118F0030C21D059
:100BF0003B1FA1EB82011CF0010F06D093ED010A0F
:100C000001EB82011B1D81ED000A009880B100BF3D
:100C100093ED010A01EB820401EBC20184ED000AAD
:100C200093ED020A401E81ED000A03F10803EFD1A3
:100C300007EB8C070AF101001FFA80FA701E060408
:100C4000360C99D102B00020BDE8F08F70B5064691
:100C500000F096F9056806F10B0020F00704B44295
:100C60009CBF002070BD2B466A68BAB11068A042D4
:100C700010D304F1080188423CBF5068586007D384
:100C80005168101941601168091B016058601460B7
:100C9000101D70BD13465268002AE7D12146284630
:100CA00000F07AF90028DED170BD53EA020C00F0A2
:100CB00069802DE9F04B4FF00006002B1FBFB3FAFF
:100CC00083F503FA05F424FA05F65E4012BF1643D5
:100CD000B2FA82F502FA05F4C5F120051EBF22FA28
:100CE00005FC44EA0C04203556EA044C4FEA14444F
:100CF00018BF641C4FF000084FF00009904271EBE0
:100D0000030C39D3002919BFB1FA81F701FA07F6AC
:100D1000B0FA80F700FA07F6C7F120071EBF20FAE5
:100D200007FC46EA0C062037B6FBF4FCA7EB0507E8
:100D3000103F07F01F0BCBF120060CFA0BFB2CFA2F
:100D400006F644BFB3460026202FA4BF5E464FF0F0
:100D5000000B5BEA060C08BF4FF0010B19EB0B0907
:100D6000ABFB027C48EB0608C01B06FB02CC0BFB6E
:100D700003CC71EB0C01C1E70B46024641464846E5
:100D8000BDE8F08B13B54FF000004FF00001AFF35A
:100D90000080BDE81C40704710B5431C02E010F80D
:100DA000011B71B18107FAD14FF0013202C88C1AD0
:100DB0008C4314EAC211F9D0C01A0A0603D0C01E2F
:100DC00010BDC01A10BD0A0401D0801E10BD09025A
:100DD000FCD0401E10BD032A40F2308010F0030CFE
:100DE00000F0158011F8013BBCF1020F624498BF7E
:100DF00011F801CB00F8013B38BF11F8013BA2F11B
:100E0000040298BF00F801CB38BF00F8013B11F095
:100E1000030300F02580083AC0F0088051F8043B35
:100E2000083A51F804CBA0E80810F5E7121D5CBFA2
:100E300051F8043B40F8043BAFF30080D20724BFD5
:100E400011F8013B11F801CB48BF11F8012B24BF69
:100E500000F8013B00F801CB48BF00F8012B7047B8
:100E600010B5203AC0F00B80B1E81850203AA0E845
:100E70001850B1E81850A0E81850BFF4F5AF5FEA79
:100E8000027C24BFB1E81850A0E8185044BF18C92C
:100E900018C0BDE810405FEA827C24BF51F8043BD3
:100EA00040F8043B08BF7047D20728BF31F8023B27
:100EB00048BF11F8012B28BF20F8023B48BF00F8BB
:100EC000012B70474FF000020429C0F0128010F08F
:100ED000030C00F01B80CCF1040CBCF1020F18BF16
:100EE00000F8012BA8BF20F8022BA1EB0C0100F0A9
:100EF0000DB85FEAC17C24BF00F8012B00F8012B7C
:100F000048BF00F8012B70474FF0000200B51346B0
:100F100094469646203922BFA0E80C50A0E80C5019
:100F2000B1F12001BFF4F7AF090728BFA0E80C50CA
:100F300048BF0CC05DF804EB890028BF40F8042BC3
:100F400008BF704748BF20F8022B11F0804F18BF30
:100F500000F8012B704770477047704770B5064C1A
:100F60007C44064D7D4403E0206820448047241DD6
:100F7000AC42F9D170BD000020A1000030A10000FA
:100F80000048704700220020004870472C220020B3
:100F9000704770477047704738B504460A460020CE
:100FA0006946AFF30080002808BF38BD02460099AB
:100FB000204600F077F8012038BD012000F0A4B8E9
:100FC000F8B5AFF30080054600200C46102000BFA6
:100FD0000646A819A0420DD9324669460020AFF353
:100FE0000080070008BF00F08FF80098A04218BFEB
:100FF0000546C419FFF7C4FF05600746F01D20F041
:1010000007004619284600F00AF8B44208BFF8BDA8
:10101000A21B31463868BDE8F84000F043B8002113
:101020000160C0E9011070471020704770B5044698
:10103000051FFFF7A5FF0068002C14BF446870BDB2
:10104000002C18BFAC423CBF20466468F8D301684E
:101050000A18AA4218BF456003D12A680546114400
:10106000016028684119A1421CBF6C6070BD6168B5
:10107000696021680844286070BD10B500F00EF862
:10108000006810BD10B5044600F008F8046010BDFB
:1010900000F041B800487047F82100200048704730
:1010A000F8210020034640688C46002818BF88427B
:1010B0003CBF03464068F8D318681844884207D0FC
:1010C0000CF1030020F00700001D411A521A0146DE
:1010D000081D0A60FFF7AABF1FB584B000200A9C54
:1010E00006AB04AA02A90094AFF3008018B1DDE9B1
:1010F000020108B010BD0348204000F058F800205D
:101100000146F6E70000207C10B500F057F8BDE876
:10111000104000F047B810B500F07BF8016919B134
:1011200000220261884701E08068804700F02FF8C4
:1011300070477546FFF7AEFFAE4605006946534659
:1011400020F00700854618B020B5FFF7A1F8BDE8EC
:1011500020404FF000064FF000074FF000084FF01E
:10116000000B21F00701AC46ACE8C009ACE8C009AF
:10117000ACE8C009ACE8C0098D46704710B504461C
:10118000AFF300802046BDE81040FFF76CB810B503
:10119000002000F086F8FFF75BF8BDE81040012062
:1011A00000F05CB8002801D000F058B8704710B5C6
:1011B00000F07EF8BDE81040FFF7F4BF10B501283D
:1011C00005D0002103A000F053F8012010BD09A1B3
:1011D000F8E7000053494752544D454D3A204F75AA
:1011E00074206F662068656170206D656D6F72791F
:1011F000000000003A2048656170206D656D6F72D7
:101200007920636F727275707465640010B5FFF7B2
:10121000BEFF70B500F028F804680546A4B9202088
:10122000FFF714FD040011D0094900202C60C4E927
:1012300000010849A1602073206160610649A06136
:1012400009B100F08BF8E061204670BDFFF79FFF09
:10125000000000000D1200080000000001491820E5
:10126000ABBEFEE726000200004870473422002093
:1012700070B505460C460A2000E06D1C00F08CF8A5
:1012800035B128780028F8D102E0641C00F084F819
:1012900014B120780028F8D1BDE870400A2000F091
:1012A0007BB810B500F080F8BDE81040FFF77ABFBA
:1012B00010B5022803D0410103D50DA112E0002092
:1012C00010BD010101D50FA10CE0C10001D511A194
:1012D00008E0810001D512A104E0400001D513A16E
:1012E00000E0002115A0FFF7C3FF012010BD0000A2
:1012F000496E76616C6964204F7065726174696FC4
:101300006E000000446976696465204279205A6560
:10131000726F00004F766572666C6F770000000098
:10132000556E646572666C6F77000000496E657873
:1013300061637420526573756C74000053494746AD
:1013400050453A2041726974686D6574696320651F
:101350007863657074696F6E3A20000010B588205C
:10136000FFF774FC002801D00021017010BD802916
:1013700002D808B1017809B100207047012100F8B6
:10138000081B704718B100F10802914201D00020FB
:10139000704700210170704708B569468DF800005C
:1013A0000320ABBE08BD000010B5002102A0FFF76E
:1013B0005FFF012010BD0000534947414252543A9B
:1013C0002041626E6F726D616C207465726D696E22
:1013D0006174696F6E000000FEE70000014800F0D4
:1013E00087B80000FC020020014800F081B800002E
:1013F0008C080020014800F07BB80000CC070020DA
:10140000014800F075B80000EC080020014800F029
:101410006FB800002C080020014800F069B80000F7
:101420004C0900207047012000F000BA082000F0AD
:10143000FDB94FF4007000F0F9B972B6FEE72DE97E
:10144000F0410446A76D00F0F5FA054694F8350022
:101450000026022806D08020606584F834600120D0
:10146000BDE8F0812068016821F016010160206864
:10147000416921F080014161206C08B9A06C20B164
:101480002068016821F0080101602068016821F0EE
:10149000010101600BE000F0CDFA401B052806D9E0
:1014A000202034342062032060702670D8E7206842
:1014B0000068C007EFD134343F2094F828108840EA
:1014C000B8600120607026700020C9E790F83510E0
:1014D000022903D08021416501207047052180F851
:1014E00035100068016821F001010160002070479B
:1014F0002DE9F84304464FF00009CDF800906F48FD
:101500004FF416510068B0FBF1F7A56D2E6894F802
:101510005C00082202FA00F1314210D02068016814
:1015200049070CD5016821F00401016094F85C00C2
:1015300002FA00F1A960606D40F00100606594F866
:101540005C104FF0010808FA01F0304208D0216821
:101550004969090604D5A860606D40F00200606525
:1015600094F85C1004208840304208D02168096853
:10157000890704D5A860606D40F00400606594F8A8
:101580005C1010208840304220D02168096809078B
:101590001CD5A8602068016849030CD500680003C9
:1015A00004D4216C91B1204688470FE0A16C69B149
:1015B000204688470AE00168C90503D4016821F084
:1015C00008010160216C09B12046884794F85C103D
:1015D0002020884030424CD021680968C90648D58F
:1015E000A86094F8350005280BD0206801684903ED
:1015F00030D50068000328D4616C51B32046884779
:1016000037E02068016821F0160101602068416917
:1016100021F080014161206C08B9A06C20B12068E4
:10162000016821F00801016094F85C103F208840B7
:10163000A86084F8358084F83490216D00293BD06F
:1016400001B02046BDE8F0430847E16B09B12046F0
:1016500088470EE00168C90507D4016821F0100130
:10166000016084F8358084F83490E16B09B120463C
:101670008847606D00281FD0606DC00714D005201A
:1016800084F835002068016821F0010101600098AC
:10169000401C0090B84203D820680068C007F6D10B
:1016A00084F8358084F83490E16C002904D001B0CE
:1016B0002046BDE8F0430847BDE8F883100000204D
:1016C0002DE9F041044600F0B5F905465CB1022071
:1016D00084F83500002684F834602068016821F021
:1016E000010101600DE00120BDE8F08100F0A2F9E8
:1016F000401B052805D920206065032084F83500AB
:10170000F2E720680068C007F0D121680A68204825
:101710000240D4E901031843D4E903352B431843AD
:1017200063691843A3691843E3691843236A18439C
:101730001043626A042A03D1D4E90B231A431043ED
:1017400008602068406920F00700656A2946054363
:10175000012704290DD1A06A0543E06A48B120465B
:1017600006F04FFE28B14020606584F835700120F6
:10177000BAE720684561204606F080FE94F85C20B8
:101780003F2191408160666584F835700020ABE7A9
:101790003F8010F02DE9F04104460025A66D94F835
:1017A000340001280DD0012084F8340094F83570FD
:1017B0000020012F07D084F8340002252846BDE818
:1017C000F0810220FBE7022784F83570606520462F
:1017D00006F002FE94F85C103F208840B06020685C
:1017E000016841F016010160206C20B12068016899
:1017F00041F0080101602068016841F001010160C9
:10180000DCE7000070B5044600F014F90546601CE2
:1018100002D004480078044400F00CF9401BA042B8
:10182000FAD370BD040000207047000010B50449D1
:101830000A68024202D00860FFF7F6FF10BD000000
:10184000143C01402DE9F84F0022DFF89C914FF045
:10185000010809F1040A03274FF00F0C0AF1040BE9
:1018600008FA02F50B682B40AB426ED10C7904F0FC
:101870000304012C01D0022C15D18668540007FA0C
:1018800004FE26EA0E06D1F80CE00EFA04FE4EEA3B
:10189000060EC0F808E04468AC430D79C5F30015A6
:1018A0009540254345600C79E443A40708D0C568FA
:1018B000540007FA04F6B5438E68A6402E43C6606E
:1018C0000C7904F00304022C11D1D40800EB840637
:1018D000356A5407E40E0CFA04FE25EA0E05D1F829
:1018E00010E00EFA04FE4EEA050EC6F820E0056888
:1018F000540007FA04F6B5430E7906F00306A64035
:101900002E4306604C6814F4403F67D0374C25687E
:1019100045F480452560246804F480440094344CE8
:1019200022F003052E19D6F8085894074FEA147EC2
:101930000CFA0EF4A5432F4CA04201D1002424E060
:101940002D4CA04202D101241FE047E02B4CA042C5
:1019500001D1022419E02A4CA04201D1032414E051
:10196000284CA04201D104240FE0274CA04201D111
:1019700005240AE0254CA04201D1062405E0244CB0
:10198000A04201D1072400E0082404FA0EF42C43FD
:10199000C6F80848D9F800409C434D68ED0300D5CF
:1019A0001C43C9F80040DAF800409C434D68AD0381
:1019B00000D51C43CAF80040DBF800409C434D684A
:1019C000ED0200D51C43CBF80040074D0C352C68C8
:1019D0009C434E68B60200D51C432C60521C102A52
:1019E000FFF43EAFBDE8F88F003C014044380240B0
:1019F00000300140000002400004024000080240A4
:101A0000000C024000100240001402400018024086
:101A1000001C0240426921EA02030A4043EA0241F3
:101A200081617047002A01D081617047090481619A
:101A300070470000014880687047000004000020E3
:101A400070B50446002C11D021684CF6CC400860DB
:101A5000216845F255500860D4E9001048602168BB
:101A6000A0688860FFF7E6FF05460CE0012070BD26
:101A7000FFF7E0FF401B312805D92068C0688007C8
:101A800001D0032070BD2068C0688007F0D12168B4
:101A90004AF6AA200860002070BD00684AF6AA2114
:101AA00001600020704700000248816802781144FC
:101AB000816070470400002010B50B48016841F4B4
:101AC00000710160016841F480610160016841F4C6
:101AD00080710160032000F073F8002000F006F828
:101AE00000F026F8002010BD003C024070B504460E
:101AF0000D4D4FF47A712878B1FBF0F00B4909686D
:101B0000B1FBF0F000F011FE08B1012070BD102C07
:101B100007D200222146501E00F032F86C600020EF
:101B200070BD012070BD00000400002010000020E6
:101B300082B00B48016841F480410160006800F404
:101B4000804001900648001F016841F0805101600B
:101B5000006800F080500190052002B000F030B81D
:101B600044380240002809DB00F01F0201219140A7
:101B70004009800000F1E020C0F80011704700002B
:101B8000F0B40D460D4B1B68C3F30223C3F10704E9
:101B9000042C00D90424191D072901D2002300E0D8
:101BA000DB1E012606FA04F1491E294099409E4099
:101BB000761E16403143F0BC07F09CB80CED00E0F7
:101BC00000F00701054A10684FF6FF03184040EA8D
:101BD0000120034908431060704700000CED00E04D
:101BE0000000FA052DE9F04704460D46002C13D0FD
:101BF000DFF82891D9F80000EFB200F00700A84202
:101C00000CD289F80070D9F8000000F00700A84253
:101C100004D00120BDE8F0870120FBE72068404E9A
:101C2000810712D5400703D5306840F4E05030609A
:101C30002078000703D5306840F460403060306899
:101C4000A16820F0F000084330602078C00731D050
:101C5000334960680839012808D002280BD00328CE
:101C600009D0096889070BD40120D3E709688903E3
:101C700006D40120CEE70968890101D40120C9E713
:101C8000316821F0030101433160FFF7D3FE804644
:101C900041F2883A07E0FFF7CDFEA0EB080050457F
:101CA00001D90320B6E73068616800F00C00B0EBA2
:101CB000810FF0D1D9F8000000F00700A84209D93F
:101CC00089F80070D9F8000000F00700A84201D0A0
:101CD00001209FE72078400705D53068E16820F4AF
:101CE000E050084330602078000706D5306821694D
:101CF00020F4604040EAC100306000F03FF83168F5
:101D0000084AC1F30311515CC840074908600748FD
:101D10000068FFF7EBFE00207CE70000003C02407B
:101D20000838024050AF00081000002008000020D2
:101D300001480068704700001000002000B5FFF760
:101D4000F7FF04490968044AC1F38221515CC84085
:101D500000BD00000838024060AF000800B5FFF782
:101D6000E7FF04490968044AC1F34231515CC840A5
:101D700000BD00000838024060AF000810B51548EB
:101D8000006810F00C01144823D0042921D0082940
:101D90001FD1104C241F216801F03F022168490225
:101DA00008D521680023C1F38811A1FB0001FEF7CB
:101DB0007CFF07E021680023C1F38811A1FB00012B
:101DC000FEF773FF2168C1F30141491C4900B0FBD4
:101DD000F1F010BD083802400024F4002DE9F84F5E
:101DE0000446002C13D02078DFF8A083C007A8F1A8
:101DF000040556D008F104000168C1F381010129EE
:101E00000CD00068C0F38100022803D00DE001204F
:101E1000BDE8F88FD8F80000400206D52868800396
:101E20003FD5606870BB0120F2E76068B0F5803F85
:101E300010D0B0F5A02F12D0286820F48030286090
:101E4000286820F4802028606068E0B1FFF7F2FD88
:101E5000064614E0286840F480302860F4E72868DB
:101E600040F480202860286840F480302860EBE748
:101E7000FFF7E0FD801B642801D90320C8E728682C
:101E80008003F5D50DE0FFF7D5FD064606E0FFF728
:101E9000D1FD801B642801D90320B9E7286880039D
:101EA000F5D42078BA4F80074FF0000948D5B748DD
:101EB000001D016811F00C0F08D00068C0F381000C
:101EC000022813D1D8F8000040020FD428688007F8
:101ED00004D5E068012801D0012099E7286821692C
:101EE00020F0F80040EAC100286029E0E068B8B1BD
:101EF00001203860FFF79EFD064606E0FFF79AFDD9
:101F0000801B022801D9032082E728688007F5D5C5
:101F10002868216920F0F80040EAC10028600FE03D
:101F2000C7F80090FFF786FD064606E0FFF782FD42
:101F3000801B022801D903206AE728688007F5D4AE
:101F40002078000729D5DFF844A2924861690AF198
:101F5000700A89B101210160FFF76CFD064606E0B9
:101F6000FFF768FD801B022801D9032050E7DAF84B
:101F700000008007F4D510E0C0F80090FFF75AFD8C
:101F8000064606E0FFF756FD801B022801D9032014
:101F90003EE7DAF800008007F4D42078400778D5CF
:101FA0004FF0000A79483C300068C0000BD47748F5
:101FB0003C30016841F080510160006800F08050C1
:101FC00000904FF0010ADFF8D0B1DBF80000C00547
:101FD00014D4DBF8000040F48070CBF80000FFF769
:101FE00029FD064606E0FFF725FD801B022801D9E2
:101FF00003200DE7DBF80000C005F4D5634EA068B0
:102000006C3601280FD0052812D0306820F001006E
:102010003060306820F004003060A068F8B1FFF74D
:1020200009FD834617E0306840F001003060F4E7B6
:10203000306840F004003060306840F001003060EB
:10204000EBE7FFF7F7FCA0EB0B0141F28830814290
:1020500001D90320DCE630688007F2D510E0FFF7F5
:10206000E9FC834609E0FFF7E5FCA0EB0B0141F238
:102070008830814201D90320CAE630688007F2D453
:10208000BAF1010F05D141483C30016821F080517F
:102090000160A069C0B33D49091D09684FF0FF36D2
:1020A000C1F38101022946D0022805D0C7F860900B
:1020B000FFF7C0FC04463AE0C7F86090FFF7BAFCAF
:1020C000814607E0FFF7B6FCA0EB0900022801D922
:1020D00003209DE628688001F4D4D4E90701084371
:1020E000616AA26A890106EB520241EA0241084391
:1020F00094F82C1040EA0160C8F80000012038660E
:10210000FFF798FC044607E03DE0FFF793FC001B57
:10211000022801D903207BE628688001F5D532E04A
:10212000FFF788FC001B022801D9032070E628680D
:102130008001F5D427E0012823D0D8F80000E26917
:1021400000F4800191421AD1226A00F03F019142CD
:1021500015D147F6C071626A0140B1EB821F0ED102
:10216000A26A00F4403106EB5202B1EB024F06D1F5
:1021700094F82C1000F07060B0EB016F03D00120D8
:1021800046E6012044E6002042E600000438024012
:1021900000004742800E474200700040704770B513
:1021A0000446002C09D0606A002540B125616561B4
:1021B000A56294F8510040B10CE0012070BD606848
:1021C000B0F5827FF4D0E561F2E784F85050204604
:1021D00000F044F8022084F851002068016821F0E2
:1021E00040010160A088218900F4827001F404415B
:1021F0000843A18901F400610843217C01F0020138
:102200000843217D01F001010843218B01F4007195
:102210000843217F01F03801084394F8201001F0B1
:1022200080010843218D01F40051084321680860B2
:10223000A069042101EA104094F8241001F0100173
:102240000843216848602068C16921F40061C161C8
:102250006565012084F85100002070BD2DE9F04132
:1022600086B00646142101A8FEF74EFE3A4A3068B1
:1022700000253A49022403274FF00508904220D157
:1022800036481430026842F480520260006800F45C
:1022900080500090086840F002000860086800F074
:1022A00002000090382001900294012003900497CE
:1022B000CDF8148001A92A48FFF7C4FA06B0BDE89A
:1022C000F081284A9042F9D124481030026842F443
:1022D00080420260006800F480400090086840F48A
:1022E00080700860086800F480700090086840F012
:1022F00004000860086800F0040000900194029453
:1023000003950497CDF8148001A91748FFF79AFAAE
:1023100008200190029403950497CDF8148001A938
:102320001248FFF78FFA134C114820606560402077
:10233000A060E560000120616561A561E561800143
:10234000206265622046FFF7BBF908B1FFF775F818
:10235000B464A663B2E700000030014030380240A8
:102360000004024000380040002002400008024003
:1023700070600240FC020020704770472DE9F84F62
:1023800004460A9E8A4693461F4601254FF00008E0
:1023900094F8500001280ED0012084F85000FFF777
:1023A00049FB814694F85100616801280DD0B1F5D0
:1023B000827F07D102E00220BDE8F88FA16809B949
:1023C000042802D04FF00208C3E0BAF1000F28D071
:1023D000BBF1000F25D0380023D094F85100042819
:1023E00002D0052084F8510000206065C4F838B0A0
:1023F000E787A787C4F830A0E786A78620646064D3
:1024000020680168490603D4016841F04001016079
:10241000E068B0F5006F07D06068E8B3012F48D0DE
:102420007DE04FF0010894E0606808B1012F39D1D8
:10243000206B21680088C860206B801C2063E08EC0
:10244000401EE0862EE02068816889070DD5E18E68
:1024500059B1012D09D1216B0988C160206B801C05
:102460002063E08E401EE086002520688168C90751
:102470000BD0E18F49B1C068A16B0880A06B801CB4
:10248000A063E08F401EE0870125FFF7D3FAA0EBA1
:102490000900B04206D300E00BE0701C02D04FF000
:1024A000030856E0E08E0028CDD1E08F0028CAD185
:1024B0003BE0206B216800780873206B401C206390
:1024C000E08E401EE0862AE02068816889070DD5ED
:1024D000E18E59B1012D09D1216B09780173206B6F
:1024E000401C2063E08E401EE08600252068816845
:1024F000C9070BD0E18F49B1C068A16B0870A06B10
:10250000401CA063E08F401EE0870125FFF792FA90
:10251000A0EB0900B04201D3701C11D186B1E08E4E
:102520000028D1D1E08F0028CED14A46314620463E
:1025300006F04CF838B14FF001082020606508E043
:102540004FF0030805E0A06818B92068C1688068EA
:1025500000900120503460700020207040462BE72E
:102560002DE9F0410446002594F8500001280DD0D3
:10257000012784F8507094F85100D4F804C0002664
:1025800001280FD0BCF5827F0AD102E00220BDE80D
:10259000F081D4F808C0BCF1000F01D1042801D0AB
:1025A00002256AE081B37AB373B394F8510004282A
:1025B00002D0052084F8510066652163A386E38676
:1025C000A263A387E3872664666494F85100042815
:1025D0001DD0E16C2B480864E16C2B48C863E16CAA
:1025E0002A48C864E06C0665E38F2168A26B0C3151
:1025F000E06CFFF7CFF888B1606D40F010006065C7
:10260000012584F8517038E0FFE7012535E0E16CE1
:102610001F480864E16C1F48C863E0E72068416810
:1026200041F001014160A06C0664A06CC663A06C1F
:10263000C664A06C0665E38E2268216B0C32A06C28
:10264000FFF7A8F838B1606D40F010006065012513
:1026500084F8517011E020680168490603D40168CC
:1026600041F0400101602068416841F02001416073
:102670002068416841F00201416084F850602846BA
:1026800085E700004187000829860008A984000822
:10269000C3850008CB84000810B500681C49884237
:1026A0000FD11C4C21896068FFF7B4F904F18A014D
:1026B000B4F80A21D4F81031BDE81040A1F180002F
:1026C0001847154988420FD1144C21896068FFF7DB
:1026D000A1F904F18A01B4F80A21D4F81031BDE857
:1026E0001040A1F1800018470D4988420FD10D4CD0
:1026F00021896068FFF78EF904F18A01B4F80A2194
:10270000D4F81031BDE81040A1F18000184710BD89
:1027100000300140500C002000380040640D0020C3
:10272000003C0040780E0020704710B5401EB0F10C
:10273000807F01D3012010BD4FF0E02460610F21A4
:10274000601706F0D7FA0020A06107202061002062
:1027500010BD7047704710B590F83C20012A22D078
:10276000012280F83C20CA6800238C6822F4407261
:1027700022434C6822F4806222430C6822F40062F7
:1027800022430C6922F4805222434C6922F4005205
:102790002243C96922F480420A4301684A6480F8EE
:1027A0003C30002010BD022010BD000070B590F834
:1027B0003C20012A31D0012680F83C60022280F8BA
:1027C0003D2002685468936824F070050C682C431F
:1027D0005460134C0268A24214D0B2F1804F11D061
:1027E000104CA2420ED0104CA2420BD00F4CA24271
:1027F00008D00F4CA24205D00E4CA24202D00E4C83
:10280000A24204D123F080034968194391603C300F
:10281000467000210170002070BD022070BD0000D4
:10282000000001400004004000080040000C00408F
:1028300000040140004001400018004010B504466B
:10284000002C03D094F83D0010B107E0012010BD2A
:10285000002084F83C00204600F016F8022084F89E
:102860003D00211D206801F0C5FE01203D3460724D
:102870006070A070E07020716071A071E0712072D2
:102880002070002010BD000008B500683A4A3B499E
:10289000904208D1086840F008000860086800F01D
:1028A0000800009008BD364A904211D1086840F0F7
:1028B00010000860086800F010000090002201215C
:1028C0003620FFF75DF9BDE808403620FFF74AB92A
:1028D0002C4A904211D1086840F020000860086836
:1028E00000F020000090002201213720FFF748F976
:1028F000BDE808403720FFF735B9204A224B121DAA
:10290000984208D1106840F002001060106800F092
:102910000200009008BD1D4B984208D1106840F499
:1029200080301060106800F48030009008BD184AB4
:10293000904208D1086840F040000860086800F044
:102940004000009008BD134A904208D1086840F04A
:1029500080000860086800F08000009008BD0E4A02
:102960009042FBD1086840F480700860086800F469
:102970008070009008BD0000000C0040403802400C
:1029800000100040001400400004014000400140DD
:1029900000180040001C00400020004090F83D104E
:1029A000012901D001207047022180F83D10016803
:1029B000CA6842F00102CA6000681449884214D013
:1029C000B0F1804F11D0124988420ED0114988428F
:1029D0000BD01149884208D01049884205D01049CF
:1029E000884202D00F49884209D1816801F007016D
:1029F000062908D0016841F00101016003E0016887
:102A000041F001010160002070470000000001401A
:102A10000004004000080040000C00400004014099
:102A2000004001400018004070B50446002594F8AD
:102A30003C00012817D0012684F83C60022084F86D
:102A40003D002068826822F0770222F47F42826093
:102A50000868502838D00DDC202853D005DC90B30E
:102A6000102811D14EE0022070BD30284AD04028F5
:102A70000AD13DE0602831D070280CD0B0F5805FDD
:102A800003D0B0F5005F12D001253C346670002001
:102A90002070284670BDCB68D1E90121206801F083
:102AA0001CFE2068816841F077018160EDE7CB680A
:102AB000D1E90121206801F010FE2068816841F40D
:102AC00080418160E1E71DE0CA684968206805F03F
:102AD000DBFE5021206805F0CFFED6E7CA684968C2
:102AE000206805F0E2FE6021206805F0C5FECCE715
:102AF000CA684968206805F0C7FE4021206805F0D3
:102B0000BBFEC2E722680146104605F0B5FEBCE7F1
:102B10002DE9F04104460D46002C03D094F83D0009
:102B200018B108E00120BDE8F081002084F83C00E5
:102B3000204600F047F8022084F83D0020688168B4
:102B400044F2070291438160211D206801F052FD8B
:102B5000273454F8270C81688269066A2B680B4376
:102B600040F203318A43AF69A96842EA0722114360
:102B700040F60C4291434FF2F0029143EF69EA684C
:102B800041EA07210A4329692F6A090141EA07310D
:102B9000114326F0220222F088066A686D6946EA2F
:102BA00005152A43836054F8270C816154F8270CDB
:102BB00002620120E077E0752076E0762077A0754C
:102BC0000020B0E770B586B00446142101A8FEF7D6
:102BD0009BF9414821680023404A02240126814292
:102BE0001ED13E481430016841F0010101600068C7
:102BF00000F001000090106840F0100010601068B4
:102C000000F0100000904FF42850019002940393BC
:102C10000493059601A93248FEF714FE06B070BD74
:102C20002E4D30481035B1F1804F1CD02E4EB142A0
:102C300033D1296841F002012960296801F00201BD
:102C40000091116841F001011160116801F001016A
:102C50000091C0210191029403930493059401A96A
:102C6000FEF7F0FDDAE7296841F0010129602968E3
:102C700001F001010091116841F00101116011683A
:102C800001F0010100910321019102940393049347
:102C9000059601A9FEF7D6FDC0E714488142BDD1D3
:102CA000286840F004002860286800F004000090C4
:102CB000106840F008001060106800F008000090F4
:102CC0004FF440500190029403930493059401A99A
:102CD0000748FEF7B7FDA1E7000001403038024089
:102CE00000100240000002400004004000080040C4
:102CF000000C024070B5044614F83E0F6278237948
:102D000065793E3C0226002904D004290DD0012813
:102D10001CD115E0012801D1012B01D0012070BD8B
:102D200084F83E6084F8426018E0012A01D1012D48
:102D300001D0012070BD84F83F6084F843600DE04D
:102D4000012A03D1012B01D1012D01D0012070BD39
:102D500004F83E6F6670267166713E3C91B104299D
:102D600016D001220021206801F0AAFC01220421D2
:102D7000206801F0A5FC2068016841F001010160B4
:102D8000002070BD01220021206801F099FCF2E7CB
:102D900001220421206801F093FCECE7704770B534
:102DA0000446206801694FF00005C943890716D41D
:102DB000C168C943890712D4E91E01610120207747
:102DC00020688069800703D02046FFF7E7FF05E011
:102DD000204600F057F9204600F0E7F925772068F3
:102DE0000169C943490718D4C168C943490714D4C4
:102DF0006FF004010161022020772068806910F4DF
:102E0000407F03D02046FFF7C9FF05E0204600F0D1
:102E100039F9204600F0C9F9257720680169C943CE
:102E2000090717D4C168C943090713D46FF0080113
:102E30000161042020772068C069800703D0204604
:102E4000FFF7ACFF05E0204600F01CF9204600F03B
:102E5000ACF9257720680169C943C90618D4C1684F
:102E6000C943C90614D46FF010010161082020770E
:102E70002068C06910F4407F03D02046FFF78EFF22
:102E800005E0204600F0FEF8204600F08EF9257798
:102E900020680169C943C90708D1C168C943C90786
:102EA00004D1891E0161204600F02CFA20680169D6
:102EB000C943090609D4C168C943090605D46FF09E
:102EC000800101612046FFF744FC20680169C94385
:102ED000490609D4C168C943490605D46FF04001C9
:102EE0000161204600F08EFA20680169C943890615
:102EF0000BD4C168C943890607D46FF02001016172
:102F00002046BDE87040FFF725BC70BD70B586B0A7
:102F10000446142101A8FDF7F7FF4E4B2168002459
:102F20004D4A02254D48994225D1116841F0800152
:102F30001160116801F080010091116841F00101F8
:102F40001160116801F0010100914FF4406101919D
:102F5000029503940494059501A9FEF773FC0C20D7
:102F60000190029503940494059501A93C48FEF74D
:102F700069FC06B070BD3B4E0323B14213D110680B
:102F800040F004001060106800F0040000904FF45E
:102F900070700190029503940494059301A932483E
:102FA000FEF750FCE5E7314EB14212D1106840F017
:102FB00010001060106800F01000009020200190B8
:102FC000029503940494059301A92948FEF73AFC5D
:102FD000CFE7284E0923B14211D1116841F0800199
:102FE0001160116801F08001009199010191029531
:102FF00003940494059301A9FEF724FCB9E71E4E3F
:103000001E48B14211D1116841F0200111601168D0
:1030100001F020010091811501910295039404941F
:10302000059301A9FEF70EFCA3E7154EB142A0D10E
:10303000116841F020011160116801F02001009138
:1030400071150191029503940494059301A9FEF76B
:10305000F9FB8EE7000C004030380240001C0240B3
:10306000000002400004014000080240004001400E
:103070000010024000180040001C004000140240F4
:1030800000200040704770B504460D46002694F8B5
:103090003C0001280FD0012084F83C006AB1042ACA
:1030A0001FD0082A32D00C2A44D00126002084F8F0
:1030B0003C00304670BD022070BD2946206805F0F6
:1030C00045FB2068816941F00801816120688169C0
:1030D00021F004018161206881692A6911438161BD
:1030E000E4E72946206801F003FB2068816941F488
:1030F000006181612068816921F4806181612068BB
:1031000081692A6941EA02218161CFE72946206865
:1031100005F050FB2068C16941F00801C1612068D9
:10312000C16921F00401C1612068C1692A691143A4
:10313000C161BBE72946206805F074FB2068C169BE
:1031400041F40061C1612068C16921F48061C161FD
:103150002068C1692A6941EA0221C161A6E710B568
:103160000446002C03D094F83D0010B107E0012084
:1031700010BD002084F83C00204600F015F8022025
:1031800084F83D00211D206801F034FA01203D340F
:1031900060726070A070E07020716071A071E07169
:1031A00020722070002010BD7047704710B5044693
:1031B000002909D004290AD008290BD094F841002D
:1031C00001280AD0012010BD94F83E00F8E794F8D9
:1031D0003F00F5E794F84000F2E70220A9B3042984
:1031E00037D0082938D084F841000122206801F046
:1031F00067FA1E4920681E4A884201D0904203D1D6
:10320000436C43F4004343642068884213D0B0F118
:10321000804F10D0174988420DD0174988420AD0F4
:103220001649884207D0904205D01549884202D0FD
:103230001449884213D1816801F00701062912D090
:10324000016841F0010101600DE0FFE784F83E00F4
:10325000CBE784F83F00C8E784F84000C5E7016881
:1032600041F001010160002010BD0000000001409C
:10327000000401400004004000080040000C004031
:10328000004001400018004030B504460D460022C1
:103290002946206801F014FA184A41F211112068F9
:1032A0008B10904202D0164A904209D1026A0A421B
:1032B00006D1026A1A4203D1426C22F400424264EF
:1032C0002068026A0A4206D1016A194203D10168E4
:1032D00021F00101016001203DB1042D08D0082D2D
:1032E00009D084F84100002030BD84F83E00FAE7A0
:1032F00084F83F00F7E784F84000F4E7000001405D
:103300000004014000683149884202D130484068D9
:103310000047B0F1804F06D02E49884207D12C4893
:103320001030406800472A480830406800472A4962
:10333000884203D126481830406800472749884210
:1033400003D123482030406800472549884203D1F3
:103350001F482830406800472249884203D11C4852
:103360003030406800472049884203D1184838303F
:10337000406800471D49884203D1154840304068E5
:1033800000471B49884203D1114848304068004734
:103390001849884203D10E4850304068004716490A
:1033A000884203D10A485830406800471349884290
:1033B00003D107486030406800471149884203D173
:1033C0000348683040680047704700000000014033
:1033D000980100200004004000080040000C00405C
:1033E0000010004000140040000401400040014073
:1033F000004401400048014000180040001C00400B
:1034000000200040704738B5044694F83E0020285C
:1034100001D0022038BD71B16AB194F83C00012896
:103420000BD0012084F83C002063204601F0A0F975
:10343000014621B107E0012038BD022038BD206BD4
:10344000012802D00121084638BD20680268406882
:10345000009020680C3050E8002F42F0100240E845
:103460000023002BF5D1EEE770B50546334A2868F6
:1034700090420DD1324CA180A4F18000A268064692
:103480009047228831462846BDE87040FFF7BBBF11
:103490002C4A90420DD12C4CA180A4F18000A2684E
:1034A00006469047228831462846BDE87040FFF71F
:1034B000AABF264A90420DD1254CA180A4F18000DC
:1034C000A26806469047228831462846BDE87040EB
:1034D000FFF799BF1F4A90420DD11F4CA180A4F164
:1034E0008000A26806469047228831462846BDE8FB
:1034F0007040FFF788BF194A90420DD1184CA18047
:10350000A4F18000A26806469047228831462846EA
:10351000BDE87040FFF777BF124A90420DD1124CC0
:10352000A180A4F18000A268064690472288314617
:103530002846BDE87040FFF766BF70BD001001402F
:103540009010002000440040A011002000480040DE
:10355000B0120020004C0040C0130020005000407A
:10356000D014002000140140E01500207047000036
:10357000F8B5044622681068D168536900F00F0658
:10358000002E08D1850606D58D0604D52046BDE857
:10359000F84005F04BBA0025002E66D003F0010676
:1035A00001F49077374360D0C20705D0CA0503D530
:1035B000226C42F001022264420705D5DA0703D0EB
:1035C000226C42F002022264820705D5DA0703D09A
:1035D000226C42F004022264020707D501F02002A7
:1035E000324303D0226C42F008022264226C002A8B
:1035F00031D0800604D5880602D5204605F016FA9B
:1036000020684069C0F38010216C090700D438B3EA
:10361000204605F0AAFA2068406940061CD52068BB
:10362000143050E8001F21F0400140E80012002A49
:10363000F5D1A06B60B157490165A06BFDF746FF5E
:10364000002808D0A06B016D01B0BDE8F04008472C
:103650002046FFF78BFFF8BD2046FFF787FFF8BD38
:103660002046FFF783FF2564F8BD236B012B7ED135
:10367000C3067CD5CB067AD5106850680090506997
:103680004FF02003400643D5A16B0868406880B224
:103690000028E9D0A28D8242E6D9E085C869B0F55C
:1036A000807F2DD020680C3050E8001F21F48071FD
:1036B00040E80012002AF5D12068143050E8001FBD
:1036C00021F0010140E80012002AF5D120681430F1
:1036D00050E8001F21F0400140E80012002AF5D117
:1036E00084F83E30256320680C3050E8001F21F03C
:1036F000100140E80012002AF5D1A06BFDF79FFEF3
:10370000A08DE18D401A81B22046FFF7ADFEF8BDD5
:10371000A08DE18D401A81B2E08D0028F7D00029FC
:10372000F5D020680C3050E8002F22F4907240E869
:103730000026002EF5D12068143050E8002F22F02A
:10374000010240E80026002EF5D184F83E302563C2
:1037500020680C3050E8002F22F0100240E80023CF
:10376000002BF5D12046FFF77FFEF8BDFFE70206EC
:1037700006D50A0604D52046BDE8F84005F0B9B9DB
:103780004006F2D54806F0D52046BDE8F84005F0E1
:1037900062BA0000718C000870B50446002C04D099
:1037A00094F83D00002510B106E0012070BD84F8BA
:1037B0003C50204600F022F8242084F83D00206888
:1037C000C16821F40051C160204605F0A5F82068C9
:1037D000016921F4904101612068416921F02A01C9
:1037E00041612068C16841F40051C1602564202016
:1037F00084F83D0084F83E00002070BD2DE9F04FB4
:1038000087B00446142102A8FDF77EFBA0499F4A19
:10381000103920689E4B022700250E154FF0030833
:103820004FF0080B4FF00069904252D1186840F4F5
:1038300080101860186800F480100190086840F04B
:1038400004000860086800F004000190086840F077
:1038500008000860086800F00800019088140290D1
:1038600003970495CDF81480CDF818B002A98948C3
:10387000FDF7E8FF0420029003970495CDF814802B
:10388000CDF818B002A98448FDF7DCFF844F8348C7
:103890003860C7F804904020B860FD603E617D61EB
:1038A000BD61FD614FF4403038627D623846FDF7FE
:1038B00007FF08B1FDF7C1FD6763BC630022114635
:1038C0003520FEF75DF93520FEF74CF907B0BDE86D
:1038D000F08F6F4ADFF8CCE1121D4FF0070C4FF468
:1038E000003A70453CD1106840F01000106010683C
:1038F00000F010000190086840F0010008600868BE
:1039000000F0010001904FF4C0600290039704950D
:10391000CDF81480CDF818C002A96348FDF792FFD6
:103920005F4F624860373860C7F80490BD60FD6043
:103930003E617D61BD61FD61C7F820A07D623846B2
:10394000FDF7BEFE08B1FDF778FDA763BC6300225A
:1039500011462520FEF714F92520FEF703F9B5E7F7
:10396000DFF84CE170453DD1186840F40030186034
:10397000186800F400300190086840F00800086002
:10398000086800F0080001906020029003970495F9
:10399000CDF81480CDF818C002A93F48FDF752FFBA
:1039A0003E483F4F3038C0373860C7F80490BD609C
:1039B000FD603E617D61BD61FD614FF44030386264
:1039C0007D623846FDF77CFE08B1FDF736FDA76342
:1039D000BC63002211462620FEF7D2F82620FEF70F
:1039E000C1F873E7334B9842B9D1106840F020001A
:1039F0001060106800F020000190086840F040005E
:103A00000860086800F0400001904FF48440029084
:103A100003970495CDF81480CDF818B002A9264874
:103A2000FDF710FF2148254F183838604FF0206807
:103A3000C7F80480BD60FD603E617D61BD61FD61D0
:103A4000C7F820A07D623846FDF73AFE08B1FDF7C1
:103A5000F4FCA763BC631548184F603060373860CA
:103A6000C7F804804020B860FD603E617D61BD61A3
:103A7000FD61800238627D623846FDF721FE08B1A3
:103A8000FDF7DBFC6763BC6320E7000000500040EB
:103A90004038024000080240000C0240B86002407A
:103AA000CC070020001001400000024040640240AA
:103AB000004400400014014000180240EC080020BF
:103AC00090F83E30202B01D00220704759B152B1FE
:103AD00090F83C30012B08D0012380F83C300023C3
:103AE000036300F08FBE0120704702207047000082
:103AF00010B50068074988420BD1074813210446D6
:103B000001F0F6F92146BDE8104013220348FFF703
:103B1000D7BF10BD0010014010100020000700208A
:103B200070472DE9F84304460E4615461F4694F8A3
:103B30003D00202802D00220BDE8F883C6B1BDB107
:103B400094F83C00012815D0012084F83C004FF087
:103B50000009C4F84090212084F83D00FDF76AFF79
:103B60008046A584E584A068B0F5805F04D005E0B8
:103B70000120E1E70220DFE7206920B13546002679
:103B800084F83C9013E00025FAE7434600228021A8
:103B90002046009705F074F808B10320CCE79DB1EA
:103BA000216815F8010B4860E08C401EE084E08C31
:103BB0000028EAD14346002240212046009705F024
:103BC0005FF840B10320B7E736F8020B2168C0F375
:103BD00008004860E8E7202084F83D000020ABE7BB
:103BE0007047FEE708B52148016841F48001016093
:103BF000016801F480010091016841F40011016045
:103C0000006800F400100090002201210F20FDF751
:103C1000B7FF0F20FDF7A6FF002211461020FDF789
:103C2000AFFF1020FDF79EFF002201212F20FDF79E
:103C3000A7FF2F20FDF796FF002211463920FDF740
:103C40009FFF3920FDF78EFF002211463A20FDF735
:103C500097FF3A20FDF786FF002201214520FDF75E
:103C60008FFFBDE808404520FDF77CBF303802409B
:103C70002DE9F04F87B0142102A8FDF745F9002681
:103C80006B48016841F010010160016801F010010A
:103C90000191016841F002010160016801F0020137
:103CA0000191016841F040010160016801F04001AB
:103CB0000191016841F004010160016801F0040113
:103CC0000191016841F001010160016801F0010109
:103CD0000191016841F008010160016801F00801EB
:103CE0000191016841F480710160016801F4807103
:103CF0000191016841F080010160016801F08001DB
:103D00000191016841F020010160006800F020008D
:103D10000190DFF820A1012211465046FDF782FEF6
:103D2000DFF814B14FF48078012241465846FDF780
:103D300079FE4FF4C059002249464048FDF772FE13
:103D4000012240213E48FDF76DFE022502954FF409
:103D5000041703970124049402A95046FDF772FD4D
:103D6000029403940494059502A95046FDF76AFD58
:103D7000CDF8088003940494059502A95846FDF7F0
:103D800061FD600202900397049402A95846FDF772
:103D900059FD4FF00308CDF8088003950496CDF83F
:103DA00014804FF0090ACDF818A002A92548FDF7A4
:103DB00049FDCDF8089003940496059602A91F4882
:103DC000FDF740FD4026029603940494059402A951
:103DD0001B48FDF737FD0296039504940595CDF831
:103DE000188002A91848FDF72DFDCDF808A003970B
:103DF000049402A91248FDF725FD002202210620A5
:103E0000FDF7BEFE0620FDF7ADFE002201210920D0
:103E1000FDF7B6FE0920FDF7A5FE002201211720BF
:103E2000FDF7AEFE1720FDF79DFE07B0BDE8F08F51
:103E300030380240001002400004024000000240FE
:103E400000180240000C02400014024010B509485E
:103E500007490160052141604FF4FA618160FDF777
:103E6000EFFD002803D0BDE81040FDF7E6BA10BD15
:103E7000003000404002002010B510480E4901609B
:103E80004FF48271416000218160C16002220261B1
:103E900001224261520282613822C26101624162A2
:103EA00081620A21C162FEF77AF9002803D0BDE8D9
:103EB0001040FDF7C2BA10BD003001404C02002096
:103EC00010B510480E4901604FF4827141604FF403
:103ED000004181600021C160016141614FF40072C5
:103EE0008261C1610162416281620A21C162FEF7A1
:103EF00056F9002803D0BDE81040FDF79EBA10BD6A
:103F000000380040A402002010B58CB000240894B2
:103F100009940A940B941C2101A8FCF7F5FF1E4894
:103F20001C49016053214160846041F28731C160C6
:103F300004618461FEF782FC08B1FDF77EFA4FF45C
:103F40008050089008A91448FEF76EFD08B1FDF7EF
:103F500074FA1148FFF703F908B1FDF76EFA602013
:103F60000190029403940594002201A90A48FFF7E6
:103F70008AF808B1FDF761FA042201A90648FFF7A3
:103F800082F808B1FDF759FA0348FEF7BFFF0CB0FD
:103F900010BD000000180040E405002010B588B0F6
:103FA0001C2101A8FCF7B0FF1548144901605321FA
:103FB00041600024846044F61F61C1600461846133
:103FC000FEF73CFC08B1FDF738FA0D48FFF7C7F8DB
:103FD00008B1FDF732FA6020019002940394059431
:103FE000002201A90648FFF74EF808B1FDF725FAAF
:103FF0000348FEF78BFF08B010BD0000001C004016
:104000002C06002010B588B01C2101A8FCF77CFF0D
:10401000154814490160532141600024846044F62E
:104020001F61C16004618461FEF708FC08B1FDF7FF
:1040300004FA0D48FFF793F808B1FDF7FEF9602088
:104040000190029403940594002201A90648FFF709
:104050001AF808B1FDF7F1F90348FEF757FF08B069
:1040600010BD0000002000407406002010B58CB088
:10407000242103A8FCF748FF00240194029415486A
:1040800013490160446084604FF6FF71C1600461B0
:1040900044618461032003900494012005900694F8
:1040A0000794089409900A940B9403A90948FEF711
:1040B0002FFD08B1FDF7C1F90194029401A905484B
:1040C000FEF774FB002801D0FDF7B7F90CB010BD66
:1040D000000001405C03002010B58CB0242103A82F
:1040E000FCF712FF00240194029414484FF0804121
:1040F0000160446084604FF6FF71C16004618461B7
:1041000003200390049401200590069407940894DA
:1041100009900A940B9403A90848FEF7F9FC08B12A
:10412000FDF78BF90194029401A90448FEF73EFBC8
:10413000002801D0FDF781F90CB010BDA4030020C8
:1041400010B58CB0242103A8FCF7DEFE00240194F6
:104150000294154813490160446084604FF6FF7172
:10416000C1600461846103200390049401200590E0
:1041700006940794089409900A940B9403A90A489A
:10418000FEF7C6FC08B1FDF758F90194029401A9A5
:104190000548FEF70BFB002801D0FDF74EF90CB0E7
:1041A00010BD000000040040EC03002010B58CB0EE
:1041B000242103A8FCF7A8FE0024019402941548CA
:1041C00013490160446084604FF6FF71C16004616F
:1041D00084610320039004940120059006940794C1
:1041E000089409900A940B9403A90A48FEF790FCDE
:1041F00008B1FDF722F90194029401A90548FEF7E0
:10420000D5FA002801D0FDF718F90CB010BD000058
:10421000000800403404002010B58EB000240A9439
:104220000B940C940D94089409941C2101A8FCF79C
:104230006BFE2A482849016053214160846044F69E
:104240001F61C16004618461FEF7F8FA08B1FDF7EF
:10425000F4F84FF480500A900AA92048FEF7E4FBD6
:1042600008B1FDF7EAF81D48FEF779FF08B1FDF740
:10427000E4F80894099408A91848FEF797FA08B1D9
:10428000FDF7DBF86020019002940394059400226E
:1042900001A91248FEF7F7FE08B1FDF7CEF8042297
:1042A00001A90E48FEF7EFFE08B1FDF7C6F8082297
:1042B00001A90A48FEF7E7FE08B1FDF7BEF80C2297
:1042C00001A90648FEF7DFFE08B1FDF7B6F803487E
:1042D000FEF71CFE0EB010BD000C00407C04002058
:1042E0001CB50024009401940D480C490160532131
:1042F0004160846040F2E731C1608461FEF79EFA5C
:1043000008B1FDF79AF80094019469460448FEF755
:104310004DFA002801D0FDF790F81CBD00100040B8
:10432000C40400201CB50024009401940D480C49DD
:10433000016053214160846041F28731C160846132
:10434000FEF77CFA08B1FDF778F80094019469460D
:104350000448FEF72BFA002801D0FDF76EF81CBDCB
:10436000001400400C05002010B596B000241294F3
:10437000139414941594109411941C2109A8FCF71B
:10438000C3FD202101A8FCF7BFFD3448324901607C
:10439000A7214160846041F28731C16004614461BA
:1043A0008461FEF74BFA08B1FDF747F84FF48050EF
:1043B000129012A92948FEF737FB08B1FDF73DF826
:1043C0002648FEF7CCFE08B1FDF737F8109411949B
:1043D00010A92248FEF7EAF908B1FDF72EF860208F
:1043E00009900A940B940C940D940E940F9400224F
:1043F00009A91A48FEF747FE08B1FDF71EF8042286
:1044000009A91648FEF73FFE08B1FDF716F8082285
:1044100009A91248FEF737FE08B1FDF70EF80C2285
:1044200009A90E48FEF72FFE08B1FDF706F8019422
:1044300002940394049405944FF400500690089459
:1044400001A90648FEF787F908B1FCF7F6FF034813
:10445000FEF75CFD16B010BD0004014054050020BD
:1044600010B58CB00024089409940A940B941C2174
:1044700001A8FCF749FD19481749016044608460B0
:1044800041F28731C16004618461FEF7D7F908B158
:10449000FCF7D3FF4FF48050089008A90F48FEF7AF
:1044A000C3FA08B1FCF7C9FF0C48FEF758FE08B183
:1044B000FCF7C3FF6020019002940394059400224E
:1044C00001A90648FEF7DFFD08B1FCF7B6FF034877
:1044D000FEF71CFD0CB010BD004001409C05002003
:1044E00010B50C480A4901604FF416514160002193
:1044F0008160C16001610C2242618161C161FFF78D
:104500004BF9002803D0BDE81040FCF796BF10BD62
:1045100000500040BC06002010B50C480A4901605C
:104520004FF41651416000218160C16001610C228D
:1045300042618161C161FFF72FF9002803D0BDE816
:104540001040FCF77ABF10BD0010014000070020AA
:1045500010B50C480A4901604FF416514160002122
:104560008160C16001610C2242618161C161FFF71C
:1045700013F9002803D0BDE81040FCF75EBF10BD62
:10458000004400404407002010B50C480A4901606F
:104590004FF4E131416000218160C16001610C2272
:1045A00042618161C161FFF7F7F8002803D0BDE8DF
:1045B0001040FCF742BF10BD0014014088070020E6
:1045C000FEE7FEE770477047FDF76EBA02480168E4
:1045D00041F470010160704788ED00E00148FEF78A
:1045E000DEBB0000C40400200148FEF7D8BB000079
:1045F0000C0500202DE9F0410268264D264E274F7C
:10460000DFF89CC0274B4FF08048A84209D04045B6
:1046100007D0B04205D0B84203D0604501D09842DF
:1046200003D122F070044A682243A8421BD04045BF
:1046300019D0B04217D0B84215D0604513D0984277
:1046400011D0194CA0420ED0184CA0420BD0184CDF
:10465000A04208D0174CA04205D0174CA04202D06F
:10466000164CA04203D122F44074CA6822434C691C
:1046700022F08002224302608A68C2620A68826273
:10468000A84201D0984201D1096901630121416129
:10469000BDE8F08100000140000400400008004037
:1046A000000C004000040140004001400044014073
:1046B0000048014000180040001C0040002000405D
:1046C00010B501F01F0101238B40046A9C43046272
:1046D000036A8A401343036210BD10B5846824F452
:1046E0007F4442EA03220A432243826010BD000055
:1046F000F0B5026A22F010020262036A426884691D
:1047000024F4E04424F440740D6844EA052423F0C2
:1047100020038D6843EA0513104D114EA84201D0C5
:10472000B04206D123F08003CF6843EA071323F099
:104730004003A84201D0B04209D122F4806222F4A1
:1047400000624D6942EA85028D6942EA8502426053
:104750008461496881630362F0BD0000000001408C
:10476000000401400148FEF703BF0000BC06002022
:1047700037B582B004461346039AA262A38500258A
:104780002564222084F83E00A16B1B48C863A16BFE
:104790001A480864A16B1A48C864A06B05652168B3
:1047A000A06B091DFCF7F6FF2068016840680190C6
:1047B00084F83C5020680C3050E8001F41F48071B0
:1047C00040E80012002AF5D12068143050E8001F9C
:1047D00041F0010140E80012002AF5D120681430B0
:1047E00050E8001F41F0400140E80012002AF5D1D6
:1047F00005B0002030BD0000D58B0008518B0008AB
:10480000CF88000881628285C2850021016422224E
:1048100080F83E2080F83C100168CA6842F480723B
:10482000CA6001684A6942F001024A610068C168D1
:1048300041F02001C1600020704700000148FEF7F0
:1048400097BE00000007002010B50648FEF790FE56
:10485000054800F18401B0F80421BDE8104001488A
:10486000FEF7D1BD440700209C100020FEE70000A9
:1048700000B52DED028B81B00D49496800910168AA
:10488000009A511A00EE101A0A49F8EE400A91ED0A
:10489000000AB8EE400A80EE808A0099016003F0B9
:1048A000E7F901B0B0EE480ABDEC028B00BD000094
:1048B000001000E01002002010B500F01FF80C48B6
:1048C0009FED0C1A818890ED000A00EE901AC088C6
:1048D000B8EE400AF8EE600A00EE810A00EE900A97
:1048E0009FED051AF8EE600A00EE810A10BD000087
:1048F000080200206F12833ABD3786352DE9F04754
:1049000003F0B6F91F48204F4FF0FF3302683868B4
:1049100000263146E2FB03011C4908601C4934466D
:104920000968B0FBF1F3C7E90236A3FB012504FBDC
:10493000015103FB0614801A66EB040104460D4680
:10494000C7E90401DFF84C80C8F8003012480023A2
:104950002946D0F8009020464A46FCF7A6F982B2D4
:10496000A8F8042002FB09F2A01A65EB0601C7E9CA
:1049700006010A4A00231268FCF797F9A8F8060016
:10498000BDE8F0871C0200207800002028020020EB
:10499000100200200802002014020020180200204B
:1049A0002DE9F04704460D4617461E46DFF8E4831E
:1049B0000420A8F800000820A8F8020025736773F7
:1049C000A6734FF0000984F810903046FCF73EF9CA
:1049D00060613146FCF776FAB8F800007043FCF7E6
:1049E00035F9A061B8F800107143FCF78DFAB8F8FA
:1049F00000007043FCF72AF9E061B8F80010714339
:104A0000FCF782FAB8F800006843FCF71FF920624F
:104A1000B8F800106943FCF777FA3046FCF716F94E
:104A200060623146FCF74EFAB8F800006843FCF7C4
:104A30000DF92060B8F800106943FCF765FAB8F882
:104A400000007043FCF702F96060B8F80010714391
:104A5000FCF75AFAB8F800007843FCF7F7F8A060C2
:104A6000B8F800107943FCF74FFAB8F80000684333
:104A7000FCF7ECF8C4F8E800B8F800106943FCF75C
:104A800043FA217B012204F13000D4F8E830FBF72F
:104A900095FCB8F800006843FCF7D8F8C4F8EC00BF
:104AA000B8F800106943FCF72FFA217B012204F1CA
:104AB0003800D4F8EC30FBF781FC9FB1B8F8000067
:104AC0007843FCF7C3F8C4F8F000B8F80010794355
:104AD000FCF71AFA617B012204F14000D4F8F030AF
:104AE000FBF76CFCB8F800007043FCF7AFF8C4F8B3
:104AF000F400B8F800107143FCF706FAA17B01221C
:104B000004F14800D4F8F430FBF758FCB8F8000082
:104B100068436843FCF79AF8C4F8F800B8F8001046
:104B200069436943FCF7F0F9217B04F150000A4620
:104B3000D4F8F830FBF742FCB8F80000684368434B
:104B4000FCF784F8C4F8FC00B8F800106943694326
:104B5000FCF7DAF9217B04F158000A46D4F8FC305E
:104B6000FBF72CFCB8F8000068436843FCF76EF8CC
:104B70008834A067B8F8000068436843FCF766F81B
:104B8000E067B8F80010A06F69436943FCF7BCF90F
:104B9000B8F80010E06F69436943FCF7B5F914F801
:104BA0007C1CA36F883C0A4604F16000FBF706FCFE
:104BB000217B04F168000A46D4F80431FBF7FEFBC0
:104BC000AFB1B8F8000068437843FCF73FF8C4F889
:104BD0000801B8F8001069437943FCF795F9627B46
:104BE000217B04F17000D4F80831FBF7E7FBB8F83B
:104BF000000070436843FCF729F89434A067B8F8C4
:104C0000000068437043FCF721F8E067B8F8001033
:104C1000A06F71436943FCF777F9B8F80010E06FB3
:104C200069437143FCF770F914F8882C14F8861C5A
:104C3000A36F943C04F17800FBF7C0FBA27B217BBF
:104C400004F18000D4F81031FBF7B8FBB8F800008D
:104C500068436843FBF7FAFFC4F81401B8F8001082
:104C600069436943FCF750F9217B04F188000A4647
:104C7000D4F81431FBF7A2FBB8F80000704370437E
:104C8000FBF7E4FFC4F81801B8F800107143714352
:104C9000FCF73AF9A17B04F190000A46D4F81831E8
:104CA000FBF78CFBB8F8000068437043FBF7CEFFBE
:104CB000C4F81C01B8F8001069437143FCF724F9EB
:104CC000A27B217B04F19800D4F81C31FBF776FB22
:104CD000207B10FB00F0B8F800104843FBF7B6FF4C
:104CE000C4F82001207B10FB00F0B8F80010484306
:104CF000FBF7ACFFC4F82401207B10FB00F0B8F8F0
:104D000000104843FBF7A2FFC4F82801207BB8F845
:104D100000104843FBF79AFFC4F82C01207BB8F839
:104D200000104843FBF792FFC4F83001217B04F1E7
:104D3000A0000A46D4F82031FBF740FB217B04F1A8
:104D4000A8000A46D4F82431FBF738FB217B04F194
:104D5000B0000A46D4F82831FBF730FB217B012252
:104D600004F1B800D4F82C31FBF728FB217B012299
:104D700004F1C000D4F83031FBF720FB84F8289010
:104D800084F8299084F82A9084F82B9084F82C9049
:104D9000BDE8F087940100202DE9F047044694F81F
:104DA0002A00002855D104F1800104F178000D4655
:104DB0000746FBF7C1FE6C3484F85C00A089A0872D
:104DC00034F8120CE0876C3C04F1A80204F158019D
:104DD000164688463846FBF78DFD823484F8460037
:104DE000E08CE08520882086823C04F1B0021746E2
:104DF00029463046FBF77EFD903484F83800208841
:104E0000208260886082903C04F1A002914604F107
:104E100090013846FBF74EFAAA34A0773946484647
:104E2000FBF7D0FAA07734F8520C24F8020C34F8CF
:104E3000280C2080324629464046FBF75BFDA077D0
:104E4000AA3C04F1980239463046FBF753FD84F83A
:104E5000C800BDE8F087704730B593B0302107A88F
:104E6000FCF752F8142102A8FCF74EF800251E4862
:104E7000016841F080510160006800F080500190AD
:104E80001A48016841F480410160006800F48040E4
:104E900001900A20079001200A9010210B910C909C
:104EA00002240D940E9508200F90A82010901194C4
:104EB0000720129007A8FCF791FF08B1FCF7BDFA94
:104EC0000F200290039404954FF4A05005904FF4E6
:104ED00080500690052102A8FCF784FE002801D02E
:104EE000FCF7ABFA13B030BD403802400070004010
:104EF00001460348406D00F52C6000F0EFBE000055
:104F0000A021002070B50446204600F06FF8D4F8C8
:104F1000CC1009B120468847204600F003FCD4F8A5
:104F2000D01009B120468847204600F0C5FBD4F8D0
:104F3000D41009B120468847207C2B4DC0B9E07BB6
:104F4000B0B1227B28884243D4E93A01FBF788FFBD
:104F5000207B10FB00F228884243D4E93E01FBF796
:104F60007FFFD4F8E01009B120468847002029E0EF
:104F70002046FFF711FFD4F8D81009B12046884722
:104F8000204600F059FBD4F8DC1009B120468847D0
:104F9000204600F015F9E4E700FB0101D4F8F82001
:104FA00002EB8101226AD1ED000A02EB800292ED50
:104FB000000AF4EEC00AF1EE10FA01D281ED000A07
:104FC000401CC0B2217B8142E6D8227B2888D4F8DD
:104FD000E81042432068FBF743FFD4F8E41009B11E
:104FE00020468847206870BD9401002070B50446B3
:104FF0000F4DE07B002803D0204603F06FF90DE051
:10500000A27B288861684243D4F8F400FBF728FFAC
:10501000A17B288841436068FBF776FF627B288884
:10502000A1684243D4F8F000BDE87040FBF718BF18
:1050300094010020F8B5069C1F4E0568B54211D1B9
:105040001E4D69602A81A5F80A31A5F80C414FF47C
:105050007A7105F18A0200910123A2F18001FDF726
:105060008DF9F8BD164F1E19BD4210D1154D69605E
:105070002A81A5F80A31A5F80C4105F18A0201B090
:10508000B3B2BDE8F040A2F18001FDF769BA0E4F5E
:10509000BD42E6D10D4D69602A81A5F80A31A5F817
:1050A0000C4105F18A0201B0B3B2BDE8F040A2F1B3
:1050B0008001FDF755BA000000300140500C00207F
:1050C00000380040640D0020003C0040780E0020B5
:1050D00001460348406D00F5316001F039B8000029
:1050E000A021002070B504462DED028B012525700E
:1050F00084ED6C0AC4ED6D0A84ED6E1A9FED280AEA
:1051000084ED730A002084F83801D034002121672F
:105110006167A167E167D03C11EE900AB7EE008AA3
:10512000B0F17E5F01DDF0EE481AC4ED741A84ED33
:10513000642A032300220621201DFFF731FC0122EF
:1051400004F5E473114604F5E070FBF737F9883491
:10515000606E80ED008A606E9FED120A80ED010A9C
:10516000606E80ED020A606E80ED030A0E48A06456
:105170000E48E0640E4820650E48606504F85A5CED
:1051800004F8595C90220C49E06FFBF769FE606FF0
:105190009022BDEC028B0949BDE87040FBF760BE70
:1051A00077CC2B3200000000617D000849810008A7
:1051B0009D7C0008957D00087CAF0008040100205C
:1051C0002DE9F041044694F82C00002827D17434CE
:1051D000A08CA086E188E186A08734F81A0CE087CD
:1051E000743C04F1A802154604F1780104F198001A
:1051F000FBF780FB84F8C80004F1B00204F1580109
:1052000016460F462846FBF775FB84F8C80004F1E4
:10521000500231463846FBF70BFC84F8C800BDE865
:10522000F081704770B504462DED088BB0EE40BAA2
:10523000F0EE60AAB0EE41AAF0EE619AB0EE429AAA
:10524000F0EE628AB0EE438A207800280CD1204626
:105250009FEDED2AF7EE001A9FEDEC1ADFEDEC0A58
:10526000B2EE040AFFF73EFF04F5827484ED2E8A45
:10527000D4ED171A7BEE611AC4ED1A1A94ED180AD0
:105280003AEEC00A84ED1B0AD4ED190A7AEE600AE0
:10529000C4ED1C0AB6EE001ADE4D61EE811A61EE15
:1052A000881AC5ED011A20EE010A20EE080A85EDE4
:1052B000020A20EE810A20EE080A85ED030A9022F8
:1052C000D5492068FBF7CCFD95ED010A2068B1EEC9
:1052D000402A80ED012AD5ED020A2068F1EE602A0D
:1052E000C0ED022A95ED031A2068F1EE411AC0EDD7
:1052F000031A206880ED060A206880ED081A2068ED
:10530000C0ED092A2068C0ED0C0A2068C0ED0D1A16
:10531000206880ED0F0A206880ED121A2068C0ED29
:10532000130A206880ED142AD4E91101A4F58274CF
:10533000084305D1C4ED5E9A84ED5F9AC4ED608A9E
:1053400094ED5E0AD4ED640A94ED6F1A20EE202AE3
:1053500031EE200AC2EE001A21EE292AC2EE002AFE
:1053600071EEA22AC4ED5E2AD4ED5F1A21EEA02AC6
:10537000C2EE001A21EE092A82EE003A71EE831A7B
:10538000C4ED5F1A94ED602A21EE281A22EE202A3D
:10539000C2EE000A81EE002A70EE820AC4ED600AB5
:1053A00022EEA20A01EEA10A00EEA00A02F080FF9E
:1053B00085ED040A002004EB8001D1ED5E0AA168AE
:1053C00060EE800A01EB8001C1ED000A401CC0B212
:1053D0000328F0D394ED5B0AD4ED5C0A20EE000ABA
:1053E00000EEA00AD4ED5D0A00EEA00A02F060FF14
:1053F000B7EE009A89EE001A84ED651AD5ED040A1D
:1054000089EE200A84ED660A11EE100A834988426B
:105410000DDA10EE100A8249884208DD10EE100AFB
:105420008049884203DA012084F8390102E0002033
:1054300084F8390104F58C7494ED260AD4ED290A18
:10544000206820EE200A80ED000A94ED260AD4EDB3
:10545000290A206820EE200A80ED070A94ED260A2A
:10546000D4ED290A206820EE200A80ED0E0A94ED82
:10547000260AD4ED290A206820EE200A80ED150ABC
:1054800094ED270AD4ED290A206820EE200A80ED49
:105490001C0A94ED270AD4ED290A206820EE200A80
:1054A00080ED230A606894ED280A80ED000A6068A8
:1054B00094ED280A80ED040A606894ED280AA4F5AA
:1054C0008C7480ED080A201DFFF71CFD606890EDCC
:1054D000001A84ED541A90ED010A84ED550A90EDFE
:1054E000022A84ED562AD0ED031AC4ED571AD0EDE6
:1054F000040AC4ED580AD0ED050AC4ED590AD5EDE9
:10550000000AC4ED5A0A61EE012A21EE211AB0EE1A
:10551000008AF0EE490A40EE002A00EE021A52EE2E
:10552000880A21EE080A04F087F9DFED3F8A20EEB1
:10553000280A84ED6A0A94ED540A94ED571AF0EEA5
:10554000490A60EE001A41EE011A51EE880AD4EDC4
:10555000551A20EE210AD4ED561A01EE810A20EEEA
:10556000080A04F069F920EE280A84ED690A94ED2E
:10557000550AD4ED570A94ED561A20EE200AD4EDC0
:10558000540A00EEC10AF8EE000A20EE200A04F0E8
:10559000BDF820EE280A84ED680A94ED6A0AD4ED7D
:1055A000760A224970EE600A10EE900A884205DD04
:1055B000B4F8D401401EA4F8D40109E010EE900A1A
:1055C0001B49884204D9B4F8D401401CA4F8D40182
:1055D00004F5A474DFED171AB4F98C0000EE900AFC
:1055E000B8EEE01AF0EE400A41EE210AC4ED190AC5
:1055F00084ED240AD4E90001401C41F1000103C4F8
:10560000BDEC088B70BD0000000000008096184BB8
:105610006F12833ABC0000207CAF00089A99993E33
:10562000CDCC1441CDCC2441E12E65420000344361
:10563000000034C30000B4432DE9F041044694F85F
:105640002B00002836D1B4F87800A4F8B800012562
:10565000A4F8BA5004F1B80204F1380116460F4616
:1056600004F17800FBF746F9AA34A07734F8620C0D
:10567000E0822583AA3C04F1C0029046314604F141
:105680004800FBF7D5F9983484F83000208820844E
:105690006584983C3246414604F19800FBF72AF9AC
:1056A00084F8C80004F1300231463846FAF702FEA9
:1056B00084F8C800BDE8F0812DE9F041044694F873
:1056C000290000282CD104F1680104F160000D4686
:1056D0000746FBF731FA84F8C80004F15802164671
:1056E00004F150013846FBF705F984F8C800B4F816
:1056F0005800A4F8A800B4F86A00A4F8AA0004F1BD
:10570000A802174629463046FBF7F4F884F8C8008B
:10571000324604F188013846FAF7CCFD84F8C80017
:10572000BDE8F0812DE9F041044694F828000028F6
:105730002AD1627B04F1300104F1600004F13805E4
:1057400022B3227BA4F8B8200126A4F8BA6004F1A1
:10575000B8021746FBF7CEF884F8C800207BA4F8FF
:10576000C000A4F8C26004F1C002164604F1400172
:1057700004F17000FBF7BEF804F8C80F2A46314662
:105780003846FAF797FD2070BDE8F0812A46FBF70E
:10579000B1F884F8C800F7E770B50D4802F002F9D7
:1057A0000B48406D00F5B36003F0E0FB094800F0E2
:1057B000CBFF0024074DC4EBC40000EB400005EB19
:1057C0000010543000F0DAFA641C042CF3DB70BDD6
:1057D000A02100200016002070B5094800F076FFD7
:1057E0000024074DC4EBC40000EB400005EB0010A3
:1057F000543000F03DFB641C042CF3DB70BD000052
:10580000001600200D490A6842F080720A600C49B7
:1058100000224A600B6843F001030B6009494843CA
:10582000094908604FF47A73B0FBF3F34B60054B02
:10583000B0FBF3F08860CA6070470000FCED00E048
:10584000001000E040420F00100200200C4B0268E4
:105850009A4204D10B4A1060C2F8101170470A4BEB
:105860009A4204D1094A1060C2F810117047084BDF
:105870009A42FBD1074A1060C2F81011704700002D
:1058800000300140500C002000380040640D002022
:10589000003C0040780E0020374B02689A4203D14A
:1058A000364A106051607047B2F1804F07D0344BD8
:1058B0009A4209D1314A10321060516070472F4A24
:1058C00008321060516070472E4B9A4204D12B4A27
:1058D00018321060516070472B4B9A4204D1274A0E
:1058E0002032106051607047284B9A4204D1234AFD
:1058F0002832106051607047254B9A4204D11F4AEC
:105900003032106051607047224B9A4204D11B4ADA
:1059100038321060516070471F4B9A4204D1174AC9
:1059200040321060516070471C4B9A4204D1134AB8
:105930004832106051607047194B9A4204D10F4AA7
:105940005032106051607047164B9A4204D10B4A96
:105950005832106051607047134B9A4204D1074A85
:105960006032106051607047104B9A42FBD1034A7D
:1059700068321060516070470000014098010020BB
:105980000004004000080040000C004000100040EF
:105990000014004000040140004001400044014068
:1059A0000048014000180040001C0040002000405A
:1059B0000A4841680A4AD2ED000A4268521AF8EED3
:1059C000601A01EE102AB8EE411A60EE211AB4EE08
:1059D000E11AF1EE10FAF0D370470000001000E079
:1059E0001002002010B5A820FFF70CFF39493A48F3
:1059F000FFF752FF39493A48FFF74EFF39493A4815
:105A0000FFF724FF13223949394800F0C7F8142260
:105A10003849394800F0C2F814223849384800F0B3
:105A2000BDF8132237493248FEF74AF8364800F5E8
:105A30003A64606500220821204603F07BF9606D1E
:105A400000F060FD00213148FDF7B0FB0021304837
:105A5000FDF7ACFB00212F48FDF7A8FB04212D48E2
:105A6000FDF7A4FB08212B48FDF7A0FB0C212948DA
:105A7000FDF79CFB00212848FDF798FB04212648F0
:105A8000FDF794FB00212548FDF790FB04212348F6
:105A9000FDF78CFB08212148FDF788FB0C211F48EE
:105AA000FDF784FB3C211E48FDF724F93C211D48ED
:105AB000FDF720F93C211C48FDF71CF93C211B484F
:105AC000FDF718F90448FCF769FFBDE810400448E9
:105AD000FCF764BF99570008C4040020D957000898
